:020000040000fa
:080000000002040000000000f2
:020000040000fa
:100400002fed20008e7d22000e01880000000000ec
:100410000c000700a0392200010020001f00070087
:10042000000020000000e000020032000000020096
:10043000000000003a260200000000000040da0040
:100440000000fe004440a900000020000000e00081
:100450000300320000002000a00188004440a800f2
:1004600000000600f03fb1000180b1000600350039
:10047000ee03090000000000403fb1000180b10020
:10048000fbff3d001000b000203fb000020035002f
:1004900000800900000000000000060091018800b3
:1004a000800078000000eb0015003700e28040007b
:1004b00032a0b4009101ba00e280400032a0b40042
:1004c0009102ba00e280400032a0b4000002eb00ca
:1004d000472bde00f507b200602ce10004003a0073
:1004e0000059eb008301e900fdff3e0004003700e6
:1004f0006128e100010032000082eb0004000700e7
:100500001101ba000200e000e8ff3a000000060016
:100510003159ba008301e9000c0032002159ba00b8
:100520008301e900080032000400e00003003a0003
:10053000e280400032a0b400f5ff370011d9ba00c4
:100540008301e900faff3a008100e800e180400001
:1005500032a0b400000006000040da000000fe00f7
:10056000889fbe0080047800405780000000e000b3
:1005700003003a00100007000000e0000a00350008
:10058000405780000900e00002003a0000047800b3
:10059000060037000004780009004000060007004c
:1005a0000000e00001003d000084eb00080078003e
:1005b0004f04be0000000600800078000000e0004c
:1005c00004003a00a0ae20004057880001017800e6
:1005d000060037000081eb0020ed2000808f5000e6
:1005e00002003e00415788000001eb000200780045
:1005f0000000060014002000d70137000001be00f3
:10060000f00107000470a70003f0a1006509b10024
:10061000160032000d0035006828e10006003500a4
:10062000f0ff2f00f1ff27000300e00013003b0064
:100630000100280000000500000040008180480003
:100640008502e900fcff3a0008003700f88f4200fd
:1006500002003c008000eb00000005008100d1009a
:100660000080d3008502e800fcff3a000300e000b0
:1006700002003b0060001000e0801800000006004f
:10068000f4ff2f00b4013700889fbe008a9fbe0090
:10069000010578000100e0000400350008003c007e
:1006a0000000e0002000320005003700600010006c
:1006b000e080180002003b0001f02c001a00370017
:1006c0000004be006011b8006b0920000982cf0051
:1006d000020039000882cf000441b0006942520094
:1006e0000e00320008003b0082817100610164004d
:1006f0008904d1000884d3008b05e8000442e80097
:10070000f9ff3a00050037000804440089844c00d2
:100710008b05e9000442e900fbff3a00be01070037
:100720000af0a70001f0a0004f05be004f04be0074
:100730000000060003f0a200889fbe008a9fbe0052
:100740008c1f7800da010700e10133006450e100fa
:100750004f0032006420e1005200320003826c003e
:1007600007003b000905d0000306d000820f5400ab
:100770000c065d0002003900020032008901780099
:10078000030678008582550004003d000003fd004b
:100790008103fd008502ea008b854200840f720010
:1007a00002003b0060001000e08018006011b800fb
:1007b0000005eb007a28e1000a0039000600780005
:1007c000c75ddd00f707b200878075002d00370098
:1007d000828171000a017800610560008180d1008a
:1007e0000080d3008502e900f9ff3b0006044000c9
:1007f0008784480002003b0060041400e0841c0071
:100800000988a300070032008a817100828171008b
:10081000610164008904d1000884d3008b05e800dd
:10082000170037000978a30013003a000b00e0001e
:10083000130034008b05e9000804440089844c004f
:100840000a4474000978a3000d003a000b00e00090
:10085000070034008b05e9000804440089844c003b
:1008600001003a000b0020000978a300f7ff3200d6
:100870000001eb0002003700828171000a0178005c
:10088000650107000cf0a70001f0a00099013700f6
:100890006420e10002003a00838f6c00990133006c
:1008a0000801be000200be0092013700889fbe0012
:1008b0008a9fbe008c1f78007d01070084013300f1
:1008c00003866c006450e100240032006420e100e3
:1008d000270032006150e100220032006120e10077
:1008e000210032008b854200eb07b1000134b800d3
:1008f000003ab8000804420089844a00013ab8006e
:100900000030b8008880400009014a00040033002c
:100910000000400081804800020149008b05e90089
:10092000c909dd00830170000100320013002000be
:10093000c814de004814dd004709de001200b200d2
:10094000c808de00088470003301070001f0a10030
:100950000cf0a70001f0a000660137006120e10063
:10096000680132000801be000200be00f7ff370038
:100970006150e100fcff3a0062013700889fbe0031
:100980008a9fbe008c1f7800490107005001330088
:1009900003866c006450e1002e0032006420e10008
:1009a000330032006150e1002f0032006120e1008d
:1009b0003100320085855500eb07b00009002000aa
:1009c00008042000050037000804440089844c0016
:1009d0000a0031000603430087834b0000015300e7
:1009e00081815b00f8ff33000203be000800a00015
:1009f0000804440089844c00f6ff3900c639dd0044
:100a00008301730001003200130020008904d1002b
:100a10000884d3000998a300050032000800a7004d
:100a20000300a0008904d1000884d3008b05e800ee
:100a30008904d1000884d3000001eb000281d200b8
:100a4000f500070001f0a1000cf0a70001f0a000e4
:100a5000280137006420e1002a0132000801be00ad
:100a60000200be00f7ff37006120e10025013200df
:100a70006000b800f3ff37000000200001f82700f5
:100a8000f0ff3700889fbe008a9fbe008c1f780051
:100a90000004be00cb0007000478a30026003a0043
:100aa0006120e1002500320009f8a30025003a008a
:100ab0006420e10021003200f507b1000508a30021
:100ac0000200320000004000818048006044b8000d
:100ad0000310200002002000000040008180480038
:100ae0000805440089854c000a0541008b854900b2
:100af0000a0550008b855800030033000a00be0031
:100b000002047400838474008301d1000281d30045
:100b1000830f7100f0ff3a008904d1000884d300ec
:100b20006001490082017800c1adde00fb07b00022
:100b3000b9000700ef0037000960a0000800be0000
:100b4000ec00370012022000b2568800f0ff2f00a0
:100b5000f1ff2700e7003700889fbe008a9fbe0094
:100b60008c9fbe000004be00960007000800be0077
:100b7000890678006420e100080039000400320092
:100b80000160a00012022000b25688005300370016
:100b900091fc2300b0fd20004e0037000006eb0062
:100ba00009f0a10003f82300020020000800be00a5
:100bb00090fe07000600340001f82300000020002a
:100bc0000801be006dff07000004be002c002000dd
:100bd0000800be0093e82300320a230085fe0700c8
:100be000120034000801be00d1fd2300703d2b002f
:100bf000d1fe07000005be00b3f32300f27a260001
:100c00000800be0029ff070003f8230002002000af
:100c1000c8fe07000801be00c7fe07000a01be00ab
:100c200056ff07000004be000c06e8000800be00e6
:100c300001f0a10002002000039823006dfe0700d0
:100c40000800be00160035000801be0017ff0700af
:100c50000005be0032cd2c0043fb2300b6fe07008a
:100c6000809fbe001269280003d52b000a00be0039
:100c70000eff0700620f210013ef2b00aefe0700ee
:100c80000a01be0009ff07004f01be003bff07003d
:100c90000801be0005ff07000801be00a6fe070010
:100ca0000c00e0000b0032000c10a70001f0a200c5
:100cb000b2fd200093fc23006260e10004003200da
:100cc00022a9200063f023000c10a70063f8230082
:100cd00099fe07000df0a70001f0a2004f06be002c
:100ce0004f05be004f04be00000006000001be001c
:100cf000340007000470a70003f0a10003f8a3006c
:100d000013003a006509b1001000320009003500f7
:100d10006928e100020035000100280000000500fc
:100d200000004000818048008502e900fcff3a0095
:100d300000000600f88f4200050035008100d10058
:100d40000080d3008502e800fcff3a0000000600a6
:100d50008000eb0000000500889fbe008a9fbe0057
:100d6000841f7800520007004f0078001100330004
:100d7000f0ff2f00838f6c0006003b000405650028
:100d80000a00a7000800370009f0a60010002000a4
:100d900008003700820f5400838f5c000300390085
:100da0001000200001003e000000200009f0a70014
:100db0000000ea004f05be004f04be000000e00046
:100dc00000000600c70ade00f107b200f50fb2000e
:100dd00008003200e1cf4200020032000170a000a2
:100de00024000500810f7000010032000408050096
:100df00044000500810f700002003a001400050055
:100e00008502e9000000400081c04800fcff3b0073
:100e10000170a000240005008100200061805500c1
:100e20000b003d000b00200061fe2f000100e100df
:100e30001d00340082817100610164008904d100c9
:100e40000884d3000000e800faff3a007100200097
:100e500061006400030070000200600009003200bd
:100e600061044400e0844c000988a50005003200bc
:100e70008b05e8006808e10002003a008904d1000f
:100e80000884d300f20f20000258e10005003d0065
:100e9000c75ddd00f907b2008980750008007800a1
:100ea000000006000bf827008b007800000005000a
:100eb0000004be00c3ff07000003be000405be001f
:100ec0000200be00bfff0700844f7500000006004f
:100ed0000200be006450e100050036006420e1001d
:100ee000020036000968a30001003a000800be00b5
:100ef0000160a0004f0678004f05be004f04be0001
:100f000000000600f0ff2f00f1ff2700f9ff370077
:100f1000889fbe008a9fbe008c9fbe0000017800a3
:100f200001ae20001100e0000b003a0040ae2000ae
:100f300000578800e056880021578800f156880045
:100f4000214090000004a000a04098006140900063
:100f50000004a000e0409800e7004100c208de0065
:100f6000c20cdd00f4568000adae200020ed200064
:100f70000d05500022002000811f7800110009009b
:100f80000205d80000067800cf007800c308dd0015
:100f9000e48540008001eb00a6ae200005ae2000f5
:100fa0000100370001027800244090000008a300ef
:100fb000020032000a003700110a7800940078001d
:100fc000214090000008a300fbff3200090142000d
:100fd000828f500002003900840f5100460031001a
:100fe00094007800848f5000eeff3e00868f500002
:100ff00002003900858f5000eaff3900e05680007a
:10100000800f52004f003a00858f50004d003a008b
:101010008301e800e18f5100e2ff36008c8f54001d
:10102000040036008a8f5400020031000b0478005f
:1010300012003700614ab8006151b900b0ff2f00bb
:10104000010020000200500083805800800f5200f1
:10105000818f5a000200350009047800070037002c
:101060000d80540052ed20000200400011000900e4
:101070000a80d8000a80b9000004780008007800cf
:1010800037fd070080017800e10f40002d0032009d
:10109000e056800003087800e256800064004100ba
:1010a000a2409000808f5100020032000104a00095
:1010b000010037000104a10021419800088041008f
:1010c0006400500080097800e056880002ae2000dd
:1010d00002087800e1568000214090000004a00042
:1010e000a0409800234090000004a100a041980077
:1010f00002027800a7ff3700f2568800828f500066
:101100000900360092007800a0ad2000a2419000b6
:1011100003487800c1568800140978008040eb002d
:10112000f056800021409800f0568000000a7800b8
:10113000244090000004a000204298006400420077
:10114000010037000000eb004f06be004f05be0057
:101150004f04be000000060064005000f0568800f6
:10116000a04090000104a10021409800000006006a
:10117000889fbe008a9fbe0000057800e4015000f1
:1011800013001000c285de00234090000008a30079
:1011900004003200f3568800234090000004a100b0
:1011a000a04198000100780059ff07000004780072
:1011b0000000e000170032008a0f500015003200d6
:1011c00060b8970008005000c284de00898f550087
:1011d00001003600890578004259dd008a00780058
:1011e000080078000f0007008a0f54000900310042
:1011f0004248dd00000044008a0f50000500360020
:101200000a00500000004400c2568000d3568000ff
:101210000288be00080078004f05be004f04be00e3
:10122000000006008001eb000200370061f0790049
:101230008301e800828f5100fcff3a0000000600a5
:020000040000fa
:0200000401f009
:04000c00f8ff0000f9
:020000040000fa
:0200000401f009
:040010007fff00006e
:020000040000fa
:0200000401f009
:040014007fff00006a
:020000040000fa
:0200000401f009
:04001c00dfff000002
:020000040000fa
:10000800ac020000ac020000ac020000ac02000030
:10001800ac020000ac020000ac020000ac02000020
:10002800ac020000ac020000ac020000da200000c4
:10003800d2220000ac020000ac02000072210000d5
:10004800ac020000ac020000bc220000ac020000c0
:10005800ac020000ac0200000c230000ac0200005f
:10006800ac020000ac020000ac020000ac020000d0
:10007800ac020000ac020000ac020000ac020000c0
:10008800ac020000ac020000ac020000ac020000b0
:10009800ac020000ac020000ac020000ac020000a0
:1000a800ac020000ac020000ac020000ac02000090
:1000b800ac020000ac020000ac020000ac02000080
:1000c800ac020000ac020000ac020000ac02000070
:1000d800ac020000ac020000ac020000ac02000060
:1000e800ac020000ac020000ac020000ac02000050
:1000f800ac020000ac020000ac020000ac02000040
:10010800ac020000ac020000ac020000ac0200002f
:10011800ac020000ac020000ac020000ac0200001f
:10012800ac020000ac020000ac020000ac0200000f
:10013800ac020000ac020000ac020000ac020000ff
:10014800ac020000ac020000ac020000ac020000ef
:10015800ac020000ac020000ac020000ac020000df
:10016800ac020000ac020000ac020000ac020000cf
:10017800ac020000ac020000ac020000ac020000bf
:10018800ac020000ac020000ac020000ac020000af
:10019800ac020000ac020000ac020000ac0200009f
:1001a800ac020000ac020000ac020000ac0200008f
:1001b800ac020000ac020000ac020000ac0200007f
:1001c800ac020000ac020000ac020000ac0200006f
:1001d800ac020000ac020000ac020000ac0200005f
:1001e800ac020000ac020000ac020000ac0200004f
:0801f800ac020000ac020000a3
:020000040000fa
:10020800ac020000ac020000ac020000ac0200002e
:10021800ac020000ac020000ac020000ac0200001e
:10022800ac020000ac020000ac020000da200000c2
:10023800d2220000ac020000ac02000072210000d3
:10024800ac020000ac020000bc220000ac020000be
:10025800ac020000ac0200000c230000ac0200005d
:10026800ac020000ac020000ac020000ac020000ce
:10027800ac020000ac020000ac020000ac020000be
:10028800ac020000ac020000ac020000ac020000ae
:10029800ac020000ac020000ac020000ac0200009e
:1002a800ac020000ac020000ac020000ac0200008e
:1002b800ac020000ac020000ac020000ac0200007e
:1002c800ac020000ac020000ac020000ac0200006e
:1002d800ac020000ac020000ac020000ac0200005e
:1002e800ac020000ac020000ac020000ac0200004e
:1002f800ac020000ac020000ac020000ac0200003e
:10030800ac020000ac020000ac020000ac0200002d
:10031800ac020000ac020000ac020000ac0200001d
:10032800ac020000ac020000ac020000ac0200000d
:10033800ac020000ac020000ac020000ac020000fd
:10034800ac020000ac020000ac020000ac020000ed
:10035800ac020000ac020000ac020000ac020000dd
:10036800ac020000ac020000ac020000ac020000cd
:10037800ac020000ac020000ac020000ac020000bd
:10038800ac020000ac020000ac020000ac020000ad
:10039800ac020000ac020000ac020000ac0200009d
:1003a800ac020000ac020000ac020000ac0200008d
:1003b800ac020000ac020000ac020000ac0200007d
:1003c800ac020000ac020000ac020000ac0200006d
:1003d800ac020000ac020000ac020000ac0200005d
:1003e800ac020000ac020000ac020000ac0200004d
:0803f800ac020000ac020000a1
:020000040000fa
:101240000c00fa005007980040002000a0548800cd
:10125000a0548000000040002dff0700b05488001b
:10126000a05480000000400029ff0700c0548800ff
:10127000b05480000000e000e5003200c05480005f
:101280000000e000e2003200b05480004007980007
:10129000c154800031079800b154800000e0220062
:1012a00080087800b05480008080e800b0ec2b000b
:1012b00080087800b0548000e40040003030200006
:1012c00080087800b0548000e6004000300c200018
:1012d00080087800b054800090007800f00f200063
:1012e00000806000e0548800b05480001000780056
:1012f0004800de00f0548800b05480000080e80010
:1013000090007800f00f20000080600000558800f9
:10131000b05480000080e800100078004800de0033
:1013200010558800b05480006400400090007800a0
:10133000f00f20000080600020558800b05480002d
:1013400064004000100078004800de00305588003e
:10135000b05480006600400090007800f00f20003c
:101360000080600040558800f00f2000d0548800b5
:10137000e1548000d054800000806800800040006c
:10138000008520000080400010007800d0548800c4
:10139000f1548000d054800000806800800040003c
:1013a000008520000080400010007800d0548800a4
:1013b00001558000d054800000806800800040000b
:1013c000008520000080400010007800d054880084
:1013d00011558000d05480000080680080004000db
:1013e000008520000080400010007800d054880064
:1013f00021558000d05480000080680080004000ab
:10140000008520000080400010007800d054880043
:1014100031558000d054800000806800800040007a
:10142000008520000080400010007800d054880023
:1014300041558000d054800000806800800040004a
:10144000008520000080400010007800d054880003
:10145000d05480008080ea00f00f200000806000ff
:10146000d0548800b054800066014000d054800001
:10147000c800dd00b0548000660040001000780015
:101480000080700000097800b2548000b0548000e1
:1014900090007800f00f200000806000c800dd00a0
:1014a000b0548000100078004800de00008070001a
:1014b00000097800b05480000081e800b05480003a
:1014c0000080e80090007800f00f200000806000ad
:1014d000c800dd00b05480000080e80010007800f3
:1014e0004800de000080700000097800b0548000e1
:1014f00064014000b0548000640040009000780017
:10150000f00f200000806000c800dd00b0548000b3
:1015100064004000100078004800de000080700089
:1015200000097800b054800066014000b05480008b
:101530006600400090007800f00f200000806000fe
:10154000c800dd00b0548000660040001000780044
:101550004800de000080700000097800b054800070
:10156000e6014000b0548000660040009000780022
:1015700000f02f0000816000d1548000f00f2000a7
:10158000008060000000710080097800a054800095
:101590002007980011003700de0090000000eb00eb
:1015a000220907004e009000100f78004e009000b6
:1015b0000080e800400798001e007800b806070089
:1015c000100798003e0090009e00900001087800ef
:1015d0003e0090000080e800300798002e00900048
:1015e0000000e900200798002e009000e10f400065
:1015f000e9ff3a00de009000100020000b09070010
:10160000b054800040079800c15480003107980012
:10161000b0548000d0fe0700c0548000cefe07000a
:10162000f05380000080fa00000006000c00fa0071
:101630005007980040002000a0548800a05480006b
:101640000000400032fe0700b0548800a054800023
:10165000000040002efe0700c0548800b0548000f7
:101660000000e00007013200c05480000000e000ec
:1016700004013200b054800040079800c15480003b
:1016800031079800b15480000000eb00800878001a
:10169000b05480008080e8000000eb0080087800f3
:1016a000b0548000e40040000000eb0080087800a7
:1016b000b0548000e6004000f00c20008008780064
:1016c000b054800090007800f00f2000008060008f
:1016d000e0548800b0548000100078004800de001c
:1016e000f0548800b05480000080e800900078003a
:1016f000f00f20000080600000558800b05480008a
:101700000080e800100078004800de0010558800d6
:10171000b05480006400400090007800f00f20007a
:101720000080600020558800b054800064004000b4
:10173000100078004800de0030558800b05480006a
:101740006600400090007800f00f200000806000ec
:1017500040558800f00f2000d0548800e1548000ec
:10176000d054800000806800800040000085200088
:101770000080400010007800d0548800f1548000b0
:10178000d054800000806800800040000085200068
:101790000080400010007800d0548800015580007f
:1017a000d054800000806800800040000085200048
:1017b0000080400010007800d0548800115580004f
:1017c000d054800000806800800040000085200028
:1017d0000080400010007800d0548800215580001f
:1017e000d054800000806800800040000085200008
:1017f0000080400010007800d054880031558000ef
:10180000d0548000008068008000400000852000e7
:101810000080400010007800d054880041558000be
:10182000d0548000008068008000400000852000c7
:101830000080400010007800d0548800d054800010
:101840008080ea00f00f200000806000d054880003
:10185000b054800066014000d0548000c800dd0014
:10186000b0548000660040001000780000807000d6
:1018700000097800b2548000b054800090007800d5
:10188000f00f200000806000c800dd00b054800030
:10189000100078004800de00008070000009780029
:1018a000b05480000081e800b05480000080e8005f
:1018b00090007800f00f200000806000c800dd007c
:1018c000b05480000080e800100078004800de007e
:1018d0000080700000097800b0548000640140006e
:1018e000b05480006400400090007800f00f2000a9
:1018f00000806000c800dd00b0548000640040003b
:10190000100078004800de000080700000097800b8
:10191000b054800066014000b05480006600400072
:1019200090007800f00f200000806000c800dd000b
:10193000b054800066004000100078004800de00cf
:101940000080700000097800b0548000e60140007b
:10195000b0548000660040009000780000f02f0036
:1019600000816000d1548000f00f200000806000f2
:101970000000710080097800a054800020079800c2
:1019800011003700de0090000000eb002708070080
:101990004e009000100f78004e0090000080e8008c
:1019a000400798001e007800bd050700100798004a
:1019b0003e0090009e009000010878003e009000dc
:1019c0000080e800300798002e0090000000e90039
:1019d000200798002e009000e10f4000e9ff3a0038
:1019e000de0090001000200010080700b0548000b6
:1019f00040079800c154800031079800c05480000f
:101a00000080e800100078004801de00c05480002b
:101a10000080e80090007800f00f20000080600057
:101a20004800dd000000710070558800c05480003f
:101a300066004000100078004801de00c0548000bd
:101a40006600400090007800f00f200000806000e9
:101a50004800dd000000710080558800c0548000ff
:101a6000100078004801de00c0548000900078002b
:101a7000f00f2000008060004800dd0000007100d1
:101a800090558800b0548000b3fd0700c05480001a
:101a9000b1fd0700f05380000080fa00000006004e
:101aa0000c00fa005007980040002000a054880065
:101ab000a05480000000400015fd0700b0548800cd
:101ac000a05480000000400011fd0700c0548800b1
:101ad000b05480000000e000fc003200c0548000e0
:101ae0000000e000f9003200b05480004007980088
:101af000c154800031079800b15480000000eb0011
:101b000080087800b05480000081e80071558000a2
:101b10004023210000806800000978007155800092
:101b20004023210000806800b0558800b055800037
:101b30000080ea00c0558800b0548000e4004000f6
:101b4000c055800080087800b0548000e600400056
:101b5000500c200080087800b0548000900078007d
:101b6000f00f200000806000e0548800b054800036
:101b7000100078004800de00f0548800b054800067
:101b80000080e80090007800f00f200000806000e6
:101b900000558800b05480000080e80010007800f4
:101ba0004800de0010558800b054800064004000fa
:101bb00090007800f00f2000008060002055880021
:101bc000b054800064004000100078004800de003f
:101bd00030558800b05480006600400090007800c6
:101be000f00f20000080600040558800f00f2000ba
:101bf000d0548800e1548000d054800000806800f8
:101c00008000400000852000008040001000780027
:101c1000d0548800f1548000d054800000806800c7
:101c20008000400000852000008040001000780007
:101c3000d054880001558000d05480000080680096
:101c400080004000008520000080400010007800e7
:101c5000d054880011558000d05480000080680066
:101c600080004000008520000080400010007800c7
:101c7000d054880021558000d05480000080680036
:101c800080004000008520000080400010007800a7
:101c9000d054880031558000d05480000080680006
:101ca0008000400000852000008040001000780087
:101cb000d054880041558000d054800000806800d6
:101cc0008000400000852000008040001000780067
:101cd000d0548800d05480008080ea00f00f2000ab
:101ce00000806000d0548800d0548000d055880017
:101cf000b054800066014000d0548000c800dd0070
:101d0000b054800066004000100078000080700031
:101d100000097800b2548000b05480009000780030
:101d2000f00f200000806000c800dd00b05480008b
:101d3000100078004800de00008070000009780084
:101d4000b05480000081e800b05480000080e800ba
:101d500090007800f00f200000806000c800dd00d7
:101d6000b05480000080e800100078004800de00d9
:101d70000080700000097800b054800064014000c9
:101d8000b05480006400400090007800f00f200004
:101d900000806000c800dd00b05480006400400096
:101da000100078004800de00008070000009780014
:101db000b054800066014000b054800066004000ce
:101dc00090007800f00f200000806000c800dd0067
:101dd000b054800066004000100078004800de002b
:101de0000080700000097800b0548000e6014000d7
:101df000b0548000660040009000780000f02f0092
:101e000000816000d1548000f00f2000008060004d
:101e10000000710080097800a0548000200798001d
:101e200011003700de0090000000eb00ff06070005
:101e30004e009000100f78004e0090000080e800e7
:101e4000400798001e0078009504070010079800ce
:101e50003e0090009e009000010878003e00900037
:101e60000080e800300798002e0090000000e90094
:101e7000200798002e009000e10f4000e9ff3a0093
:101e8000de00900010002000e8060700b05480003b
:101e900040079800c154800031079800c05480006a
:101ea00066004000100078004801de00c054800049
:101eb0006600400090007800f00f20000080600075
:101ec0004800dd0000007100a0558800b05480007b
:101ed000a1fc0700c05480009ffc0700f053800065
:101ee0000080fa00000006000c00fa00500798007d
:101ef00040002000a0548800a05480000000400052
:101f000003fc0700b0548800a0548000000040008b
:101f1000fffb0700c0548800b05480000000e000c0
:101f2000fb003200c05480000000e000f8003200e6
:101f3000b054800040079800c154800031079800d9
:101f4000b1548000e002210080087800b054800085
:101f50008080e8002003210080087800b0548000d1
:101f6000e40040000000eb0080087800b0548000de
:101f7000e6004000100c200080087800b05480007b
:101f800090007800f00f200000806000e05488008e
:101f9000b0548000100078004800de00f054880043
:101fa000b05480000080e80090007800f00f20001e
:101fb0000080600000558800b05480000080e80078
:101fc000100078004800de0010558800b0548000f2
:101fd0006400400090007800f00f20000080600056
:101fe00020558800b0548000640040001000780044
:101ff0004800de0030558800b05480006600400084
:1020000090007800f00f20000080600040558800ac
:10201000f00f2000d0548800e1548000d05480009c
:1020200000806800800040000085200000804000a3
:1020300010007800d0548800f1548000d054800003
:102040000080680080004000008520000080400083
:1020500010007800d054880001558000d0548000d2
:102060000080680080004000008520000080400063
:1020700010007800d054880011558000d0548000a2
:102080000080680080004000008520000080400043
:1020900010007800d054880021558000d054800072
:1020a0000080680080004000008520000080400023
:1020b00010007800d054880031558000d054800042
:1020c0000080680080004000008520000080400003
:1020d00010007800d054880041558000d054800012
:1020e00000806800800040000085200000804000e3
:1020f00010007800d0548800d05480008080ea001e
:10210000f00f200000806000d0548800b0548000a0
:1021100066014000d0548000c800dd00b05480004b
:102120006600400010007800008070000009780010
:10213000b2548000b054800090007800f00f20006e
:1021400000806000c800dd00b054800010007800fe
:102150004800de000080700000097800b054800064
:102160000081e800b05480000080e8009000780012
:10217000f00f200000806000c800dd00b054800037
:102180000080e800100078004800de000080700049
:1021900000097800b054800064014000b054800011
:1021a0006400400090007800f00f20000080600084
:1021b000c800dd00b05480006400400010007800ca
:1021c0004800de000080700000097800b0548000f4
:1021d00066014000b0548000660040009000780026
:1021e000f00f200000806000c800dd00b0548000c7
:1021f00066004000100078004800de00008070009b
:1022000000097800b0548000e6014000b05480001e
:10221000660040009000780000f02f000081600010
:10222000d1548000f00f2000008060000000710099
:1022300080097800a0548000200798001100370022
:10224000de0090000000eb00f80507004e00900053
:10225000100f78004e0090000080e80040079800c2
:102260001e0078008e030700100798003e009000c3
:102270009e009000010878003e0090000080e80079
:10228000300798002e0090000000e9002007980019
:102290002e009000e10f4000e9ff3a00de009000c0
:1022a00010002000e1050700b054800040079800ae
:1022b000c154800031079800c0548000100078009d
:1022c0004801de00c054800090007800f00f20002c
:1022d000008060004800dd0000007100705488003c
:1022e000c05480000080e800100078004801de0043
:1022f000c05480000080e80090007800f00f2000bb
:10230000008060004800dd000000710080548800fb
:10231000b054800090fb0700c05480008efb070083
:10232000f05380000080fa00000006000c00fa0064
:102330005007980040002000a0548800a05480005e
:1023400000004000f2fa0700b0548800a05480005a
:1023500000004000eefa0700c0548800b05480002e
:102360000000e000f9003200c05480000000e000ee
:10237000f6003200b054800040079800c15480003d
:1023800031079800b15480000000eb00800878000d
:10239000b05480008080e800505525008008780007
:1023a000b0548000e40040000000eb00800878009a
:1023b000b0548000e6004000000d20008008780046
:1023c000b054800090007800f00f20000080600082
:1023d000e0548800b0548000100078004800de000f
:1023e000f0548800b05480000080e800900078002d
:1023f000f00f20000080600000558800b05480007d
:102400000080e800100078004800de0010558800c9
:10241000b05480006400400090007800f00f20006d
:102420000080600020558800b054800064004000a7
:10243000100078004800de0030558800b05480005d
:102440006600400090007800f00f200000806000df
:1024500040558800f00f2000d0548800e1548000df
:10246000d05480000080680080004000008520007b
:102470000080400010007800d0548800f1548000a3
:10248000d05480000080680080004000008520005b
:102490000080400010007800d05488000155800072
:1024a000d05480000080680080004000008520003b
:1024b0000080400010007800d05488001155800042
:1024c000d05480000080680080004000008520001b
:1024d0000080400010007800d05488002155800012
:1024e000d0548000008068008000400000852000fb
:1024f0000080400010007800d054880031558000e2
:10250000d0548000008068008000400000852000da
:102510000080400010007800d054880041558000b1
:10252000d0548000008068008000400000852000ba
:102530000080400010007800d0548800d054800003
:102540000080ea00d0548800b0548000660140004a
:10255000d0548000c800dd00b05480006600400008
:10256000100078000080700000097800b2548000ec
:10257000b054800090007800f00f200000806000d0
:10258000c800dd00b0548000100078004800de0074
:102590000080700000097800b05480000081e800dd
:1025a000b05480000080e80090007800f00f200018
:1025b00000806000c800dd00b05480000080e800aa
:1025c000100078004800de000080700000097800ec
:1025d000b054800064014000b054800064004000aa
:1025e00090007800f00f200000806000c800dd003f
:1025f000b054800064004000100078004800de0005
:102600000080700000097800b0548000660140002e
:10261000b05480006600400090007800f00f200069
:1026200000806000c800dd00b054800066004000fb
:10263000100078004800de0000807000000978007b
:10264000b0548000e6014000b054800066004000b5
:102650009000780000f02f0000816000d1548000cd
:10266000f00f2000008060000000710080097800f9
:10267000a05480002007980011003700de00900071
:102680000000eb00e90407004e009000100f7800f6
:102690004e0090000080e800400798001e0078007f
:1026a0007f020700100798003e0090009e009000f7
:1026b000010878003e0090000080e8003007980094
:1026c0002e0090000000e900200798002e009000e6
:1026d000e10f4000e9ff3a00de009000100020000a
:1026e000d2040700b054800040079800c154800015
:1026f00031079800c0548000100078004801de00c7
:10270000c054800090007800f00f2000008060002e
:102710004800dd000000710050558800c054800062
:1027200066004000100078004801de00c0548000c0
:102730006600400090007800f00f200000806000ec
:102740004800dd000000710060558800b054800032
:1027500081fa0700c05480007ffa0700f053800020
:102760000080fa00000006001000fa0060079800e0
:1027700040002000a05488006e009000e10f50003f
:1027800003003a00200020005007980002003700a4
:102790000000eb0050079800a054800000004000ab
:1027a000dbf90700b0548800a0548000000040000e
:1027b000d7f90700c0548800b05480000000e00042
:1027c00035013200c05480000000e00032013200c8
:1027d000b054800040079800c15480003107980031
:1027e000b15480000000eb0080087800b0548000f5
:1027f0008080e8005055250080087800b0548000a3
:10280000e40040000000eb0080087800b054800035
:10281000e6004000000d200080087800b0548000e1
:1028200090007800f00f200000806000e0548800e5
:10283000b0548000100078004800de00f05488009a
:10284000b05480000080e80090007800f00f200075
:102850000080600000558800b05480000080e800cf
:10286000100078004800de0010558800b054800049
:102870006400400090007800f00f200000806000ad
:1028800020558800b054800064004000100078009b
:102890004800de0030558800b054800066004000db
:1028a00090007800f00f2000008060004055880004
:1028b000f00f2000d0548800e1548000d0548000f4
:1028c00000806800800040000085200000804000fb
:1028d00010007800d0548800f1548000d05480005b
:1028e00000806800800040000085200000804000db
:1028f00010007800d054880001558000d05480002a
:1029000000806800800040000085200000804000ba
:1029100010007800d054880011558000d0548000f9
:10292000008068008000400000852000008040009a
:1029300010007800d054880021558000d0548000c9
:10294000008068008000400000852000008040007a
:1029500010007800d054880031558000d054800099
:10296000008068008000400000852000008040005a
:1029700010007800d054880041558000d054800069
:10298000008068008000400000852000008040003a
:1029900010007800d0548800d05480000080ea00f5
:1029a000d0548800b054800066014000d0548000ac
:1029b000c800dd00b05480006600400010007800c0
:1029c0000080700000097800b2548000b05480008c
:1029d00090007800f00f200000806000c800dd004b
:1029e000b0548000100078004800de0000807000c5
:1029f00000097800b05480000081e800b0548000e5
:102a00000080e80090007800f00f20000080600057
:102a1000c800dd00b05480000080e800100078009d
:102a20004800de000080700000097800b05480008b
:102a300064014000b05480006400400090007800c1
:102a4000f00f200000806000c800dd00b05480005e
:102a500064004000100078004800de000080700034
:102a600000097800b054800066014000b054800036
:102a70006600400090007800f00f200000806000a9
:102a8000c800dd00b05480006600400010007800ef
:102a90004800de000080700000097800b05480001b
:102aa000e6014000b05480006600400090007800cd
:102ab00000f02f0000816000d1548000f00f200052
:102ac000008060000000710080097800a054800040
:102ad0002007980011003700ee0090000000eb0086
:102ae000d20307004e009000100f78004e009000b7
:102af0000080e800400798001e0078006801070089
:102b0000100798003e0090009e0090000108780099
:102b10003e0090000080e800300798002e009000f2
:102b20000000e900200798002e009000e10f40000f
:102b3000e9ff3a00ee00900010002000bb03070000
:102b4000b054800040079800c154800031079800bd
:102b50003e009000100078004600de006300600038
:102b60008000eb0071079800e10f500002003e006a
:102b70001000200070079800fe009000515488005b
:102b80003e0090006600400010007800ce00de009d
:102b90005e009000808f50003f003a003e009000a1
:102ba000100078004600de0063006000e10f500076
:102bb00037003600ca82a8005e009000e20f500085
:102bc00020003a00c054800010007800c800de00e9
:102bd000c0548000100078007f0060004800dd00d5
:102be0000080700000548800c05480000080e8001d
:102bf00010007800c800de00c05480000080e800ab
:102c0000100078007f0060004800dd000080700048
:102c100010548800c0548000640040001000780008
:102c2000c800de00c054800064004000100078003e
:102c30007f0060004800dd0000807000f0538800d5
:102c4000150037005e0090000000e00012003a001e
:102c5000c0548000100078004801de00c05480009d
:102c600090007800f0032000008060004800dd0044
:102c70000000710020548800c054800064004000af
:102c8000100078004800de00e053880002003700a2
:102c90006000b800be070700b05480002ef907009e
:102ca000c05480002cf90700f05380000080fa0027
:102cb000000006000c00fa005007980040002000b9
:102cc000a0548800a05480000000400090f8070045
:102cd000b0548800a0548000000040008cf8070029
:102ce000c0548800b05480000000e000e5003200cd
:102cf000c05480000000e000e2003200b0548000c8
:102d000040079800c154800031079800b1548000fa
:102d10000000eb0080087800b05480008080e8005c
:102d20000000eb0080087800b0548000e400400010
:102d30000000eb0080087800b0548000e6004000fe
:102d4000f00e200080087800b054800090007800d9
:102d5000f00f200000806000e0548800b054800034
:102d6000100078004800de00f0548800b054800065
:102d70000080e80090007800f00f200000806000e4
:102d800000558800b05480000080e80010007800f2
:102d90004800de0010558800b054800064004000f8
:102da00090007800f00f200000806000205588001f
:102db000b054800064004000100078004800de003d
:102dc00030558800b05480006600400090007800c4
:102dd000f00f20000080600040558800f00f2000b8
:102de000d0548800e1548000d054800000806800f6
:102df0008000400000852000008040001000780026
:102e0000d0548800f1548000d054800000806800c5
:102e10008000400000852000008040001000780005
:102e2000d054880001558000d05480000080680094
:102e300080004000008520000080400010007800e5
:102e4000d054880011558000d05480000080680064
:102e500080004000008520000080400010007800c5
:102e6000d054880021558000d05480000080680034
:102e700080004000008520000080400010007800a5
:102e8000d054880031558000d05480000080680004
:102e90008000400000852000008040001000780085
:102ea000d054880041558000d054800000806800d4
:102eb0008000400000852000008040001000780065
:102ec000d0548800d05480008080ea00f00f2000a9
:102ed00000806000d0548800b0548000660140003b
:102ee000d0548000c800dd00b0548000660040006f
:102ef000100078000080700000097800b254800053
:102f0000b054800090007800f00f20000080600036
:102f1000c800dd00b0548000100078004800de00da
:102f20000080700000097800b05480000081e80043
:102f3000b05480000080e80090007800f00f20007e
:102f400000806000c800dd00b05480000080e80010
:102f5000100078004800de00008070000009780052
:102f6000b054800064014000b05480006400400010
:102f700090007800f00f200000806000c800dd00a5
:102f8000b054800064004000100078004800de006b
:102f90000080700000097800b05480006601400095
:102fa000b05480006600400090007800f00f2000d0
:102fb00000806000c800dd00b05480006600400062
:102fc000100078004800de000080700000097800e2
:102fd000b0548000e6014000b0548000660040001c
:102fe0009000780000f02f0000816000d154800034
:102ff000f00f200000806000000071008009780060
:10300000a05480002007980011003700de009000d7
:103010000000eb00850207004e009000100f7800c2
:103020004e0090000080e800400798001e007800e5
:103030001b000700100798003e0090009e009000c3
:10304000010878003e0090000080e80030079800fa
:103050002e0090000000e900200798002e0090004c
:10306000e10f4000e9ff3a00de0090001000200070
:103070006e020700b054800040079800c1548000e1
:1030800031079800b054800033f80700c054800026
:1030900031f80700f05380000080fa0000000600bd
:1030a0000200fa00000f78000000eb006054880076
:1030b0001e00780040128800605480000000e0008c
:1030c000fdff3400401280000080fa00000006007e
:1030d0001000fa0050079800610798004000200097
:1030e000a0548800a05480000000400088f707002a
:1030f000b0548800a05480000000400084f707000e
:10310000c0548800b05480000000e0003e0132004e
:10311000c05480000000e0003b013200b054800049
:1031200040079800c154800031079800b1548000d6
:103130000000eb0080087800b05480008080e80038
:103140000080eb0080087800b0548000e40040006c
:103150000000eb00800878006e009000e20f500045
:1031600005003a00b0548000e6004000300920001d
:103170008008780004003700b0548000e60040006a
:103180003001200080087800b05480009000780062
:10319000f00f200000806000e0548800b0548000f0
:1031a000100078004800de00f0548800b054800021
:1031b0000080e80090007800f00f200000806000a0
:1031c00000558800b05480000080e80010007800ae
:1031d0004800de0010558800b054800064004000b4
:1031e00090007800f00f20000080600020558800db
:1031f000b054800064004000100078004800de00f9
:1032000030558800b054800066004000900078007f
:10321000f00f20000080600040558800f00f200073
:10322000d0548800e1548000d054800000806800b1
:1032300080004000008520000080400010007800e1
:10324000d0548800f1548000d05480000080680081
:1032500080004000008520000080400010007800c1
:10326000d054880001558000d05480000080680050
:1032700080004000008520000080400010007800a1
:10328000d054880011558000d05480000080680020
:103290008000400000852000008040001000780081
:1032a000d054880021558000d054800000806800f0
:1032b0008000400000852000008040001000780061
:1032c000d054880031558000d054800000806800c0
:1032d0008000400000852000008040001000780041
:1032e000d054880041558000d05480000080680090
:1032f0008000400000852000008040001000780021
:10330000d0548800d05480008080ea00f00f200064
:1033100000806000d0548800b054800066014000f6
:10332000d0548000c800dd00b0548000660040002a
:10333000100078000080700000097800b25480000e
:10334000b054800090007800f00f200000806000f2
:10335000c800dd00b0548000100078004800de0096
:103360000080700000097800b05480000081e800ff
:10337000b05480000080e80090007800f00f20003a
:1033800000806000c800dd00b05480000080e800cc
:10339000100078004800de0000807000000978000e
:1033a000b054800064014000b054800064004000cc
:1033b00090007800f00f200000806000c800dd0061
:1033c000b054800064004000100078004800de0027
:1033d0000080700000097800b05480006601400051
:1033e000b05480006600400090007800f00f20008c
:1033f00000806000c800dd00b0548000660040001e
:10340000100078004800de0000807000000978009d
:10341000b0548000e6014000b054800066004000d7
:103420009000780000f02f0000816000d1548000ef
:10343000f00f20000080600000007100800978001b
:10344000a05480002007980011003700de00900093
:103450000000eb00750107004e009000100f78008f
:103460004e0090000080e800400798001e007800a1
:103470000bff0700100798003e0090009e00900090
:10348000010878003e0090000080e80030079800b6
:103490002e0090000000e900200798002e00900008
:1034a000e10f4000e9ff3a00de009000100020002c
:1034b0005e010700b054800040079800c1548000ae
:1034c000310798003e009000100078004600de00b2
:1034d000630060008000eb0071079800e10f50006e
:1034e00002003e001000200070079800fe009000cf
:1034f000515488003e0090006600400010007800a3
:10350000ce00de006e009000808f50003e003a003a
:103510003e009000100078004600de00630060006e
:10352000e10f5000360036006e009000e20f5000b0
:1035300020003a00c054800010007800c800de006f
:10354000c0548000100078007f0060004800dd005b
:103550000080700000548800c05480000080e800a3
:1035600010007800c800de00c05480000080e80031
:10357000100078007f0060004800dd0000807000cf
:1035800010548800c054800064004000100078008f
:10359000c800de00c05480006400400010007800c5
:1035a0007f0060004800dd0000807000f05388005c
:1035b000150037006e0090000000e00012003a0095
:1035c000c0548000100078004801de00c054800024
:1035d00090007800f0032000008060004800dd00cb
:1035e0000000710020548800c05480006400400036
:1035f000100078004800de00e05388000200370029
:103600006000b80062050700b0548000d2f60700e1
:10361000c0548000d0f607000080fa0000000600c9
:103620000e00fa0050079800610798004000200043
:10363000a0548800a05480000000400034f6070029
:10364000b0548800a05480000000400030f607000d
:10365000c0548800b05480000000e000ed0032004b
:10366000c05480000000e000ea003200b054800046
:1036700040079800c154800031079800b154800081
:103680000000eb0080087800b05480008080e800e3
:103690000080eb0080087800b0548000e400400017
:1036a0000000eb00800878006e009000e20f5000f0
:1036b00005003a00b0548000e600400030092000c8
:1036c0008008780004003700b0548000e600400015
:1036d0003001200080087800b0548000900078000d
:1036e000f00f200000806000e0548800b05480009b
:1036f000100078004800de00f0548800b0548000cc
:103700000080e80090007800f00f2000008060004a
:1037100000558800b05480000080e8001000780058
:103720004800de0010558800b0548000640040005e
:1037300090007800f00f2000008060002055880085
:10374000b054800064004000100078004800de00a3
:1037500030558800b054800066004000900078002a
:10376000f00f20000080600040558800f00f20001e
:10377000d0548800e1548000d0548000008068005c
:10378000800040000085200000804000100078008c
:10379000d0548800f1548000d0548000008068002c
:1037a000800040000085200000804000100078006c
:1037b000d054880001558000d054800000806800fb
:1037c000800040000085200000804000100078004c
:1037d000d054880011558000d054800000806800cb
:1037e000800040000085200000804000100078002c
:1037f000d054880021558000d0548000008068009b
:10380000800040000085200000804000100078000b
:10381000d054880031558000d0548000008068006a
:1038200080004000008520000080400010007800eb
:10383000d054880041558000d0548000008068003a
:1038400080004000008520000080400010007800cb
:10385000d0548800d05480008080ea00f00f20000f
:1038600000806000d0548800b054800066014000a1
:10387000d0548000c800dd00b054800066004000d5
:10388000100078000080700000097800b2548000b9
:10389000b054800090007800f00f2000008060009d
:1038a000c800dd00b0548000100078004800de0041
:1038b0000080700000097800b05480000081e800aa
:1038c000b05480000080e80090007800f00f2000e5
:1038d00000806000c800dd00b05480000080e80077
:1038e000100078004800de000080700000097800b9
:1038f000b054800064014000b05480006400400077
:1039000090007800f00f200000806000c800dd000b
:10391000b054800064004000100078004800de00d1
:103920000080700000097800b054800066014000fb
:10393000b05480006600400090007800f00f200036
:1039400000806000c800dd00b054800066004000c8
:10395000100078004800de00008070000009780048
:10396000b0548000e6014000b05480006600400082
:103970009000780000f02f0000816000d15480009a
:10398000f00f2000008060000000710080097800c6
:10399000a05480002007980011003700de0090003e
:1039a0000000eb00210007004e009000100f78008f
:1039b0004e0090000080e800400798001e0078004c
:1039c000b7fd0700100798003e0090009e00900091
:1039d000010878003e0090000080e8003007980061
:1039e0002e0090000000e900200798002e009000b3
:1039f000e10f4000e9ff3a00de00900010002000d7
:103a00000a000700b054800040079800c1548000ad
:103a100031079800b0548000cff50700c0548000f3
:103a2000cdf507000080fa00000006000400fa004f
:103a3000000f7800110798001e009000e10f500061
:103a400008003a001e00780061406000c700dd00f9
:103a5000ccc2bf000074a10001407000cce2b700ee
:103a60000a0037001e00780061406000614060007d
:103a70004301dd00d12c20009140780070cfb300cd
:103a800000c0600002407000cde2b7000080fa0084
:103a9000000006000400fa00881f78008000eb0098
:103aa000200020008afd0700285480006140b900f2
:103ab000f5f20700008fbe000800e00005003d00a1
:103ac00002002000037824001e00be001af3070045
:103ad000008fbe00e2a62f0033cb23001e00be00e5
:103ae00072f30700d0528800e152880007030700f4
:103af000d0528000e1528000d2cc2c00133b240035
:103b0000bcf207000000e0000100350008003700ab
:103b1000d0528000e1528000d2cc2c00c308240097
:103b200005f30700d0528800e152880007003700f3
:103b3000d0528000e1528000d2cc2c00133b2400f4
:103b4000fcf20700d0528800e1528800d252800077
:103b5000e352800000002000413b2400f5f2070002
:103b6000d0528800e15288004f0478000080fa00ab
:103b7000000006000800fa00889fbe008a9fbe0071
:103b8000210020001000200051fd0700005480009b
:103b90004c00de00610060000004e000050032001f
:103ba0000154800000002e0000804000b0538800c7
:103bb000050037000054800080007800f0ff2000ee
:103bc00000806000b0538800105480004c00de007c
:103bd000610060000004e000050032001154800024
:103be00000002e0000804000c05388000500370010
:103bf0001054800080007800f0ff200000806000fa
:103c0000c0538800f05380004c00de00610060006b
:103c10000004e00005003200f153800000002e0097
:103c200000804000d053880005003700f05380002a
:103c300080007800f0ff200000806000d0538800f2
:103c4000d05380000000e0005c003200b0538000e0
:103c5000cf80de008cf2070052862000637b2300b9
:103c600012f307000005be00b0538000cf80de00d5
:103c700085f20700d2762e00b3df23000bf3070096
:103c800052b82e0013002400aaf207000004be0060
:103c9000c0538000cf80de007bf20700024d24007d
:103ca00083b52b0001f307000001be000800be0031
:103cb000a1f207000004be00d05380008007b000ce
:103cc000cf80de0070f207000001be000800be00d9
:103cd0002af307000001be000a00be0096f20700aa
:103ce0000001be0094f20700c24b270033d123002d
:103cf00090f207003053880041538800c053800081
:103d0000cf80de0060f20700c2cd2700837c230055
:103d1000e6f207000005be00c0538000cf80de0041
:103d200059f2070022db2900f3de2300dff207004f
:103d300042df2f0043e523007ff207000004be00ae
:103d4000b0538000cf80de004ff20700427229009e
:103d5000f3af2300d5f207000001be000800be004b
:103d600075f207000004be00d0538000cf80de0053
:103d700045f20700a2992900d32824006ef207001b
:103d80000001be000800be00fcf207000001be00fa
:103d90000a00be0068f207003233230033f9230023
:103da000c2f20700f2282c0053c7230061f207007b
:103db0005053880061538800060037006000b80047
:103dc00030538800415388006000b8005053880089
:103dd0006153880030548000415480003253800089
:103de00043538000b1f2070070538800815388006c
:103df000305480004154800052538000635380004f
:103e0000aaf2070090538800a153880070538000e5
:103e1000815380007253800083538000a3f2070017
:103e20000004be0090538000a15380009253800094
:103e3000a35380009df207000001be000800be00f1
:103e40003df207000ff30700f0528800015388008d
:103e500050538000615380000041eb00724798008e
:103e60006011b80006f207000000e00001003c000d
:103e70000200370010c0b300704798007e409000e9
:103e80000004a2000004e00018003a003053800053
:103e9000415380000041eb00624798006011b80078
:103ea000f7f107000000e00001003c0002003700cd
:103eb00010c0b300604798006e4090000004a2005c
:103ec0000004e00009003a00505380006153800074
:103ed0003253800043538000a8f207001ef307000e
:103ee0001053880021538800810037005053800010
:103ef000615380000041eb00524798006011b80008
:103f0000dff107000000e00001003c000200370084
:103f100010c0b300504798005e4090000004a2001b
:103f20000004e0001b003a00305380004153800041
:103f30000041eb00424798006011b800adf1070066
:103f40000000e000010035000200370010c0b3009f
:103f5000404798004e4090000004a2000004e0009a
:103f60000c003a00505380006153800032538000af
:103f70004353800081f20700f7f20700a2fd200002
:103f800093042400ecf107001053880021538800ab
:103f90005700370050538000615380000041eb0010
:103fa000324798006011b80092f107000000e0006d
:103fb000010035000200370010c0b3003047980000
:103fc0003e4090000004a2000004e0001b003a0004
:103fd00030538000415380000041eb00224798009d
:103fe0006011b80083f107000000e0000100350017
:103ff0000200370010c0b300204798002e40900008
:104000000004a2000004e0000c003a0050538000bd
:1040100061538000325380004353800057f2070001
:10402000cdf20700a2fd200093042400c2f1070096
:1040300010538800215388002d0037005053800012
:10404000615380000041eb00124798006011b800f6
:1040500068f107000000e0000100350002003700b1
:1040600010c0b300104798001e4090000004a2004a
:104070000004e0001b003a003053800041538000f0
:104080000041eb00024f78006011b8007cf107009e
:104090000000e00001003c000200370010c0b30047
:1040a000004f78001e4078000004a2000004e000e9
:1040b0000c003a005053800061538000325380005e
:1040c000435380002df20700a3f20700a2fd200059
:1040d000930c240098f107001053880021538800a6
:1040e000030037006000b800105388002153880097
:1040f000105380002153800002002000433324002d
:10410000eaf10700a2fd2000930424001bf207003f
:1041100010538800215388004f05be004f04be0095
:104120000080fa00000006000000fa009002200063
:10413000303a880044c7bf00f043b20044e7b700fc
:10414000417420009140780000ceb30000c06000b0
:1041500044e7b7001200200081072000a0092000da
:1041600033742000814978008049780082497800c2
:10417000120020006104200070052000237420003c
:1041800081497800804978008249780043c7bf00a0
:104190000047b200f04f5000fcff3a0042c7bf009a
:1041a0000042b2000004e000fcff32000080fa0090
:1041b00000000600809fbe003400f80000002000d0
:1041c000a00188000000fa008460a900100020000f
:1041d00000568800e0558000f155800061004000e5
:1041e000e0804800e0558800f15588000080fa0022
:1041f0003400f9004f00be00004006000000fa0045
:104200000000eb0000088800105680002156800056
:1042100002002000b3312400a4f1070002002000b6
:1042200003f8230043f10700b0f2070010088800ec
:1042300000032800200888008460a9009460a8007a
:104240000080fa00000006000000fa00c0ff2f0006
:104250006019880010002000001688000000eb00a4
:10426000301688000000eb002016880080002b002c
:10427000401688000000eb00701688000000eb007c
:10428000601688000080fa00000006000000fa00b6
:10429000a00220004011880021a2a90020a2a900ac
:1042a0002062a900012220009140780090cfb30045
:1042b00000c0600020e2b7002002a90022c2bf00b7
:1042c000f043b20022e2b70023a2a90023e2a90032
:1042d00021e2a8002342a8009c20a9000080fa0047
:1042e00000000600801f78003400f8000000200065
:1042f000a00188000000fa00c0528000000c880075
:1043000084e0a9000080fa003400f9004f00780032
:10431000004006000000fa000000eb00200c8800be
:10432000000028008008880084e0a90094e0a8002c
:104330000000eb003008880030062000600888008c
:10434000c0528000000c8800c0528000100c880011
:1043500060002000200c880000202100203688000a
:104360000080fa00000006000000fa000000eb00e8
:10437000001288008540a9009540a9004382a90049
:104380004362a9004342a9004322a9004302a900b5
:1043900042c2a900212420009140780030ceb30011
:1043a00000c060008041b30042e2b7002124200039
:1043b00091407800c0cfb30000c060000004a000ae
:1043c00042e2b70042a2a90040c2a90041e2a8000f
:1043d0008540a9009540a800013820009140780050
:1043e000f0ccb30000c0600080e3b70001382000cb
:1043f00091407800c0cfb30000c060000014a0005e
:1044000080e3b70081a3a80081c3a9000000eb00ee
:10441000001f880020002000501c8800a000200001
:10442000101c880080242000401c8800a07f2000f1
:10443000201c8800407f2000301c88008480a90058
:104440009480a80081e3a80020002000601c880060
:1044500020002000b01c8800a0002000701c8800f4
:1044600080242000a01c8800e07e2000801c8800a2
:10447000807e2000901c880085c0a90095c0a800ff
:104480008de3a8000080fa00000006000200fa0098
:10449000000f78001e00780093f6070000a82100a6
:1044a00061002000efef07001e0078008ef6070085
:1044b00000a8210061002000eaef07001e0078003c
:1044c0009af7070000a8210061002000e5ef07002f
:1044d0001e0078005af3070000a8210061002000a8
:1044e000e0ef07001e00780050f4070000a821004c
:1044f00061002000dbef07001e00780068f5070070
:1045000000a0260081012000d6ef07001e007800e1
:1045100086f7070000a8210061002000d1ef070006
:104520001e007800e3f9070000f8240021012000b4
:10453000ccef07001e0078006bf6070000a82100f2
:1045400061002000c7ef07001e00780066f6070034
:1045500000a8210061002000c2ef07001e007800c3
:1045600072f7070000a8210061002000bdef0700de
:104570000080fa00000006003400f800881f780070
:1045800008002000a80188004f0478000000fa000d
:104590008540a90040c2a9000080fa003400f9005b
:1045a000004006003600f800809fbe00829fbe00db
:1045b000849fbe00869fbe003400f80000002000eb
:1045c000a00188000000fa00905680000000e00082
:1045d00003003a00a07f22002e01070002003700ee
:1045e000407f22002b010700905680000000a200af
:1045f000905688008480a9000080fa003400f900f9
:104600004f03be004f02be004f01be004f00be0070
:104610003600f900004006003600f800809fbe001a
:10462000829fbe00849fbe00869fbe003400f800bb
:1046300000002000a00188000000fa00a0568000c1
:104640000000e00003003a00e07e22002b0107009a
:1046500002003700807e220028010700a05680005b
:104660000000a200a056880085c0a9000080fa00c2
:104670003400f9004f03be004f02be004f01be00e0
:104680004f00be003600f900004006000a00fa00a4
:1046900010079800210798000000eb0040079800e1
:1046a0006011b8001e009000ae009000f4ef07000b
:1046b0000000e00001003c00020037001100200073
:1046c000410798000000eb00300798006011b80027
:1046d0001e009000ae009000c6ef07000000e00052
:1046e000010035000200370011002000310798005a
:1046f0004e009000be009000010f50000300070024
:104700001e0078000080fa00000006000200fa0097
:104710000000eb00000f7800010037001e0fe800da
:10472000e00020009e0f1000fcff34000080fa0023
:04473000000006007f
:020000040000fa
:10473400bc0a000016000000020000000000000097
:1047440000000000000080003f00000000000000a6
:10475400000000000000000000000000500a0000fb
:104764003e00000000000000d20a00000400000027
:1047740000000000fa27000006000000000000000e
:10478400f42700000600000000000000ee270000ef
:104794000600000000000000e827000006000000fa
:1047a40000000000500800000002000002000000a9
:1047b40000002f00005e00007100bc0000930000a8
:1047c400e200cd0000570000780009000026000038
:1047d400eb00c40000b500009a00ae0000810000a8
:1047e400f000df00001200003d004c0000630000f8
:1047f400f900d60000a7000088004500006a000008
:104804001b003400007300005c002d000002000057
:10481400cf00e00000910000be002400000b000067
:104824007a00550000980000b700c60000e90000b7
:10483400dd00f20000830000ac006100004e0000c7
:104844003f001000008a0000a500d40000fb000017
:1048540036001900006800004700e60000c90000a7
:10486400b8009700005a000075000400002b0000f7
:10487400b1009e0000ef0000c0000d000022000007
:1048840053007c0000480000670016000039000057
:10489400f400db0000aa000085001f0000300000c7
:1048a40041006e0000a300008c00fd0000d2000057
:1048b4009500ba0000cb0000e400290000060000c7
:1048c4007700580000c20000ed009c0000b3000017
:1048d4007e005100002000000f003b000014000087
:1048e40065004a0000870000a800d90000f6000017
:1048f4006c004300003200001d00d00000ff0000e7
:104904008e00a10000e30000cc00db000092000058
:104914005f007000000100002e00b400009b000046
:10492400ea00c500000800002700560000790000d6
:104934004d006200001300003c00f10000de0000a6
:10494400af008000001a000035004400006b000036
:10495400a600890000f80000d700900000bf000006
:10496400ce00e100002c000003007200005d000096
:10497400c700e80000990000b6007b000054000066
:1049840025000a00003e000011006000004f0000f6
:104994008200ad0000dc0000f30069000046000066
:1049a4003700180000d50000fa008b0000a40000b6
:1049b40005002a00005b00007400b90000960000a6
:1049c400e700c800005200007d000c000023000036
:1049d400ee00c10000b000009f00ab0000840000a6
:1049e400f500da00001700003800490000660000f6
:1049f400fc00d30000a200008d004000006f000006
:104a04001e00310000760000590028000007000055
:104a1400ca00e50000940000bb002100000e000065
:104a24007f005000009d0000b200c30000ec0000b5
:104a3400d800f70000860000a9006400004b0000c5
:104a44003a001500008f0000a000d10000fe000015
:104a540033001c00006d0000420000008e0a0000bc
:104a64002e00000000000000d60a00000200000032
:104a740000000000d80a0000100000000000000040
:104a8400e80a00000200000000000000000000002e
:020000040000fa
:104a94000600fa002007980030002000000f78007c
:104aa4000000eb00100798000e0037001e00900075
:104ab40000004000800078002e009000008140003b
:104ac4001e00900080004000c0ac20000080400028
:104ad40010007800000978001e0090000000e80033
:104ae400100798001e0090009e0f5000efff350045
:104af4000080fa00000006000600fa002007980073
:104b040030002000000f78000000eb001007980030
:104b1400190037009e0190001e0090000000400024
:104b2400800078002e009000008040001000780083
:104b3400000178008380410060ac200000804000c8
:104b4400020878001e0190001e00900080004000c2
:104b540060ac200000804000900178008200410099
:104b6400c0ac200000804000030878001e009000c4
:104b74000000e800100798001e0090009e0f5000ef
:104b8400e4ff35000080fa00000006000400fa008b
:104b9400008fbe001e00be0001f0a200a0528800db
:104ba400b1528800a0528000b15280006011b80058
:104bb4008fee07000000e00001003500160037000a
:104bc400a0528000b152800002002000832c2c00ef
:104bd40087ee07000000e000010035000400370004
:104be40000002000612c2c00a0528800b1528800e3
:104bf400a0528000b152800001f0a2007eee0700b6
:104c0400c0528800cb02a800bffe0700cb22a90037
:104c1400bdfe070014003700a0528000b15280008e
:104c240002002000832c240094ee07000000e00022
:104c340001003c000400370000002000612c240027
:104c4400a0528800b1528800a0528000b152800066
:104c540069ee0700c0528800cb02a900aafe070033
:104c6400cb22a800a8fe07000080fa00000006007e
:104c74000000fa002bfd070072fd07005efd07002f
:104c8400a16c20009140780000ceb30000c0600009
:104c94007040b300cae6b700916a200091407800e2
:104ca40000ceb30000c06000c040b300a9e6b70066
:104cb400816a20009140780000ceb30000c06000fb
:104cc400d040b300a8e6b700a6fd070090fd07009a
:044cd400ffff3700a7
:00000001FF
