:020000040000fa
:080000000002040000000000f2
:020000040000fa
:04000800a80200004a
:020000040000fa
:04000c00a802000046
:020000040000fa
:04001000a802000042
:020000040000fa
:04001400a80200003e
:020000040000fa
:04001800a80200003a
:020000040000fa
:04001c00a802000036
:020000040000fa
:04002000a802000032
:020000040000fa
:04002400a80200002e
:020000040000fa
:04002800a80200002a
:020000040000fa
:04002c00a802000026
:020000040000fa
:04003000a802000022
:020000040000fa
:04003400181b000095
:020000040000fa
:04003800ba1c0000ee
:020000040000fa
:04003c00a802000016
:020000040000fa
:04004000a802000012
:020000040000fa
:04004400241d000077
:020000040000fa
:04004800a80200000a
:020000040000fa
:04004c00a802000006
:020000040000fa
:04005000b21c0000de
:020000040000fa
:04005400a8020000fe
:020000040000fa
:04005800a8020000fa
:020000040000fa
:04005c00a8020000f6
:020000040000fa
:04006000ee1c000092
:020000040000fa
:04006400a8020000ee
:020000040000fa
:04006800a8020000ea
:020000040000fa
:04006c00a8020000e6
:020000040000fa
:04007000a8020000e2
:020000040000fa
:04007400a8020000de
:020000040000fa
:04007800a8020000da
:020000040000fa
:04007c00a8020000d6
:020000040000fa
:04008000a8020000d2
:020000040000fa
:04008400a8020000ce
:020000040000fa
:040088001a1f00003b
:020000040000fa
:04008c00a8020000c6
:020000040000fa
:04009000a8020000c2
:020000040000fa
:04009400a8020000be
:020000040000fa
:04009800a8020000ba
:020000040000fa
:04009c00a8020000b6
:020000040000fa
:0400a000a8020000b2
:020000040000fa
:0400a400a8020000ae
:020000040000fa
:0400a800a8020000aa
:020000040000fa
:0400ac00a8020000a6
:020000040000fa
:0400b000a8020000a2
:020000040000fa
:0400b400a80200009e
:020000040000fa
:0400b800a80200009a
:020000040000fa
:0400bc00a802000096
:020000040000fa
:0400c000a802000092
:020000040000fa
:0400c400a80200008e
:020000040000fa
:0400c800a80200008a
:020000040000fa
:0400cc00a802000086
:020000040000fa
:0400d000a802000082
:020000040000fa
:0400d400a80200007e
:020000040000fa
:0400d800a80200007a
:020000040000fa
:0400dc00a802000076
:020000040000fa
:0400e000a802000072
:020000040000fa
:0400e400a80200006e
:020000040000fa
:0400e800a80200006a
:020000040000fa
:0400ec00a802000066
:020000040000fa
:0400f000a802000062
:020000040000fa
:0400f400a80200005e
:020000040000fa
:0400f800a80200005a
:020000040000fa
:0400fc00a802000056
:020000040000fa
:04010000a802000051
:020000040000fa
:04010400a80200004d
:020000040000fa
:04010800a802000049
:020000040000fa
:04010c00a802000045
:020000040000fa
:04011000e61d0000e8
:020000040000fa
:04011400a80200003d
:020000040000fa
:04011800a802000039
:020000040000fa
:04011c00a802000035
:020000040000fa
:04012000a802000031
:020000040000fa
:04012400a80200002d
:020000040000fa
:04012800a802000029
:020000040000fa
:04012c00a802000025
:020000040000fa
:04013000a802000021
:020000040000fa
:04013400a80200001d
:020000040000fa
:04013800a802000019
:020000040000fa
:04013c00a802000015
:020000040000fa
:04014000a802000011
:020000040000fa
:04014400a80200000d
:020000040000fa
:04014800a802000009
:020000040000fa
:04014c00a802000005
:020000040000fa
:04015000a802000001
:020000040000fa
:04015400a8020000fd
:020000040000fa
:04015800a8020000f9
:020000040000fa
:04015c00a8020000f5
:020000040000fa
:04016000a8020000f1
:020000040000fa
:04016400a8020000ed
:020000040000fa
:04020800a802000048
:020000040000fa
:04020c00a802000044
:020000040000fa
:04021000a802000040
:020000040000fa
:04021400a80200003c
:020000040000fa
:04021800a802000038
:020000040000fa
:04021c00a802000034
:020000040000fa
:04022000a802000030
:020000040000fa
:04022400a80200002c
:020000040000fa
:04022800a802000028
:020000040000fa
:04022c00a802000024
:020000040000fa
:04023000a802000020
:020000040000fa
:04023400a80200001c
:020000040000fa
:04023800a802000018
:020000040000fa
:04023c00a802000014
:020000040000fa
:04024000a802000010
:020000040000fa
:04024400a80200000c
:020000040000fa
:04024800a802000008
:020000040000fa
:04024c00a802000004
:020000040000fa
:04025000a802000000
:020000040000fa
:04025400a8020000fc
:020000040000fa
:04025800a8020000f8
:020000040000fa
:04025c00a8020000f4
:020000040000fa
:04026000a8020000f0
:020000040000fa
:04026400a8020000ec
:020000040000fa
:04026800a8020000e8
:020000040000fa
:04026c00a8020000e4
:020000040000fa
:04027000a8020000e0
:020000040000fa
:04027400a8020000dc
:020000040000fa
:04027800a8020000d8
:020000040000fa
:04027c00a8020000d4
:020000040000fa
:04028000a8020000d0
:020000040000fa
:04028400a8020000cc
:020000040000fa
:04028800a8020000c8
:020000040000fa
:04028c00a8020000c4
:020000040000fa
:04029000a8020000c0
:020000040000fa
:04029400a8020000bc
:020000040000fa
:04029800a8020000b8
:020000040000fa
:04029c00a8020000b4
:020000040000fa
:0402a000a8020000b0
:020000040000fa
:0402a400a8020000ac
:020000040000fa
:0402a800a8020000a8
:020000040000fa
:0402ac00a8020000a4
:020000040000fa
:0402b000a8020000a0
:020000040000fa
:0402b400a80200009c
:020000040000fa
:0402b800a802000098
:020000040000fa
:0402bc00a802000094
:020000040000fa
:0402c000a802000090
:020000040000fa
:0402c400a80200008c
:020000040000fa
:0402c800a802000088
:020000040000fa
:0402cc00a802000084
:020000040000fa
:0402d000a802000080
:020000040000fa
:0402d400a80200007c
:020000040000fa
:0402d800a802000078
:020000040000fa
:0402dc00a802000074
:020000040000fa
:0402e000a802000070
:020000040000fa
:0402e400a80200006c
:020000040000fa
:0402e800a802000068
:020000040000fa
:0402ec00a802000064
:020000040000fa
:0402f000a802000060
:020000040000fa
:0402f400a80200005c
:020000040000fa
:0402f800a802000058
:020000040000fa
:0402fc00a802000054
:020000040000fa
:04030000a80200004f
:020000040000fa
:04030400a80200004b
:020000040000fa
:04030800a802000047
:020000040000fa
:04030c00a802000043
:020000040000fa
:04031000a80200003f
:020000040000fa
:04031400a80200003b
:020000040000fa
:04031800a802000037
:020000040000fa
:04031c00a802000033
:020000040000fa
:04032000a80200002f
:020000040000fa
:04032400a80200002b
:020000040000fa
:04032800a802000027
:020000040000fa
:04032c00a802000023
:020000040000fa
:04033000a80200001f
:020000040000fa
:04033400a80200001b
:020000040000fa
:04033800a802000017
:020000040000fa
:04033c00a802000013
:020000040000fa
:04034000a80200000f
:020000040000fa
:04034400a80200000b
:020000040000fa
:04034800a802000007
:020000040000fa
:04034c00a802000003
:020000040000fa
:04035000a8020000ff
:020000040000fa
:04035400a8020000fb
:020000040000fa
:04035800a8020000f7
:020000040000fa
:04035c00a8020000f3
:020000040000fa
:04036000a8020000ef
:020000040000fa
:04036400a8020000eb
:020000040000fa
:10040000efb720000e4f22000e0188000000000010
:10041000000020000000e000020032000001200087
:10042000200288000c000700001e220001002000ae
:1004300011000700000020000000e0000200320070
:10044000000002000000000058240200000000002c
:100450000040da000000fe004440a9000000200037
:100460000000e0000300320000002000a00188002e
:100470004440a80000000600910188008000780038
:100480000000eb0015003700e280400032a0b4000d
:100490009101ba00e280400032a0b4009102ba009b
:1004a000e280400032a0b4000002eb00472bde00e7
:1004b000f507b200602ce10004003a000059eb009f
:1004c0008301e900fdff3e00040037006128e100e0
:1004d000010032000082eb000b00070011c3ba00dc
:1004e0001101ba000604e00003003a000200e00037
:1004f000e5ff3a0000000600f607b200960188000a
:1005000082007800f5ff37003159ba008301e90015
:100510000c0032002159ba008301e90008003200c2
:100520000400e00003003a00e280400032a0b40082
:10053000f5ff370011d9ba008301e900faff3a004c
:100540008100e800e180400032a0b4000000060015
:100550000040da000000fe00889fbe0080047800a2
:10056000c02a81000000e00004003a000e000700ed
:100570000084eb000000e00008003500c82a81007c
:100580000900e000050032000900440006000700f1
:100590000000e00001003d000084eb00080078004e
:1005a0004f04be0000000600800078000100e0005b
:1005b00003003a0000002000c02a89000000050066
:1005c0000080eb0002002000828f500002003e00fd
:1005d000c12a89000000eb000000060003f0a20021
:1005e000889fbe008a9fbe008c1f780018010700fc
:1005f0001f0133006450e1004f0032006420e1002d
:100600005200320003826c0007003b000905d00055
:100610000306d000820f54000c065d000200390072
:1006200002003200890178000306780085825500b7
:1006300004003d000003fd008103fd008502ea0087
:100640008b854200840f720002003b0060001000a6
:10065000e08018006011b8000005eb007a28e10086
:100660000a00390006007800c75ddd00f707b20018
:10067000878075002d003700828171000a017800a3
:10068000610560008180d1000080d3008502e9000f
:10069000f9ff3b00060440008784480002003b004d
:1006a00060041400e0841c000988a30007003200e5
:1006b0008a81710082817100610164008904d10026
:1006c0000884d3008b05e800170037000978a300e1
:1006d00013003a000b00e000130034008b05e90022
:1006e0000804440089844c000a4474000978a3007b
:1006f0000d003a000b00e000070034008b05e90014
:100700000804440089844c0001003a000b002000da
:100710000978a300f7ff32000001eb000200370068
:10072000828171000a0178008e0007000cf0a7009a
:1007300001f0a000d70037006420e10002003a0079
:10074000838f6c00d70033000801be000200be009a
:10075000d0003700889fbe008a9fbe008c1f7800a3
:10076000bb000700c200330003866c006450e10048
:100770002e0032006420e100330032006150e100bd
:100780002f0032006120e1003100320085855500e4
:10079000eb07b00009002000080420000500370026
:1007a0000804440089844c000a0031000603430019
:1007b00087834b000001530081815b00f8ff330009
:1007c0000203be000800a0000804440089844c0015
:1007d000f6ff3900c639dd008301730001003200e5
:1007e000130020008904d1000884d3000998a300d5
:1007f000050032000800a7000300a0008904d10012
:100800000884d3008b05e8008904d1000884d30054
:100810000001eb000281d2005200070001f0a100ac
:100820000cf0a70001f0a0009a0037006420e1005e
:100830009c0032000801be000200be00f7ff370036
:100840006120e100970032006000b800f3ff37003c
:100850000000200001f82700f0ff370014002000fe
:10086000c7003700f4ff2f00c50037000001be00ad
:10087000620007000470a70003f0a1006509b10041
:10088000160032000d0035006828e1000600350032
:10089000f0ff2f00f1ff27000300e00013003b00f2
:1008a0000100280000000500000040008180480091
:1008b0008502e900fcff3a0008003700f88f42008b
:1008c00002003c008000eb00000005008100d10028
:1008d0000080d3008502e800fcff3a000300e0003e
:1008e00002003b0060001000e080180000000600dd
:1008f0000001be00410007000470a70003f0a10042
:1009000003f8a30013003a006509b100100032009b
:10091000090035006928e1000200350001002800c7
:100920000000050000004000818048008502e900c9
:10093000fcff3a0000000600f88f42000500350079
:100940008100d1000080d3008502e800fcff3a005e
:10095000000006008000eb00000005006011b800f8
:10096000a200370081002000618055000b003d008f
:100970000b00200061fe2f000100e1001d0034008b
:1009800082817100610164008904d1000884d30070
:100990000000e800faff3a007100200061006400e6
:1009a000030070000200600009003200610444008e
:1009b000e0844c000988a500050032008b05e800a2
:1009c0006808e10002003a008904d1000884d300dd
:1009d000f20f20000258e10005003d00c75ddd0078
:1009e000f907b20089807500080078000000060051
:1009f0000bf827008b00780000000500c70ade0016
:100a0000f107b200f50fb20008003200e1cf42005a
:100a1000020032000170a00024000500810f700068
:100a2000010032000408050044000500810f700039
:100a300002003a00140005008502e90000004000b1
:100a400081c04800fcff3b000170a00024000500ad
:100a50000004be00e9ff07000003be000405be005d
:100a60000200be00e5ff0700844f7500000006008d
:100a70000200be006450e100050036006420e10081
:100a8000020036000968a30001003a000800be0019
:100a90000160a0004f0678004f05be004f04be0065
:100aa00000000600f0ff2f00f1ff2700f9ff3700dc
:100ab000889fbe008a9fbe008c1f7800e4ff07005d
:100ac000ebff330003866c006450e1002400320029
:100ad0006420e100270032006150e1002200320072
:100ae0006120e100210032008b854200eb07b1005c
:100af0000134b800003ab8000804420089844a0072
:100b0000013ab8000030b8008880400009014a006e
:100b100004003300000040008180480002014900c9
:100b20008b05e900c909dd00830170000100320076
:100b300013002000c814de004814dd004709de0061
:100b40001200b200c808de000884700085ff0700ac
:100b500001f0a1000cf0a70001f0a000cdff3700cc
:100b60006120e100cfff32000801be000200be009c
:100b7000f7ff37006150e100fcff3a00c9ff370082
:100b8000889fbe008a9fbe00841f7800b0ff0700c8
:100b90004f00780011003300f0ff2f00838f6c00ae
:100ba00006003b00040565000a00a70008003700a6
:100bb00009f0a6001000200008003700820f540042
:100bc000838f5c00030039001000200001003e000c
:100bd0000000200009f0a7000000ea004f05be0059
:100be0004f04be000000e00000000600889fbe0029
:100bf0008a9fbe00008270000402710004827100ae
:100c0000260032000004be000200be006011b800e1
:100c10006b092000950220000182cf000a003900f4
:100c20000541b1000082cf00070039000541b10045
:100c30000982cf00040039000541b1000882cf00cd
:100c4000010039000541b100054252001200320096
:100c50000a003b0082817100610164008100d100c3
:100c60000080d3008984d3000884d3008b05e8007a
:100c70000442e800f7ff3a00070037000804440088
:100c800089844c0000004800818048008b05e90001
:100c90000442e900f9ff3a0032ff07004f05be00a9
:100ca0004f04be0000000600889fbe008a9fbe0061
:100cb0008c9fbe0081542200422a81000200e00085
:100cc0000b003a0064814000422a8900922a890080
:100cd000a1009800812a8900214190000204a0000f
:100ce000a2409800614190000204a000e2409800f8
:100cf000670440004244de004244dd00842a810053
:100d00000100200009002000818454002d002000f3
:100d1000110009008d04d800800678000886e800dc
:100d20000c0646008001eb00020037001300200093
:100d30000b027800a44090000108a30002003200da
:100d40000a003700120a780014017800a2409000cf
:100d50000108a300fbff320088004200810f510010
:100d6000020039000800e00042003d0094057800d0
:100d70000b00a100848f5500edff3e00e18f510074
:100d8000eaff3a008d0f540002003600890f54002c
:100d9000140039006141b8006148b900b4ff2f0068
:100da000050020000000520081805a00800f510091
:100db000818f590002003500640544000a003700a5
:100dc000000020003a0020000005550008054500fd
:100dd000110009000985d8000980b90000057800d4
:100de000010037000c0578000a007800dafd0700e2
:100df000e10f400005003a00640544000a00780055
:100e0000d5fd0700e10f40002b003200912a810040
:100e100080087800912a8100e481400021419000ff
:100e2000830f5000020032000204a00001003700ce
:100e30000204a100a2409800640555000a05400084
:100e40000a0878009a2a890081542200010d78004e
:100e5000922a8100a24090000104a0002141980044
:100e6000a04090000104a100214098008001eb0007
:100e7000afff3700812a8900810f5100070036003b
:100e80001101be00a22a8900b32a890094087800c3
:100e90000041eb00812a8100a2409800832a810052
:100ea000030a7800a44090000104a00021429800a9
:100eb00064004200010037000000eb004f06be0056
:100ec0004f05be004f04be00000006000000e00019
:100ed0000800320064005000812a8100810f500018
:100ee00001003100802a8900a04090000104a10087
:100ef0002140980000000600889fbe008a9fbe0027
:100f00000004be000900e00007003a000000eb000a
:100f10000800e0003600320008007800ebff070010
:100f20000000eb00320037000800e00003003a0048
:100f3000090078005cff07002d00370064005400b2
:100f40009005780068f897000008a30002003200be
:100f500008007800ddff07000900780052ff070055
:100f6000800478000000eb000900e000200032005f
:100f7000888f54001b00320069bd97000905550099
:100f800042d5de0088855500c2ddde000a0178000a
:100f90008b0f5500010036000b0178004211dd0077
:100fa000880078000900780014000700888f54003a
:100fb0000e0031004255dd000a854400880f5500bf
:100fc0000a0036000804550042c4de004244dd0039
:100fd00008844400a02a8100b12a8100008cbe0050
:100fe000020037000800780001003700090078008f
:100ff0004f05be004f04be000000060080017800cf
:1010000002003700b15978000201e9000200e00057
:08101000fcff3a00000006009d
:020000040000fa
:101018000c00fa005007980040002000f0428800b9
:10102800f0428000000040001dff070000438800d8
:10103800f04280000000400019ff070010438800bc
:10104800004380000000e000d6003200104380001a
:101058000000e000d300320001438000010f780057
:1010680011438000110798000043800001e022002e
:1010780001087800004380000080e800b1ec2b00f4
:1010880001087800004380006400400031302000ef
:10109800010878000043800066004000310c200001
:1010a800010878000043800090007800f00f2000cd
:1010b8000080600030438800004380001000780002
:1010c8004800de0040438800004380000080e800bc
:1010d80090007800f00f20000080600050438800e6
:1010e800004380000080e800100078004800de001f
:1010f800604388000043800064004000900078004e
:10110800f00f2000008060007043880000438000da
:1011180064004000100078004800de00804388002a
:10112800004380006600400090007800f00f200027
:101138000080600090438800f00f20002043880062
:101148003143800020438000008068008000400018
:10115800608a20000080400010007800204388004a
:1011680041438000204380000080680080004000e8
:10117800608a20000080400010007800204388002a
:1011880051438000204380000080680080004000b8
:10119800608a20000080400010007800204388000a
:1011a8006143800020438000008068008000400088
:1011b800608a2000008040001000780020438800ea
:1011c8007143800020438000008068008000400058
:1011d800608a2000008040001000780020438800ca
:1011e8008143800020438000008068008000400028
:1011f800608a2000008040001000780020438800aa
:1012080091438000204380000080680080004000f7
:10121800608a200000804000100078002043880089
:10122800204380008080ea00f00f200000806000ea
:10123800204388000043800066004000214380006e
:101248004809dd0001438000e680400091007800f5
:10125800828070000108780001438000004380000c
:10126800100078004801dd004800de000000710031
:1012780080087800004380008080e80000438000f8
:101288000080e800100078004801dd004800de001a
:10129800000071008008780000438000e4004000ee
:1012a8000043800064004000100078004801dd0021
:1012b8004800de00000071008008780000438000cc
:1012c800e6004000004380006600400010007800ff
:1012d8004801dd004800de00000071008008780049
:1012e800004380006600400001438000e680400023
:1012f8001101780001f02f000101610023438000f3
:10130800f10f200081806100828070000108780060
:10131800f04280002007980010003700de0090009f
:101328000000eb00790807001e00780090007800a4
:10133800310798001e8fe8003e0090001d0b070043
:10134800400798001e009000ce0090000108780029
:101358001e0090000080e800100798002e00900002
:1013680000f0a7000000ea000000ea004f00de00dd
:1013780000407800ae0090008100e9002107980045
:101388000004e000e5ff3a00de00900010002000b5
:101398005e08070001438000010f780011438000b8
:1013a8001107980000438000c6fe07001043800024
:1013b800c4fe0700d04180000080fa00000006004b
:1013c8000c00fa005007980040002000f042880006
:1013d800f04280000000400031fe07000043880012
:1013e800f0428000000040002dfe070010438800f6
:1013f800004380000000e000ea0032001043800053
:101408000000e000e700320001438000010f78008f
:101418001143800011079800004380008000eb0012
:1014280001087800004380000080e8008000eb009d
:101438000108780000438000640040008000eb0051
:10144800010878000043800066004000f10c20008d
:10145800010878000043800090007800f00f200019
:10146800008060003043880000438000100078004e
:101478004800de0040438800004380000080e80008
:1014880090007800f00f2000008060005043880032
:10149800004380000080e800100078004800de006b
:1014a800604388000043800064004000900078009a
:1014b800f00f200000806000704388000043800027
:1014c80064004000100078004800de008043880077
:1014d800004380006600400090007800f00f200074
:1014e8000080600090438800f00f200020438800af
:1014f8003143800020438000008068008000400065
:10150800608a200000804000100078002043880096
:101518004143800020438000008068008000400034
:10152800608a200000804000100078002043880076
:101538005143800020438000008068008000400004
:10154800608a200000804000100078002043880056
:1015580061438000204380000080680080004000d4
:10156800608a200000804000100078002043880036
:1015780071438000204380000080680080004000a4
:10158800608a200000804000100078002043880016
:101598008143800020438000008068008000400074
:1015a800608a2000008040001000780020438800f6
:1015b8009143800020438000008068008000400044
:1015c800608a2000008040001000780020438800d6
:1015d800204380008080ea00f00f20000080600037
:1015e80020438800004380006600400021438000bb
:1015f8004809dd0001438000e68040009100780042
:101608008280700001087800014380000043800058
:10161800100078004801dd004800de00000071007d
:1016280080087800004380008080e8000043800044
:101638000080e800100078004801dd004800de0066
:10164800000071008008780000438000e40040003a
:101658000043800064004000100078004801dd006d
:101668004800de0000007100800878000043800018
:10167800e60040000043800066004000100078004b
:101688004801dd004800de00000071008008780095
:10169800004380006600400001438000e68040006f
:1016a8001101780001f02f0001016100234380003f
:1016b800f10f2000818061008280700001087800ad
:1016c800f04280002007980010003700de009000ec
:1016d8000000eb008d0707001e00780090007800de
:1016e800310798001e8fe8003e009000310a07007d
:1016f800400798001e009000ce0090000108780076
:101708001e0090000080e800100798002e0090004e
:1017180000f0a7000000ea000000ea004f00de0029
:1017280000407800ae0090008100e9002107980091
:101738000004e000e5ff3a00de0090001000200001
:101748007207070001438000010f780011438000f1
:1017580011079800104380000080e800100078000e
:10176800c800dd004800de0000807000c04388002b
:10177800104380006600400010007800c800dd00bb
:101788004800de0000807000d043880010438000cd
:1017980010007800c800dd004800de0000807000fe
:1017a800e043880000438000c6fd07001043800026
:1017b800c4fd0700d04180000080fa000000060048
:1017c8000c00fa005007980040002000f042880002
:1017d800f04280000000400031fd0700004388000f
:1017e800f0428000000040002dfd070010438800f3
:1017f800004380000000e000e80032001043800051
:101808000000e000e500320001438000010f78008d
:101818001143800011079800004380008000eb000e
:1018280001087800004380000080e800c24380007f
:10183800412321008100690001087800c14380002c
:101848004023210000806800004488000044800094
:101858000080ea00104488000043800064004000d3
:1018680011448000010878000043800066004000b1
:10187800510c200001087800004380009000780097
:10188800f00f200000806000304388000043800093
:10189800100078004800de004043880000438000c4
:1018a8000080e80090007800f00f200000806000c1
:1018b80050438800004380000080e8001000780052
:1018c8004800de0060438800004380006400400058
:1018d80090007800f00f20000080600070438800be
:1018e8000043800064004000100078004800de00db
:1018f8008043880000438000660040009000780024
:10190800f00f20000080600090438800f00f200056
:101918002043880031438000204380000080680015
:1019280080004000608a200000804000100078009d
:1019380020438800414380002043800000806800e5
:1019480080004000608a200000804000100078007d
:1019580020438800514380002043800000806800b5
:1019680080004000608a200000804000100078005d
:101978002043880061438000204380000080680085
:1019880080004000608a200000804000100078003d
:101998002043880071438000204380000080680055
:1019a80080004000608a200000804000100078001d
:1019b8002043880081438000204380000080680025
:1019c80080004000608a20000080400010007800fd
:1019d80020438800914380002043800000806800f5
:1019e80080004000608a20000080400010007800dd
:1019f80020438800204380008080ea00f00f200008
:101a08000080600020438800204380002044880034
:101a18000043800066004000214380004809dd0043
:101a280001438000e68040009100780082807000c9
:101a3800010878000143800000438000100078000e
:101a48004801dd004800de000000710080087800d1
:101a5800004380008080e800004380000080e800a8
:101a6800100078004801dd004800de000000710029
:101a78008008780000438000e400400000438000b4
:101a880064004000100078004801dd004800de00d6
:101a9800000071008008780000438000e6004000e4
:101aa8000043800066004000100078004801dd0017
:101ab8004800de00000071008008780000438000c4
:101ac8006600400001438000e68040001101780074
:101ad80001f02f000101610023438000f10f200075
:101ae800818061008280700001087800f0428000e7
:101af8002007980010003700de0090000000eb007f
:101b0800820607001e0078009000780031079800d0
:101b18001e8fe8003e009000260907004007980045
:101b28001e009000ce009000010878001e00900072
:101b38000080e800100798002e00900000f0a70031
:101b48000000ea000000ea004f00de0000407800d4
:101b5800ae0090008100e900210798000004e00031
:101b6800e5ff3a00de00900010002000670607003d
:101b780001438000010f780011438000110798008d
:101b8800104380006600400010007800c800dd00a7
:101b98004800de0000807000f043880000438000a9
:101ba800c8fc070010438000c6fc0700d041800035
:101bb8000080fa00000006000c00fa0050079800a8
:101bc80040002000f0428800f04280000000400001
:101bd80033fc070000438800f0428000000040000a
:101be8002ffc070010438800004380000000e0003d
:101bf800e3003200104380000000e000e000320003
:101c080001438000010f78001143800011079800fc
:101c180000438000e10221000108780000438000b1
:101c28000080e800210321000108780000438000bb
:101c3800640040008000eb00010878000043800049
:101c480066004000110c2000010878000043800065
:101c580090007800f00f200000806000304388007a
:101c680000438000100078004800de0040438800f0
:101c7800004380000080e80090007800f00f20000a
:101c88000080600050438800004380000080e80026
:101c9800100078004800de006043880000438000a0
:101ca8006400400090007800f00f20000080600081
:101cb80070438800004380006400400010007800f2
:101cc8004800de0080438800004380006600400032
:101cd80090007800f00f200000806000904388009a
:101ce800f00f20002043880031438000204380000b
:101cf8000080680080004000608a2000008040006a
:101d08001000780020438800414380002043800071
:101d18000080680080004000608a20000080400049
:101d28001000780020438800514380002043800041
:101d38000080680080004000608a20000080400029
:101d48001000780020438800614380002043800011
:101d58000080680080004000608a20000080400009
:101d680010007800204388007143800020438000e1
:101d78000080680080004000608a200000804000e9
:101d880010007800204388008143800020438000b1
:101d98000080680080004000608a200000804000c9
:101da8001000780020438800914380002043800081
:101db8000080680080004000608a200000804000a9
:101dc8001000780020438800204380008080ea00cb
:101dd800f00f20000080600020438800004380004e
:101de80066004000214380004809dd00014380006f
:101df800e680400091007800828070000108780039
:101e08000143800000438000100078004801dd0095
:101e18004800de0000007100800878000043800060
:101e28008080e800004380000080e800100078000f
:101e38004801dd004800de000000710080087800dd
:101e480000438000e400400000438000640040003c
:101e5800100078004801dd004800de000000710035
:101e68008008780000438000e600400000438000be
:101e780066004000100078004801dd004800de00e0
:101e88000000710080087800004380006600400070
:101e980001438000e68040001101780001f02f0026
:101ea8000101610023438000f10f2000818061005f
:101eb8008280700001087800f042800020079800b6
:101ec80010003700de0090000000eb008f050700cf
:101ed8001e00780090007800310798001e8fe800f7
:101ee8003e00900033080700400798001e0090004d
:101ef800ce009000010878001e0090000080e800e5
:101f0800100798002e00900000f0a7000000ea00db
:101f18000000ea004f00de0000407800ae009000ac
:101f28008100e900210798000004e000e5ff3a007d
:101f3800de009000100020007405070001438000b7
:101f4800010f7800114380001107980010438000aa
:101f580010007800c800dd004800de000080700036
:101f6800c0428800104380000080e800100078001c
:101f7800c800dd004800de0000807000d042880004
:101f880000438000cffb070010438000cdfb070013
:101f9800d04180000080fa00000006000c00fa0022
:101fa8005007980040002000f0428800f04280006e
:101fb800000040003afb070000438800f042800020
:101fc8000000400036fb07001043880000438000f3
:101fd8000000e000e1003200104380000000e00053
:101fe800de00320001438000010f780011438000b9
:101ff80011079800004380008000eb00010878007a
:10200800004380000080e800515525000108780051
:1020180000438000640040008000eb000108780065
:102028000043800066004000010d20000108780090
:102038000043800090007800f00f200000806000ce
:102048003043880000438000100078004800de001c
:1020580040438800004380000080e800900078003a
:10206800f00f20000080600050438800004380008b
:102078000080e800100078004800de006043880017
:10208800004380006400400090007800f00f2000ba
:1020980000806000704388000043800064004000b6
:1020a800100078004800de0080438800004380006c
:1020b8006600400090007800f00f2000008060006b
:1020c80090438800f00f20002043880031438000af
:1020d800204380000080680080004000608a200063
:1020e80000804000100078002043880041438000b1
:1020f800204380000080680080004000608a200043
:102108000080400010007800204388005143800080
:10211800204380000080680080004000608a200022
:102128000080400010007800204388006143800050
:10213800204380000080680080004000608a200002
:102148000080400010007800204388007143800020
:10215800204380000080680080004000608a2000e2
:1021680000804000100078002043880081438000f0
:10217800204380000080680080004000608a2000c2
:1021880000804000100078002043880091438000c0
:10219800204380000080680080004000608a2000a2
:1021a8000080400010007800204388002043800011
:1021b8000080ea0020438800004380006600400059
:1021c800214380004809dd0001438000e68040008b
:1021d8009100780082807000010878000143800037
:1021e80000438000100078004801dd004800de0050
:1021f8000000710080087800004380008080e800bb
:10220800004380000080e800100078004801dd00ed
:102218004800de000000710080087800004380005c
:10222800e400400000438000640040001000780093
:102238004801dd004800de000000710080087800d9
:1022480000438000e6004000004380006600400034
:10225800100078004801dd004800de000000710031
:102268008008780000438000660040000143800039
:10227800e68040001101780001f02f0001016100a3
:1022880023438000f10f200081806100828070006c
:1022980001087800f04280002007980010003700fd
:1022a800de0090000000eb00980407001e00780094
:1022b80090007800310798001e8fe8003e009000db
:1022c8003c070700400798001e009000ce009000d1
:1022d800010878001e0090000080e80010079800b0
:1022e8002e00900000f0a7000000ea000000ea00bd
:1022f8004f00de0000407800ae0090008100e90049
:10230800210798000004e000e5ff3a00de00900095
:10231800100020007d04070001438000010f7800b1
:1023280011438000110798001043800010007800c6
:10233800c800dd004800de0000807000a04388006f
:10234800104380006600400010007800c800dd00df
:102358004800de0000807000b04388000043800021
:10236800d8fa070010438000d6fa0700d041800051
:102378000080fa00000006000e00fa0060079800ce
:1023880040002000f04288006e009000e10f5000ed
:1023980003003a0020002000000f780002003700f8
:1023a8000000eb00000f7800f042800000004000c1
:1023b8003bfa070000438800f0428000000040001c
:1023c80037fa070010438800004380000000e0004f
:1023d80025013200104380000000e0002201320095
:1023e80001438000110798001143800021079800dd
:1023f800004380008000eb00010878000043800063
:102408000080e8005155250001087800004380004d
:10241800640040008000eb00010878000043800061
:1024280066004000010d200001087800004380008c
:1024380090007800f00f2000008060003043880092
:1024480000438000100078004800de004043880008
:10245800004380000080e80090007800f00f200022
:102468000080600050438800004380000080e8003e
:10247800100078004800de006043880000438000b8
:102488006400400090007800f00f20000080600099
:10249800704388000043800064004000100078000a
:1024a8004800de008043880000438000660040004a
:1024b80090007800f00f20000080600090438800b2
:1024c800f00f200020438800314380002043800023
:1024d8000080680080004000608a20000080400082
:1024e800100078002043880041438000204380008a
:1024f8000080680080004000608a20000080400062
:102508001000780020438800514380002043800059
:102518000080680080004000608a20000080400041
:102528001000780020438800614380002043800029
:102538000080680080004000608a20000080400021
:1025480010007800204388007143800020438000f9
:102558000080680080004000608a20000080400001
:1025680010007800204388008143800020438000c9
:102578000080680080004000608a200000804000e1
:102588001000780020438800914380002043800099
:102598000080680080004000608a200000804000c1
:1025a8001000780020438800204380000080ea0063
:1025b80020438800004380006600400021438000db
:1025c8004809dd0001438000e68040009100780062
:1025d8008280700001087800014380000043800079
:1025e800100078004801dd004800de00000071009e
:1025f80080087800004380008080e8000043800065
:102608000080e800100078004801dd004800de0086
:10261800000071008008780000438000e40040005a
:102628000043800064004000100078004801dd008d
:102638004800de0000007100800878000043800038
:10264800e60040000043800066004000100078006b
:102658004801dd004800de000000710080087800b5
:10266800004380006600400001438000e68040008f
:102678001101780001f02f0001016100234380005f
:10268800f10f2000818061008280700001087800cd
:10269800f04280003007980012003700ee009000ea
:1026a8000000eb00990307001e00900090007800de
:1026b800410798001e0090000080e800100798006d
:1026c8004e0090003b060700500798002e0090002f
:1026d800de009000010878002e0090000080e800dd
:1026e800200798003e00900000f0a7000000ea00d4
:1026f8000000ea004f00de0000407800be009000b5
:102708008100e900310798000004e000e3ff3a0087
:10271800ee009000100020007c03070001438000b9
:102728001107980011438000210798002e0090009f
:10273800100078004600de00e30060001000200072
:10274800e18f5000010036000000eb0030428800a5
:102758002e0090006600400010007800ce00de00d9
:102768001e007800808f50003f003a002e00900035
:10277800100078004600de0063006000e10f5000a2
:1027880037003600ca82a8001e007800e20f500009
:1027980020003a001043800010007800c800de00d6
:1027a80010438000100078007f0060004800dd00c2
:1027b80001007000e0418800104380000080e800bc
:1027c80010007800c800de00104380000080e80098
:1027d800100078007f0060004800dd0001007000f4
:1027e800f041880010438000640040001000780029
:1027f800c800de001043800064004000100078002c
:102808007f0060004800dd0001007000d0418800b2
:10281800150037001e0078000000e00012003a00a2
:102828001043800010007800c800de0010438000cc
:1028380010017800f0032000000061004800dd006e
:1028480001007000004288001043800064004000ce
:10285800100078004800de00c04188000200370000
:102868006000b8003d0807000043800095f90700a4
:102878001043800093f90700d04180000080fa00df
:10288800000006000c00fa005007980040002000e5
:10289800f0428800f04280000000400000f9070084
:1028a80000438800f042800000004000fcf8070068
:1028b80010438800004380000000e000d60032008a
:1028c800104380000000e000d30032000143800084
:1028d800010f780011438000110798000043800021
:1028e8008000eb0001087800004380000080e800c9
:1028f8008000eb000108780000438000640040007d
:102908008000eb000108780000438000660040006a
:10291800f10e200001087800004380009000780044
:10292800f00f2000008060003043880000438000e2
:10293800100078004800de00404388000043800013
:102948000080e80090007800f00f20000080600010
:1029580050438800004380000080e80010007800a1
:102968004800de00604388000043800064004000a7
:1029780090007800f00f200000806000704388000d
:102988000043800064004000100078004800de002a
:102998008043880000438000660040009000780073
:1029a800f00f20000080600090438800f00f2000a6
:1029b8002043880031438000204380000080680065
:1029c80080004000608a20000080400010007800ed
:1029d8002043880041438000204380000080680035
:1029e80080004000608a20000080400010007800cd
:1029f8002043880051438000204380000080680005
:102a080080004000608a20000080400010007800ac
:102a180020438800614380002043800000806800d4
:102a280080004000608a200000804000100078008c
:102a380020438800714380002043800000806800a4
:102a480080004000608a200000804000100078006c
:102a58002043880081438000204380000080680074
:102a680080004000608a200000804000100078004c
:102a78002043880091438000204380000080680044
:102a880080004000608a200000804000100078002c
:102a980020438800204380008080ea00f00f200057
:102aa80000806000204388000043800066004000ea
:102ab800214380004809dd0001438000e680400092
:102ac800910078008280700001087800014380003e
:102ad80000438000100078004801dd004800de0057
:102ae8000000710080087800004380008080e800c2
:102af800004380000080e800100078004801dd00f5
:102b08004800de0000007100800878000043800063
:102b1800e40040000043800064004000100078009a
:102b28004801dd004800de000000710080087800e0
:102b380000438000e600400000438000660040003b
:102b4800100078004801dd004800de000000710038
:102b58008008780000438000660040000143800040
:102b6800e68040001101780001f02f0001016100aa
:102b780023438000f10f2000818061008280700073
:102b880001087800f0428000200798001000370004
:102b9800de0090000000eb005c0207001e007800d9
:102ba80090007800310798001e8fe8003e009000e2
:102bb80000050700400798001e009000ce00900016
:102bc800010878001e0090000080e80010079800b7
:102bd8002e00900000f0a7000000ea000000ea00c4
:102be8004f00de0000407800ae0090008100e90050
:102bf800210798000004e000e5ff3a00de0090009d
:102c0800100020004102070001438000010f7800f6
:102c1800114380001107980000438000a9f80700bd
:102c280010438000a7f80700d04180000080fa0018
:102c3800000006000e00fa0050079800610798008f
:102c480040002000f0428800f04280000000400070
:102c580013f8070000438800f0428000000040009d
:102c68000ff8070010438800004380000000e000d0
:102c78002c013200104380000000e00029013200de
:102c880001438000010f780011438000110798006c
:102c9800004380008000eb000108780000438000ba
:102ca8000080e8008080eb00010878000043800085
:102cb800640040008000eb00010878006e0090007e
:102cc800e20f500005003a00004380006600400013
:102cd8003109200001087800040037000043800013
:102ce80066004000310120000108780000438000a0
:102cf80090007800f00f20000080600030438800ca
:102d080000438000100078004800de00404388003f
:102d1800004380000080e80090007800f00f200059
:102d28000080600050438800004380000080e80075
:102d3800100078004800de006043880000438000ef
:102d48006400400090007800f00f200000806000d0
:102d58007043880000438000640040001000780041
:102d68004800de0080438800004380006600400081
:102d780090007800f00f20000080600090438800e9
:102d8800f00f20002043880031438000204380005a
:102d98000080680080004000608a200000804000b9
:102da80010007800204388004143800020438000c1
:102db8000080680080004000608a20000080400099
:102dc8001000780020438800514380002043800091
:102dd8000080680080004000608a20000080400079
:102de8001000780020438800614380002043800061
:102df8000080680080004000608a20000080400059
:102e08001000780020438800714380002043800030
:102e18000080680080004000608a20000080400038
:102e28001000780020438800814380002043800000
:102e38000080680080004000608a20000080400018
:102e480010007800204388009143800020438000d0
:102e58000080680080004000608a200000804000f8
:102e68001000780020438800204380008080ea001a
:102e7800f00f20000080600020438800004380009d
:102e880066004000214380004809dd0001438000be
:102e9800e680400091007800828070000108780088
:102ea8000143800000438000100078004801dd00e5
:102eb8004800de00000071008008780000438000b0
:102ec8008080e800004380000080e800100078005f
:102ed8004801dd004800de0000007100800878002d
:102ee80000438000e400400000438000640040008c
:102ef800100078004801dd004800de000000710085
:102f08008008780000438000e6004000004380000d
:102f180066004000100078004801dd004800de002f
:102f280000007100800878000043800066004000bf
:102f380001438000e68040001101780001f02f0075
:102f48000101610023438000f10f200081806100ae
:102f58008280700001087800f04280002007980005
:102f680010003700de0090000000eb00670107004a
:102f78001e00780090007800310798001e8fe80046
:102f88003e0090000b040700400798001e009000c8
:102f9800ce009000010878001e0090000080e80034
:102fa800100798002e00900000f0a7000000ea002b
:102fb8000000ea004f00de0000407800ae009000fc
:102fc8008100e900210798000004e000e5ff3a00cd
:102fd800de009000100020004c0107000143800033
:102fe800010f780011438000110798001e0090001f
:102ff800100078004600de00e300600010002000aa
:10300800e18f5000010036000000eb0030428800dc
:103018001e0090006600400010007800ce00de0020
:103028006e009000808f50003e003a001e00900015
:10303800100078004600de0063006000e10f5000d9
:10304800360036006e009000e20f500020003a0073
:103058001043800010007800c800de001043800094
:10306800100078007f0060004800dd00010070005b
:10307800e0418800104380000080e80010007800dc
:10308800c800de00104380000080e80010007800cf
:103098007f0060004800dd0001007000f0418800fa
:1030a800104380006400400010007800c800de0073
:1030b8001043800064004000100078007f0060002a
:1030c8004800dd0001007000d0418800150037007d
:1030d8006e0090000000e00012003a0010438000eb
:1030e80010007800c800de0010438000100178004e
:1030f800f0032000000061004800dd0001007000be
:1031080000428800104380006400400010007800ee
:103118004800de00c0418800020037006000b800a7
:103128000e0607000043800066f707001043800082
:1031380064f707000080fa00000006000e00fa009d
:10314800500798006107980040002000f04288006e
:10315800f042800000004000d1f6070000438800dc
:10316800f042800000004000cdf6070010438800c0
:10317800004380000000e000de00320010438000c1
:103188000000e000db00320001438000010f7800fe
:103198001143800011079800004380008000eb0075
:1031a80001087800004380000080e8008080eb0080
:1031b8000108780000438000640040008000eb00b4
:1031c800010878006e009000e20f500005003a00f8
:1031d80000438000660040003109200001087800a3
:1031e80004003700004380006600400031012000e1
:1031f800010878000043800090007800f00f20005c
:103208000080600030438800004380001000780090
:103218004800de0040438800004380000080e8004a
:1032280090007800f00f2000008060005043880074
:10323800004380000080e800100078004800de00ad
:1032480060438800004380006400400090007800dc
:10325800f00f200000806000704388000043800069
:1032680064004000100078004800de0080438800b9
:10327800004380006600400090007800f00f2000b6
:103288000080600090438800f00f200020438800f1
:1032980031438000204380000080680080004000a7
:1032a800608a2000008040001000780020438800d9
:1032b8004143800020438000008068008000400077
:1032c800608a2000008040001000780020438800b9
:1032d8005143800020438000008068008000400047
:1032e800608a200000804000100078002043880099
:1032f8006143800020438000008068008000400017
:10330800608a200000804000100078002043880078
:1033180071438000204380000080680080004000e6
:10332800608a200000804000100078002043880058
:1033380081438000204380000080680080004000b6
:10334800608a200000804000100078002043880038
:103358009143800020438000008068008000400086
:10336800608a200000804000100078002043880018
:10337800204380008080ea00f00f20000080600079
:1033880020438800004380006600400021438000fd
:103398004809dd0001438000e68040009100780084
:1033a800828070000108780001438000004380009b
:1033b800100078004801dd004800de0000007100c0
:1033c80080087800004380008080e8000043800087
:1033d8000080e800100078004801dd004800de00a9
:1033e800000071008008780000438000e40040007d
:1033f8000043800064004000100078004801dd00b0
:103408004800de000000710080087800004380005a
:10341800e60040000043800066004000100078008d
:103428004801dd004800de000000710080087800d7
:10343800004380006600400001438000e6804000b1
:103448001101780001f02f00010161002343800081
:10345800f10f2000818061008280700001087800ef
:10346800f04280002007980010003700de0090002e
:103478000000eb00250007001e007800900078008f
:10348800310798001e8fe8003e009000c90207002f
:10349800400798001e009000ce00900001087800b8
:1034a8001e0090000080e800100798002e00900091
:1034b80000f0a7000000ea000000ea004f00de006c
:1034c80000407800ae0090008100e90021079800d4
:1034d8000004e000e5ff3a00de0090001000200044
:1034e8000a00070001438000010f780011438000a3
:1034f800110798000043800072f60700104380000f
:1035080070f607000080fa00000006000400fa00c8
:10351800000f7800110798001e009000e10f50007e
:103528000c003a001e0078000040780061406000fe
:103538000080fb00610060004700dd00621680002b
:10354800f1f72f008100610001007000601688000b
:103558000b0037001e0078000040780061406000d2
:103568000080fb00610060004b00dd0062168000f7
:10357800f17f2f0081006100010070006016880053
:103588000080fa00000006000000fa009002200007
:10359800303a8800203a80000060a1000070a10045
:1035a800203a8800213a800000fe2f000080600049
:1035b800203a88001200200080072000a10920007e
:1035c8003374200080497800814978008249780066
:1035d80012002000600420007105200023742000e0
:1035e800804978008149780082497800000000000d
:1035f800113a800000002700808060000000210050
:10360800808f5000faff3a0000000000113a800055
:1036180000022000008060000000e000fbff320094
:103628000080fa0000000600809fbe000000fa003b
:103638008460a900200f80008000eb0050448800bf
:10364800614488001000200040408800004080004d
:103658001140800061004000e08048000040880080
:10366800114088000080fa004f00be0000400600ac
:103678000000fa000021ef0010458000214580007d
:1036880002002000b331240007f5070002002000e3
:1036980003f82300cff3070093f407000000780035
:1036a8001008880000032800200888008460a9000a
:1036b8009460a8000080fa00000006000000fa00ec
:1036c8002c23ef003000200000168800000d200099
:1036d80030168800c422ef00f0042300401688004a
:1036e8000001200070168800cc22ef00f03e200078
:1036f80080168800d622ef00d422ef000080fa005e
:10370800000006000000fa00a136800000fe2f002d
:10371800008060007000b300a0368800413580004a
:10372800f00f2e0080806000003021000100700042
:10373800403588004135800000fe2f000080600081
:103748005001b300403588004022ef004822ef00c6
:103758008540a9009540a9004222ef004382a900b4
:103768004362a9004342a9004322a9004302a900d9
:1037780042c2a90042a2a900101280000020a100a4
:103788000030a0000040a000101288001012800035
:103798000000a0000010a1001012880040c2a9007b
:1037a80041e2a8008540a9009540a8004005800096
:1037b8000080a1000090a00000a0a00040058800a3
:1037c8000080fa00000006000000fa00001c8000db
:1037d8000040a1000050a100001c8800001c8000cf
:1037e8000000a0000010a000001c880081a3a80011
:1037f80081c3a900e023ef0050032000501c88007b
:10380800a0002000101c880080242000401c880094
:1038180040792000201c880080722000301c88001d
:103828008480a9009480a80081e3a8000080fa00a1
:10383800000006000000fa00601c80000040a100a3
:103848000050a100601c8800601c80000000a100de
:103858000010a000601c88008da3a9008dc3a900da
:1038680050032000b01c8800a0002000701c8800b5
:1038780080242000a01c8800c06b2000801c8800c9
:1038880000652000901c880085c0a90095c0a8008c
:103898008de3a8000080fa00000006000200fa008c
:1038a8000000eb00000f7800060037001e007800cb
:1038b8008000400040792200008040001e08780007
:1038c8001e0fe8001e007800e30f5000f7ff3600d7
:1038d8000000eb00000f7800080037001e01780098
:1038e800f00041001e0078000001400080722200b4
:1038f80000004100010878001e0fe8001e00780053
:10390800e20f5000f5ff36000000eb00000f7800d2
:103918000d0037001e00780080004000c06b2200b8
:1039280000804000d1ee2d00010878001e007800cc
:10393800800040000065220000804000d1ee2d008c
:10394800010878001e0fe8001e007800e30f500001
:10395800f0ff36000080fa00000006000000fa00c0
:103968008540a9000080fa00004006003600f800f3
:10397800809fbe00829fbe00849fbe00869fbe00bf
:103988000000fa00c04480000000e00003003a0094
:10399800407922009301070002003700807222005c
:1039a80090010700c04480000000a200c0448800c5
:1039b80081e3a8008480a9000080fa004f03be00bc
:1039c8004f02be004f01be004f00be003600f90096
:1039d800004006003600f800809fbe00829fbe00af
:1039e800849fbe00869fbe000000fa00b04480009d
:1039f8000000e00003003a00c06b220091010700bc
:103a080002003700006522008e010700b0448000e4
:103a18000000a200b044880085c0a9001000200062
:103a2800b04288000080fa004f03be004f02be007b
:103a38004f01be004f00be003600f90000400600ee
:103a4800801f78003400f80000002000a0018800e2
:103a58000000fa0080408000000c88009040800040
:103a6800300c880084e0a9000080fa003400f900d6
:103a78004f007800004006000000fa00000028000f
:103a88008008880084e0a90094e0a8008421ef0061
:103a98000621ef00703e200060088800804080000a
:103aa800000c880080408000100c88006000200016
:103ab800200c88007136800000fe2f000080600016
:103ac8002001b300703688000080fa00000006006c
:103ad8000000fa008a21ef00703e2000600888008c
:103ae80090408000300c880090408000400c880096
:103af80060002000500c880071368000f00f2e0006
:103b0800808060000030210001007000703688005d
:103b18000080fa00000006000000fa00e13480008e
:103b280000fe2f00008060006001b300e0348800d0
:103b3800e1348000f00f2e008080600000702100ca
:103b480001007000e0348800f134800000fe2f008e
:103b5800008060008001b300f0348800e1a1a90072
:103b6800000f80000080a0000090a00000a0a0002e
:103b7800000f8800e0e1a900e0c1a900e041a80029
:103b8800100f80000090a10000a0a100100f880075
:103b9800e2e1a900100f80000040a0000050a00042
:103ba8000060a100100f8800e421ef00f07c2000e5
:103bb800300f88008b40a9009b40a8000080fa00c5
:103bc80000000600809fbe000000fa00010f800080
:103bd80000802000008060000000e0000400320047
:103be800804480000000e80080448800030037001b
:103bf800804480000000e900804488008b40a900d0
:103c08000080fa004f00be00004006000000fa00e5
:103c18000135800000fe2f00008060009001b30095
:103c28000035880001358000f00f2e00808060008c
:103c380000d0200001007000003588001135800098
:103c480000fe2f0000806000c000b300103588001f
:103c5800f1a1a900800f80000080a0000090a000c2
:103c680000a0a000800f8800f0e1a900f0c1a90021
:103c7800f041a800900f80000090a10000a0a100d2
:103c8800900f8800f2e1a900900f80000040a0008a
:103c98000050a0000060a100900f8800f421ef0000
:103ca800f07f2000b00f88000080fa0000000600b6
:103cb8000000fa000a21ef000021ef00f070220056
:103cc800700888008500a9009500a90013e1a800e4
:103cd8000080fa00000006000000fa002023ef0030
:103ce8002223ef002423ef003223ef000019800085
:103cf8000050a1000060a0000070a1000019880019
:103d08002143a900101980000080a0000090a000a5
:103d1800101988002063a8002203a8001019800049
:103d28000020a0000030a1000040a1000050a10028
:103d3800101988002043a80025e3a900f0c3b300a8
:103d480024e3b7002183a900901980000000a10096
:103d58000010a0000020a1009019880041198000df
:103d680000fe2f00008060006000b300401988004a
:103d780028e3a9002603a900301980000010a1003b
:103d88000020a1003019880041198000f00f2e0092
:103d980080806000007020000100700040198800d9
:103da80029e3a9002703a800301980000090a1008a
:103db80000a0a1003019880085a0a90095a0a9003d
:103dc80021e3a8000080fa00000006000000fa00c5
:103dd800c01c80000040a1000050a000c01c88004a
:103de800c01c80000000a1000010a000c01c8800ba
:103df80000302000001d8800f0012000101d880000
:103e0800d0002000d01c8800005c2000e01c880046
:103e180000502000f01c88008700a9009700a80027
:103e280099e3a8000080fa00000006003600f800b8
:103e3800809fbe00829fbe00849fbe00869fbe00fa
:103e48000000fa00a04480000000e00003003a00ef
:103e5800005c2200700207000200370000502200b8
:103e68006d020700a04480000000a200a044880062
:103e78008700a9000080fa004f03be004f02be0071
:103e88004f01be004f00be003600f900004006009a
:103e98000000fa00900420002010880007e2a90022
:103ea80007a2a9000782a8000762a9000742a90083
:103eb8000722a8000702a90006e2a90006c2a90075
:103ec80006a2a9000682a9000662a9000642a90066
:103ed8000622a9000602a9000022ef000222ef0034
:103ee80007e2a8000080fa00000006000600fa00b9
:103ef800889fbe001007980021079800190020002d
:103f08006011b8001e009000ae00900053f2070048
:103f18000000e00001003c008004eb0018002000d5
:103f28006011b8001e009000ae00900049f2070032
:103f38000000e000010035000004eb00088f540089
:103f4800040007001e0078004f04be000080fa003d
:103f5800000006000200fa000000eb00000f7800e5
:103f6800010037001e0fe8001e007800ee0f500019
:103f7800fcff34000080fa00000006000400fa008c
:103f88001007980040128000000f78005228ef00b8
:103f98001e0090004012880000000000904280003f
:103fa8000000e000fdff34001e0078000080fa00e9
:103fb800000006000200fa00000f78005228ef0007
:103fc8001e00780040128800000000009042800027
:103fd8000000e000fdff3400401280000080fa007d
:103fe800000006000600fa00200798006003200081
:103ff800100798000000eb00000f78000b00370056
:104008001e00780000004000ae0090008080400054
:104018001e0078000001400020b12000000041008f
:1040280010007800800878001e0fe8001e0090003d
:104038009e007800808f5000f1ff35000080fa0064
:10404800000006000600fa00200798006003200020
:10405800100798000000eb00000f78000b003700f5
:104068001e00780000004000ae0090000080400074
:10407800900078001e0078000001400060aa20002f
:1040880000004100010878001e0fe8001e009000a3
:104098009e007800808f5000f1ff35000080fa0004
:1040a800000006000a00fa000000eb00000f78008c
:1040b8000000eb00100798000000eb0020079800b4
:1040c8000000eb0040079800b60037001e0078009b
:1040d8008000400060aa20000080400010007800a6
:1040e800d0448800d0448000800078001e0078000a
:1040f8000001400020b120000000410001087800c4
:10410800d0448000e10f500038003a009d010700bc
:104118001e00e8007144800001017800f10f2000c2
:10412800810061000001400020b120000000410032
:10413800010878001e80e80071448000c808de008d
:104148000001400020b12000000041000108780073
:104158009e00780063824000704480006101b900cd
:1041680000002000f10f200082027800030178008f
:1041780080017800010078008382620000006100fd
:104188008000eb00c000dd00000020000001be0040
:104198006128b80000017100818171004098de003b
:1041a800cf80de00800078000401420020b12000aa
:1041b80000004100010878009e00780064814000fa
:1041c80070448000cf80de004808de008000780060
:1041d8000201410020b120000000410001087800e0
:1041e80050002000200798006c003700d044800061
:1041f800e20f50002d003a001e00e8008000400049
:1042080060aa200000804000900078001e80e8002e
:104218000001400060aa2000000041001000780062
:104228004800dd00010070004042880040428000e4
:104238008000eb00c7f1070042512000a3c723000c
:1042480019f2070087f10700000078008040880015
:104258001e00e8009e00e8000181400061aa2000dd
:1042680081004100910078000001400020b1200049
:1042780000004100010878001e80e8009e80e800e8
:104288000181400061aa200081004100910078006e
:104298000001400020b12000000041000108780022
:1042a80030002000200798003c003700d0448000f0
:1042b8004480de00e10f500032003a00d044800014
:1042c80070005000400798000000eb00300798008d
:1042d800260037003e009000000040001e0040000d
:1042e8000000e800ce0090004209dd00be0090000a
:1042f800810041000181400081602200810041006d
:1043080011017800f10f20008100610000014000d8
:1043180020b1200000004100010878003e00900014
:10432800000040001e0040000080e800ce00900021
:104338004209dd00be00900081004100018140007b
:10434800816022008100410091007800c808de00e9
:104358000001400020b12000000041000108780061
:104368003e0090000000e800300798003e009000f2
:10437800e30f5000d7ff340090002000200798007a
:1043880006003700000f2000d044880010002000ed
:104398001007980010002000200798002e009000b9
:1043a8001e0f40001e0090000000e00047ff320092
:0843b8000080fa00000006007d
:020000040000fa
:1043c00008260000480000000000000094270000bc
:1043d0006c00000000000000282700006c000000b6
:1043e00000000000bc2600006c000000000000007f
:1043f000502600006c00000000000000c0250000f6
:1044000048000000000000000025000048000000f7
:1044100000000000920800000800000000000000fa
:10442000a60a0000d80000000000000000080000fc
:104430005800000000000000a20800000400000076
:1044400002000000000080003f000000860800001d
:104450000c000000000000009a08000008000000a6
:1044600000000000a608000000020000020000009a
:1044700000002f00005e00007100bc0000930000ef
:10448000e200cd000057000078000900002600007f
:10449000eb00c40000b500009a00ae0000810000ef
:1044a000f000df00001200003d004c00006300003f
:1044b000f900d60000a7000088004500006a00004f
:1044c0001b003400007300005c002d00000200009f
:1044d000cf00e00000910000be002400000b0000af
:1044e0007a00550000980000b700c60000e90000ff
:1044f000dd00f20000830000ac006100004e00000f
:104500003f001000008a0000a500d40000fb00005e
:1045100036001900006800004700e60000c90000ee
:10452000b8009700005a000075000400002b00003e
:10453000b1009e0000ef0000c0000d00002200004e
:1045400053007c000048000067001600003900009e
:10455000f400db0000aa000085001f00003000000e
:1045600041006e0000a300008c00fd0000d200009e
:104570009500ba0000cb0000e4002900000600000e
:104580007700580000c20000ed009c0000b300005e
:104590007e005100002000000f003b0000140000ce
:1045a00065004a0000870000a800d90000f600005e
:1045b0006c004300003200001d00d00000ff00002e
:1045c0008e00a10000e30000cc00db0000920000a0
:1045d0005f007000000100002e00b400009b00008e
:1045e000ea00c5000008000027005600007900001e
:1045f0004d006200001300003c00f10000de0000ee
:10460000af008000001a000035004400006b00007d
:10461000a600890000f80000d700900000bf00004d
:10462000ce00e100002c000003007200005d0000dd
:10463000c700e80000990000b6007b0000540000ad
:1046400025000a00003e000011006000004f00003d
:104650008200ad0000dc0000f300690000460000ad
:104660003700180000d50000fa008b0000a40000fd
:1046700005002a00005b00007400b90000960000ed
:10468000e700c800005200007d000c00002300007d
:10469000ee00c10000b000009f00ab0000840000ed
:1046a000f500da000017000038004900006600003d
:1046b000fc00d30000a200008d004000006f00004d
:1046c0001e0031000076000059002800000700009d
:1046d000ca00e50000940000bb002100000e0000ad
:1046e0007f005000009d0000b200c30000ec0000fd
:1046f000d800f70000860000a9006400004b00000d
:104700003a001500008f0000a000d10000fe00005c
:1047100033001c00006d000042000000580800003b
:104720002e000000000000004825000010000000de
:1047300000000000582500000200000000000000fa
:04474000ba24800017
:020000040000fa
:104744000800fa00200f80008000eb0082f00700d0
:10475400008fbe0002002000433b24001e00be0068
:10476400d2f0070002002e00934f2400f8ef070058
:1047740020079800310798002e009000be0090009a
:104784000080fa00000006000000fa008144800066
:10479400007d20000088b900000078000001780046
:1047a4005044800061448000000078000000410013
:1047b4004044880040448000704488005044800095
:1047c4006144800000007800304488000080fa00d2
:1047d400000006000800fa00a00f80008000eb0033
:1047e4005df00700008fbe0002002000433b240060
:1047f4001e00be00adf0070002002e00f34f24009f
:10480400d3ef070020079800310798002e0090008e
:10481400be0090000080fa00000006000400fa00c8
:10482400100798000000eb00000f7800120037001a
:10483400924480001e0078004300dd009e0090003a
:1048440080804000904480000000400000804000d0
:1048540010007800800078001e0078004200dd001f
:10486400020040000001400080602200000041007e
:10487400010878001e0fe8001e007800e80f5000c1
:10488400ebff3400904480000000e800904488006e
:1048940090448000e40f500001003a009228ef0099
:1048a40085a0a9000080fa00000006000000fa00bc
:1048b40036fb070082fb07006efb070092fb070034
:1048c400c2fb0700dcfb070094fc07006bfc07003d
:1048d4003ffd070001fd0700f6fc0700cc82a8009d
:1048e400c482a800c522a800c502a800401f200059
:1048f40080408800caa2a8000d0037000240800052
:10490400134080004006200001002000800f510069
:10491400818f590006003400401f20008040880029
:10492400c242a900caa2a900c482a800cc82a900dc
:10493400b04280000000e000f0ff3200caa2a900eb
:10494400c242a800c482a900cc82a8000028ef00bb
:104954000228ef00d4fd07005628ef00e5ff3700da
:104964000400fa00008fbe000080fa000000060078
:020000040000fa
:04497400000000003f
:020000040000fa
:0200000401f009
:04000c00f8ff0000f9
:020000040000fa
:0200000401f009
:040010007fff00006e
:020000040000fa
:0200000401f009
:040014007fff00006a
:020000040000fa
:0200000401f009
:04001c00deff000003
:00000001FF
