:020000040000fa
:080000000002040000000000f2
:020000040000fa
:04000800a80200004a
:020000040000fa
:04000c00a802000046
:020000040000fa
:04001000a802000042
:020000040000fa
:04001400a80200003e
:020000040000fa
:04001800a80200003a
:020000040000fa
:04001c00a802000036
:020000040000fa
:04002000a802000032
:020000040000fa
:04002400a80200002e
:020000040000fa
:04002800a80200002a
:020000040000fa
:04002c00a802000026
:020000040000fa
:04003000a802000022
:020000040000fa
:04003400f0190000bf
:020000040000fa
:040038008a1b00001f
:020000040000fa
:04003c00a802000016
:020000040000fa
:04004000a802000012
:020000040000fa
:04004400a80200000e
:020000040000fa
:04004800a80200000a
:020000040000fa
:04004c00a802000006
:020000040000fa
:04005000821b00000f
:020000040000fa
:04005400a8020000fe
:020000040000fa
:04005800a8020000fa
:020000040000fa
:04005c00a8020000f6
:020000040000fa
:04006000bc1b0000c5
:020000040000fa
:04006400a8020000ee
:020000040000fa
:04006800a8020000ea
:020000040000fa
:04006c00a8020000e6
:020000040000fa
:04007000a8020000e2
:020000040000fa
:04007400a8020000de
:020000040000fa
:04007800a8020000da
:020000040000fa
:04007c00a8020000d6
:020000040000fa
:04008000a8020000d2
:020000040000fa
:04008400a8020000ce
:020000040000fa
:04008800a8020000ca
:020000040000fa
:04008c00a8020000c6
:020000040000fa
:04009000a8020000c2
:020000040000fa
:04009400a8020000be
:020000040000fa
:04009800a8020000ba
:020000040000fa
:04009c00a8020000b6
:020000040000fa
:0400a000a8020000b2
:020000040000fa
:0400a400a8020000ae
:020000040000fa
:0400a800a8020000aa
:020000040000fa
:0400ac00a8020000a6
:020000040000fa
:0400b000a8020000a2
:020000040000fa
:0400b400a80200009e
:020000040000fa
:0400b800a80200009a
:020000040000fa
:0400bc00a802000096
:020000040000fa
:0400c000a802000092
:020000040000fa
:0400c400a80200008e
:020000040000fa
:0400c800a80200008a
:020000040000fa
:0400cc00a802000086
:020000040000fa
:0400d000a802000082
:020000040000fa
:0400d400a80200007e
:020000040000fa
:0400d800a80200007a
:020000040000fa
:0400dc00a802000076
:020000040000fa
:0400e000a802000072
:020000040000fa
:0400e400a80200006e
:020000040000fa
:0400e800a80200006a
:020000040000fa
:0400ec00a802000066
:020000040000fa
:0400f000a802000062
:020000040000fa
:0400f400a80200005e
:020000040000fa
:0400f800a80200005a
:020000040000fa
:0400fc00a802000056
:020000040000fa
:04010000a802000051
:020000040000fa
:04010400a80200004d
:020000040000fa
:04010800a802000049
:020000040000fa
:04010c00a802000045
:020000040000fa
:04011000a802000041
:020000040000fa
:04011400a80200003d
:020000040000fa
:04011800a802000039
:020000040000fa
:04011c00a802000035
:020000040000fa
:04012000a802000031
:020000040000fa
:04012400a80200002d
:020000040000fa
:04012800a802000029
:020000040000fa
:04012c00a802000025
:020000040000fa
:04013000a802000021
:020000040000fa
:04013400a80200001d
:020000040000fa
:04013800a802000019
:020000040000fa
:04013c00a802000015
:020000040000fa
:04014000a802000011
:020000040000fa
:04014400a80200000d
:020000040000fa
:04014800a802000009
:020000040000fa
:04014c00a802000005
:020000040000fa
:04015000a802000001
:020000040000fa
:04015400a8020000fd
:020000040000fa
:04015800a8020000f9
:020000040000fa
:04015c00a8020000f5
:020000040000fa
:04016000a8020000f1
:020000040000fa
:04016400a8020000ed
:020000040000fa
:04020800a802000048
:020000040000fa
:04020c00a802000044
:020000040000fa
:04021000a802000040
:020000040000fa
:04021400a80200003c
:020000040000fa
:04021800a802000038
:020000040000fa
:04021c00a802000034
:020000040000fa
:04022000a802000030
:020000040000fa
:04022400a80200002c
:020000040000fa
:04022800a802000028
:020000040000fa
:04022c00a802000024
:020000040000fa
:04023000a802000020
:020000040000fa
:04023400a80200001c
:020000040000fa
:04023800a802000018
:020000040000fa
:04023c00a802000014
:020000040000fa
:04024000a802000010
:020000040000fa
:04024400a80200000c
:020000040000fa
:04024800a802000008
:020000040000fa
:04024c00a802000004
:020000040000fa
:04025000a802000000
:020000040000fa
:04025400a8020000fc
:020000040000fa
:04025800a8020000f8
:020000040000fa
:04025c00a8020000f4
:020000040000fa
:04026000a8020000f0
:020000040000fa
:04026400a8020000ec
:020000040000fa
:04026800a8020000e8
:020000040000fa
:04026c00a8020000e4
:020000040000fa
:04027000a8020000e0
:020000040000fa
:04027400a8020000dc
:020000040000fa
:04027800a8020000d8
:020000040000fa
:04027c00a8020000d4
:020000040000fa
:04028000a8020000d0
:020000040000fa
:04028400a8020000cc
:020000040000fa
:04028800a8020000c8
:020000040000fa
:04028c00a8020000c4
:020000040000fa
:04029000a8020000c0
:020000040000fa
:04029400a8020000bc
:020000040000fa
:04029800a8020000b8
:020000040000fa
:04029c00a8020000b4
:020000040000fa
:0402a000a8020000b0
:020000040000fa
:0402a400a8020000ac
:020000040000fa
:0402a800a8020000a8
:020000040000fa
:0402ac00a8020000a4
:020000040000fa
:0402b000a8020000a0
:020000040000fa
:0402b400a80200009c
:020000040000fa
:0402b800a802000098
:020000040000fa
:0402bc00a802000094
:020000040000fa
:0402c000a802000090
:020000040000fa
:0402c400a80200008c
:020000040000fa
:0402c800a802000088
:020000040000fa
:0402cc00a802000084
:020000040000fa
:0402d000a802000080
:020000040000fa
:0402d400a80200007c
:020000040000fa
:0402d800a802000078
:020000040000fa
:0402dc00a802000074
:020000040000fa
:0402e000a802000070
:020000040000fa
:0402e400a80200006c
:020000040000fa
:0402e800a802000068
:020000040000fa
:0402ec00a802000064
:020000040000fa
:0402f000a802000060
:020000040000fa
:0402f400a80200005c
:020000040000fa
:0402f800a802000058
:020000040000fa
:0402fc00a802000054
:020000040000fa
:04030000a80200004f
:020000040000fa
:04030400a80200004b
:020000040000fa
:04030800a802000047
:020000040000fa
:04030c00a802000043
:020000040000fa
:04031000a80200003f
:020000040000fa
:04031400a80200003b
:020000040000fa
:04031800a802000037
:020000040000fa
:04031c00a802000033
:020000040000fa
:04032000a80200002f
:020000040000fa
:04032400a80200002b
:020000040000fa
:04032800a802000027
:020000040000fa
:04032c00a802000023
:020000040000fa
:04033000a80200001f
:020000040000fa
:04033400a80200001b
:020000040000fa
:04033800a802000017
:020000040000fa
:04033c00a802000013
:020000040000fa
:04034000a80200000f
:020000040000fa
:04034400a80200000b
:020000040000fa
:04034800a802000007
:020000040000fa
:04034c00a802000003
:020000040000fa
:04035000a8020000ff
:020000040000fa
:04035400a8020000fb
:020000040000fa
:04035800a8020000f7
:020000040000fa
:04035c00a8020000f3
:020000040000fa
:04036000a8020000ef
:020000040000fa
:04036400a8020000eb
:020000040000fa
:100400002fab20008e7d22000e018800000000002e
:10041000000020000000e000020032000001200087
:10042000200288000c000700a0c32100010020006a
:1004300011000700000020000000e0000200320070
:1004400000000200000000008c1e020000000000fe
:100450000040da000000fe004440a9000000200037
:100460000000e0000300320000002000a00188002e
:100470004440a80000000600910188008000780038
:100480000000eb0015003700e280400032a0b4000d
:100490009101ba00e280400032a0b4009102ba009b
:1004a000e280400032a0b4000002eb00472bde00e7
:1004b000f507b200602ce10004003a000059eb009f
:1004c0008301e900fdff3e00040037006128e100e0
:1004d000010032000082eb000b00070011c3ba00dc
:1004e0001101ba000604e00003003a000200e00037
:1004f000e5ff3a0000000600f607b200960188000a
:1005000082007800f5ff37003159ba008301e90015
:100510000c0032002159ba008301e90008003200c2
:100520000400e00003003a00e280400032a0b40082
:10053000f5ff370011d9ba008301e900faff3a004c
:100540008100e800e180400032a0b4000000060015
:100550000040da000000fe00889fbe0080047800a2
:10056000805580000000e00004003a000e00070003
:100570000084eb000000e000080035008855800092
:100580000900e000050032000900440006000700f1
:100590000000e00001003d000084eb00080078004e
:1005a0004f04be0000000600800078000100e0005b
:1005b00003003a000000200080558800000005007c
:1005c0000080eb0002002000828f500002003e00fd
:1005d000815588000000eb000000060003f0a20037
:1005e000889fbe008a9fbe008c1f7800b300070062
:1005f000ba0033006450e1004f0032006420e10093
:100600005200320003826c0007003b000905d00055
:100610000306d000820f54000c065d000200390072
:1006200002003200890178000306780085825500b7
:1006300004003d000003fd008103fd008502ea0087
:100640008b854200840f720002003b0060001000a6
:10065000e08018006011b8000005eb007a28e10086
:100660000a00390006007800c75ddd00f707b20018
:10067000878075002d003700828171000a017800a3
:10068000610560008180d1000080d3008502e9000f
:10069000f9ff3b00060440008784480002003b004d
:1006a00060041400e0841c000988a30007003200e5
:1006b0008a81710082817100610164008904d10026
:1006c0000884d3008b05e800170037000978a300e1
:1006d00013003a000b00e000130034008b05e90022
:1006e0000804440089844c000a4474000978a3007b
:1006f0000d003a000b00e000070034008b05e90014
:100700000804440089844c0001003a000b002000da
:100710000978a300f7ff32000001eb000200370068
:10072000828171000a017800290007000cf0a700ff
:1007300001f0a000720037006420e10002003a00de
:10074000838f6c00720033000801be000200be00ff
:100750006b00370014002000a4003700f4ff2f00c6
:10076000a20037000001be003f0007000470a70090
:1007700003f0a10003f8a30013003a006509b100db
:1007800010003200090035006928e1000200350040
:1007900001002800000005000000400081804800a2
:1007a0008502e900fcff3a0000000600f88f4200d5
:1007b000050035008100d1000080d3008502e800eb
:1007c000fcff3a00000006008000eb00000005007e
:1007d00081002000618055000b003d000b002000cf
:1007e00061fe2f000100e1001d00340082817100d4
:1007f000610164008904d1000884d3000000e8008e
:10080000faff3a00710020006100640003007000ec
:10081000020060000900320061044400e0844c00e2
:100820000988a500050032008b05e8006808e10092
:1008300002003a008904d1000884d300f20f20009e
:100840000258e10005003d00c75ddd00f907b20078
:100850008980750008007800000006000bf827006a
:100860008b00780000000500c70ade00f107b20027
:10087000f50fb20008003200e1cf42000200320062
:100880000170a00024000500810f700001003200fb
:100890000408050044000500810f700002003a00c2
:1008a000140005008502e9000000400081c04800f6
:1008b000fcff3b000170a000240005000004be0006
:1008c000e9ff07000003be000405be000200be00f1
:1008d000e5ff0700844f7500000006000200be001f
:1008e0006450e100050036006420e100020036009b
:1008f0000968a30001003a000800be000160a000e2
:100900004f0678004f05be004f04be0000000600f1
:10091000f0ff2f00f1ff2700f9ff3700889fbe008e
:100920008a9fbe008c1f7800e4ff0700ebff3300b6
:1009300003866c006450e100240032006420e10072
:10094000270032006150e100220032006120e10006
:10095000210032008b854200eb07b1000134b80062
:10096000003ab8000804420089844a00013ab800fd
:100970000030b8008880400009014a0004003300bc
:100980000000400081804800020149008b05e90019
:10099000c909dd008301700001003200130020004e
:1009a000c814de004814dd004709de001200b20062
:1009b000c808de000884700085ff070001f0a10070
:1009c0000cf0a70001f0a000cdff37006120e1008e
:1009d000cfff32000801be000200be00f7ff370063
:1009e0006150e100fcff3a00c9ff3700889fbe005c
:1009f0008a9fbe00841f7800b0ff07004f00780078
:100a000011003300f0ff2f00838f6c0006003b00c5
:100a1000040565000a00a7000800370009f0a600d9
:100a20001000200008003700820f5400838f5c0004
:100a3000030039001000200001003e0000002000eb
:100a400009f0a7000000ea004f05be004f04be00f9
:100a50000000e00000000600889fbe008a9fbe00e4
:100a60008c9fbe0041a92000a25480000200e0003b
:100a70000b003a0064814000a2548800f2548800c0
:100a8000a1009800e1548800214190000204a000d8
:100a9000a2409800614190000204a000e24098004a
:100aa000670440004244de004244dd00e45480001c
:100ab0000100200009002000818454002d00200046
:100ac000110009008d04d800800678000886e8002f
:100ad0000c0646008001eb000200370013002000e6
:100ae0000b027800a44090000108a300020032002d
:100af0000a003700120a780014017800a240900022
:100b00000108a300fbff320088004200810f510062
:100b1000020039000800e00042003d009405780022
:100b20000b00a100848f5500edff3e00e18f5100c6
:100b3000eaff3a008d0f540002003600890f54007e
:100b4000140039006141b8006148b900b4ff2f00ba
:100b5000050020000000520081805a00800f5100e3
:100b6000818f590002003500640544000a003700f7
:100b7000000020003a00200000055500080545004f
:100b8000110009000985d8000980b9000005780026
:100b9000010037000c0578000a0078006efe07009f
:100ba000e10f400005003a00640544000a007800a7
:100bb00069fe0700e10f40002b003200f154800075
:100bc00080087800f1548000e481400021419000c9
:100bd000830f5000020032000204a0000100370021
:100be0000204a100a2409800640555000a054000d7
:100bf0000a087800fa54880041a92000010d780005
:100c0000f2548000a24090000104a000214198000d
:100c1000a04090000104a100214098008001eb0059
:100c2000afff3700e1548800810f51000700360004
:100c30001101be0002558800135588009408780001
:100c40000041eb00e1548000a2409800e354800092
:100c5000030a7800a44090000104a00021429800fb
:100c600064004200010037000000eb004f06be00a8
:100c70004f05be004f04be00000006000000e0006b
:100c80000800320064005000e1548000810f5000e1
:100c900001003100e0548800a04090000104a10050
:100ca0002140980000000600889fbe008a9fbe0079
:100cb0000004be000900e00007003a000000eb005d
:100cc0000800e0003600320008007800ebff070063
:100cd0000000eb00320037000800e00003003a009b
:100ce000090078005cff07002d0037006400540005
:100cf0009005780068f897000008a3000200320011
:100d000008007800ddff07000900780052ff0700a7
:100d1000800478000000eb000900e00020003200b1
:100d2000888f54001b00320069bd970009055500eb
:100d300042d5de0088855500c2ddde000a0178005c
:100d40008b0f5500010036000b0178004211dd00c9
:100d5000880078000900780014000700888f54008c
:100d60000e0031004255dd000a854400880f550011
:100d70000a0036000804550042c4de004244dd008b
:100d8000088444000055800011558000008cbe008e
:100d900002003700080078000100370009007800e1
:100da0004f05be004f04be00000006008001780021
:100db00002003700b15978000201e9000200e000aa
:080dc000fcff3a0000000600f0
:020000040000fa
:100dc8000c00fa005007980040002000e04288001c
:100dd800e0428000000040001dff0700f04288004c
:100de800e04280000000400019ff0700004388002f
:100df800f04280000000e000d6003200004380008e
:100e08000000e000d3003200f1428000010f7800ba
:100e18000143800011079800f042800001e02200a1
:100e280001087800f04280000080e800b1ec2b0057
:100e380001087800f0428000640040003130200052
:100e480001087800f042800066004000310c200064
:100e580001087800f042800090007800f00f200030
:100e68000080600020438800f04280001000780075
:100e78004800de0030438800f04280000080e8002f
:100e880090007800f00f2000008060004043880048
:100e9800f04280000080e800100078004800de0082
:100ea80050438800f04280006400400090007800c1
:100eb800f00f20000080600060438800f04280004e
:100ec80064004000100078004800de00704388008d
:100ed800f04280006600400090007800f00f20008b
:100ee8000080600080438800f00f200010438800d5
:100ef800214380001043800000806800800040008b
:100f080040892000008040001000780010438800cd
:100f1800314380001043800000806800800040005a
:100f280040892000008040001000780010438800ad
:100f3800414380001043800000806800800040002a
:100f4800408920000080400010007800104388008d
:100f580051438000104380000080680080004000fa
:100f6800408920000080400010007800104388006d
:100f780061438000104380000080680080004000ca
:100f8800408920000080400010007800104388004d
:100f9800714380001043800000806800800040009a
:100fa800408920000080400010007800104388002d
:100fb800814380001043800000806800800040006a
:100fc800408920000080400010007800104388000d
:100fd800104380008080ea00f00f2000008060004d
:100fe80010438800f04280006600400011438000f2
:100ff8004809dd00f1428000e68040009100780059
:101008008280700001087800f1428000f042800080
:10101800100078004801dd004800de000000710083
:1010280080087800f04280008080e800f04280006c
:101038000080e800100078004801dd004800de006c
:101048000000710080087800f0428000e400400051
:10105800f042800064004000100078004801dd0084
:101068004800de000000710080087800f04280002f
:10107800e6004000f0428000660040001000780062
:101088004801dd004800de0000007100800878009b
:10109800f042800066004000f1428000e680400097
:1010a8001101780001f02f00010161001343800055
:1010b800f10f2000818061008280700001087800b3
:1010c800e04280002007980010003700de00900002
:1010d8000000eb00790807001e00780090007800f7
:1010e800310798001e8fe8003e009000c20a0700f2
:1010f800400798001e009000ce009000010878007c
:101108001e0090000080e800100798002e00900054
:1011180000f0a7000000ea000000ea004f00de002f
:1011280000407800ae0090008100e9002107980097
:101138000004e000e5ff3a00de0090001000200007
:101148005e080700f1428000010f7800014380002b
:1011580011079800f0428000c6fe07000043800097
:10116800c4fe0700d04180000080fa00000006009d
:101178000c00fa005007980040002000e042880068
:10118800e04280000000400031fe0700f042880085
:10119800e0428000000040002dfe07000043880068
:1011a800f04280000000e000ea00320000438000c6
:1011b8000000e000e7003200f1428000010f7800f3
:1011c8000143800011079800f04280008000eb0086
:1011d80001087800f04280000080e8008000eb0001
:1011e80001087800f0428000640040008000eb00b5
:1011f80001087800f042800066004000f10c2000f1
:1012080001087800f042800090007800f00f20007c
:101218000080600020438800f042800010007800c1
:101228004800de0030438800f04280000080e8007b
:1012380090007800f00f2000008060004043880094
:10124800f04280000080e800100078004800de00ce
:1012580050438800f042800064004000900078000d
:10126800f00f20000080600060438800f04280009a
:1012780064004000100078004800de0070438800d9
:10128800f04280006600400090007800f00f2000d7
:101298000080600080438800f00f20001043880021
:1012a80021438000104380000080680080004000d7
:1012b800408920000080400010007800104388001a
:1012c80031438000104380000080680080004000a7
:1012d80040892000008040001000780010438800fa
:1012e8004143800010438000008068008000400077
:1012f80040892000008040001000780010438800da
:101308005143800010438000008068008000400046
:1013180040892000008040001000780010438800b9
:101328006143800010438000008068008000400016
:101338004089200000804000100078001043880099
:1013480071438000104380000080680080004000e6
:101358004089200000804000100078001043880079
:1013680081438000104380000080680080004000b6
:101378004089200000804000100078001043880059
:10138800104380008080ea00f00f20000080600099
:1013980010438800f042800066004000114380003e
:1013a8004809dd00f1428000e680400091007800a5
:1013b8008280700001087800f1428000f0428000cd
:1013c800100078004801dd004800de0000007100d0
:1013d80080087800f04280008080e800f0428000b9
:1013e8000080e800100078004801dd004800de00b9
:1013f8000000710080087800f0428000e40040009e
:10140800f042800064004000100078004801dd00d0
:101418004800de000000710080087800f04280007b
:10142800e6004000f04280006600400010007800ae
:101438004801dd004800de000000710080087800e7
:10144800f042800066004000f1428000e6804000e3
:101458001101780001f02f000101610013438000a1
:10146800f10f2000818061008280700001087800ff
:10147800e04280002007980010003700de0090004e
:101488000000eb008d0707001e0078009000780030
:10149800310798001e8fe8003e009000d60907002b
:1014a800400798001e009000ce00900001087800c8
:1014b8001e0090000080e800100798002e009000a1
:1014c80000f0a7000000ea000000ea004f00de007c
:1014d80000407800ae0090008100e90021079800e4
:1014e8000004e000e5ff3a00de0090001000200054
:1014f80072070700f1428000010f78000143800065
:1015080011079800004380000080e8001000780070
:10151800c800dd004800de0000807000b04388008d
:10152800004380006600400010007800c800dd001d
:101538004800de0000807000c0438800004380003f
:1015480010007800c800dd004800de000080700050
:10155800d0438800f0428000c6fd070000438000a9
:10156800c4fd0700d04180000080fa00000006009a
:101578000c00fa005007980040002000e042880064
:10158800e04280000000400031fd0700f042880082
:10159800e0428000000040002dfd07000043880065
:1015a800f04280000000e000e800320000438000c4
:1015b8000000e000e5003200f1428000010f7800f1
:1015c8000143800011079800f04280008000eb0082
:1015d80001087800f04280000080e800b2438000f3
:1015e800412321008100690001087800b14380008f
:1015f8004023210000806800f0438800f043800009
:101608000080ea0000448800f04280006400400046
:101618000144800001087800f04280006600400024
:10162800510c200001087800f042800090007800fa
:10163800f00f20000080600020438800f042800006
:10164800100078004800de0030438800f042800037
:101658000080e80090007800f00f20000080600013
:1016680040438800f04280000080e80010007800c5
:101678004800de0050438800f042800064004000cb
:1016880090007800f00f2000008060006043880020
:10169800f042800064004000100078004800de003e
:1016a80070438800f0428000660040009000780097
:1016b800f00f20000080600080438800f00f2000b9
:1016c8001043880021438000104380000080680098
:1016d8008000400040892000008040001000780011
:1016e8001043880031438000104380000080680068
:1016f80080004000408920000080400010007800f1
:101708001043880041438000104380000080680037
:1017180080004000408920000080400010007800d0
:101728001043880051438000104380000080680007
:1017380080004000408920000080400010007800b0
:1017480010438800614380001043800000806800d7
:101758008000400040892000008040001000780090
:1017680010438800714380001043800000806800a7
:101778008000400040892000008040001000780070
:101788001043880081438000104380000080680077
:101798008000400040892000008040001000780050
:1017a80010438800104380008080ea00f00f20007a
:1017b80000806000104388001043800010448800b7
:1017c800f042800066004000114380004809dd00b7
:1017d800f1428000e680400091007800828070002d
:1017e80001087800f1428000f04280001000780083
:1017f8004801dd004800de00000071008008780024
:10180800f04280008080e800f04280000080e8001c
:10181800100078004801dd004800de00000071007b
:1018280080087800f0428000e4004000f042800028
:1018380064004000100078004801dd004800de0028
:101848000000710080087800f0428000e600400047
:10185800f042800066004000100078004801dd007a
:101868004800de000000710080087800f042800027
:1018780066004000f1428000e680400011017800d7
:1018880001f02f000101610013438000f10f2000d7
:10189800818061008280700001087800e042800049
:1018a8002007980010003700de0090000000eb00d1
:1018b800820607001e007800900078003107980023
:1018c8001e8fe8003e009000cb08070040079800f4
:1018d8001e009000ce009000010878001e009000c5
:1018e8000080e800100798002e00900000f0a70084
:1018f8000000ea000000ea004f00de000040780027
:10190800ae0090008100e900210798000004e00083
:10191800e5ff3a00de00900010002000670607008f
:10192800f1428000010f7800014380001107980000
:10193800004380006600400010007800c800dd0009
:101948004800de0000807000e0438800f04280001c
:10195800c8fc070000438000c6fc0700d041800097
:101968000080fa00000006000c00fa0050079800fa
:1019780040002000e0428800e04280000000400073
:1019880033fc0700f0428800e0428000000040007d
:101998002ffc070000438800f04280000000e000b0
:1019a800e3003200004380000000e000e000320065
:1019b800f1428000010f7800014380001107980070
:1019c800f0428000e102210001087800f042800026
:1019d8000080e8002103210001087800f04280001f
:1019e800640040008000eb0001087800f0428000ad
:1019f80066004000110c200001087800f0428000c9
:101a080090007800f00f20000080600020438800dc
:101a1800f0428000100078004800de003043880063
:101a2800f04280000080e80090007800f00f20006d
:101a38000080600040438800f04280000080e80099
:101a4800100078004800de0050438800f042800013
:101a58006400400090007800f00f200000806000d3
:101a680060438800f0428000640040001000780065
:101a78004800de0070438800f042800066004000a5
:101a880090007800f00f20000080600080438800fc
:101a9800f00f20001043880021438000104380008d
:101aa80000806800800040004089200000804000dd
:101ab80010007800104388003143800010438000f4
:101ac80000806800800040004089200000804000bd
:101ad80010007800104388004143800010438000c4
:101ae800008068008000400040892000008040009d
:101af8001000780010438800514380001043800094
:101b0800008068008000400040892000008040007c
:101b18001000780010438800614380001043800063
:101b2800008068008000400040892000008040005c
:101b38001000780010438800714380001043800033
:101b4800008068008000400040892000008040003c
:101b58001000780010438800814380001043800003
:101b6800008068008000400040892000008040001c
:101b78001000780010438800104380008080ea003d
:101b8800f00f20000080600010438800f0428000c1
:101b980066004000114380004809dd00f1428000e2
:101ba800e68040009100780082807000010878008b
:101bb800f1428000f0428000100078004801dd000a
:101bc8004800de000000710080087800f0428000c4
:101bd8008080e800f04280000080e8001000780073
:101be8004801dd004800de00000071008008780030
:101bf800f0428000e4004000f042800064004000b1
:101c0800100078004801dd004800de000000710087
:101c180080087800f0428000e6004000f042800032
:101c280066004000100078004801dd004800de0032
:101c38000000710080087800f042800066004000d3
:101c4800f1428000e68040001101780001f02f0089
:101c58000101610013438000f10f200081806100c1
:101c68008280700001087800e04280002007980018
:101c780010003700de0090000000eb008f05070021
:101c88001e00780090007800310798001e8fe80049
:101c98003e009000d8070700400798001e009000fb
:101ca800ce009000010878001e0090000080e80037
:101cb800100798002e00900000f0a7000000ea002e
:101cc8000000ea004f00de0000407800ae009000ff
:101cd8008100e900210798000004e000e5ff3a00d0
:101ce800de0090001000200074050700f14280001b
:101cf800010f78000143800011079800004380001d
:101d080010007800c800dd004800de000080700088
:101d1800b0428800004380000080e800100078008e
:101d2800c800dd004800de0000807000c042880066
:101d3800f0428000cffb070000438000cdfb070086
:101d4800d04180000080fa00000006000c00fa0074
:101d58005007980040002000e0428800e0428000e0
:101d6800000040003afb0700f0428800e042800093
:101d78000000400036fb070000438800f042800066
:101d88000000e000e1003200004380000000e000b5
:101d9800de003200f1428000010f7800014380002c
:101da80011079800f04280008000eb0001087800dd
:101db800f04280000080e8005155250001087800b5
:101dc800f0428000640040008000eb0001087800c9
:101dd800f042800066004000010d200001087800f4
:101de800f042800090007800f00f20000080600032
:101df80020438800f0428000100078004800de0090
:101e080030438800f04280000080e80090007800ad
:101e1800f00f20000080600040438800f0428000fe
:101e28000080e800100078004800de005043880079
:101e3800f04280006400400090007800f00f20001d
:101e48000080600060438800f04280006400400029
:101e5800100078004800de0070438800f0428000df
:101e68006600400090007800f00f200000806000bd
:101e780080438800f00f2000104388002143800031
:101e880010438000008068008000400040892000e6
:101e98000080400010007800104388003143800023
:101ea80010438000008068008000400040892000c6
:101eb80000804000100078001043880041438000f3
:101ec80010438000008068008000400040892000a6
:101ed80000804000100078001043880051438000c3
:101ee8001043800000806800800040004089200086
:101ef8000080400010007800104388006143800093
:101f08001043800000806800800040004089200065
:101f18000080400010007800104388007143800062
:101f28001043800000806800800040004089200045
:101f38000080400010007800104388008143800032
:101f48001043800000806800800040004089200025
:101f58000080400010007800104388001043800083
:101f68000080ea0010438800f042800066004000cc
:101f7800114380004809dd00f1428000e6804000fe
:101f8800910078008280700001087800f14280009a
:101f9800f0428000100078004801dd004800de00b3
:101fa8000000710080087800f04280008080e8001e
:101fb800f04280000080e800100078004801dd0051
:101fc8004800de000000710080087800f0428000c0
:101fd800e4004000f04280006400400010007800f7
:101fe8004801dd004800de0000007100800878002c
:101ff800f0428000e6004000f042800066004000a9
:10200800100078004801dd004800de000000710083
:1020180080087800f042800066004000f1428000ad
:10202800e68040001101780001f02f0001016100f5
:1020380013438000f10f20008180610082807000ce
:1020480001087800e042800020079800100037005f
:10205800de0090000000eb00980407001e007800e6
:1020680090007800310798001e8fe8003e0090002d
:10207800e1060700400798001e009000ce0090007f
:10208800010878001e0090000080e8001007980002
:102098002e00900000f0a7000000ea000000ea000f
:1020a8004f00de0000407800ae0090008100e9009b
:1020b800210798000004e000e5ff3a00de009000e8
:1020c800100020007d040700f1428000010f780015
:1020d8000143800011079800004380001000780039
:1020e800c800dd004800de000080700090438800d2
:1020f800004380006600400010007800c800dd0042
:102108004800de0000807000a0438800f042800094
:10211800d8fa070000438000d6fa0700d0418000b3
:102128000080fa00000006000e00fa006007980020
:1021380040002000e04288006e009000e10f50004f
:1021480003003a0020002000000f7800020037004a
:102158000000eb00000f7800e04280000000400023
:102168003bfa0700f0428800e0428000000040008f
:1021780037fa070000438800f04280000000e000c2
:1021880025013200004380000000e00022013200f7
:10219800f142800011079800014380002107980050
:1021a800f04280008000eb0001087800f0428000d7
:1021b8000080e8005155250001087800f0428000b1
:1021c800640040008000eb0001087800f0428000c5
:1021d80066004000010d200001087800f0428000f0
:1021e80090007800f00f20000080600020438800f5
:1021f800f0428000100078004800de00304388007c
:10220800f04280000080e80090007800f00f200085
:102218000080600040438800f04280000080e800b1
:10222800100078004800de0050438800f04280002b
:102238006400400090007800f00f200000806000eb
:1022480060438800f042800064004000100078007d
:102258004800de0070438800f042800066004000bd
:1022680090007800f00f2000008060008043880014
:10227800f00f2000104388002143800010438000a5
:1022880000806800800040004089200000804000f5
:10229800100078001043880031438000104380000c
:1022a80000806800800040004089200000804000d5
:1022b80010007800104388004143800010438000dc
:1022c80000806800800040004089200000804000b5
:1022d80010007800104388005143800010438000ac
:1022e8000080680080004000408920000080400095
:1022f800100078001043880061438000104380007c
:102308000080680080004000408920000080400074
:10231800100078001043880071438000104380004b
:102328000080680080004000408920000080400054
:10233800100078001043880081438000104380001b
:102348000080680080004000408920000080400034
:102358001000780010438800104380000080ea00d5
:1023680010438800f042800066004000114380005e
:102378004809dd00f1428000e680400091007800c5
:102388008280700001087800f1428000f0428000ed
:10239800100078004801dd004800de0000007100f0
:1023a80080087800f04280008080e800f0428000d9
:1023b8000080e800100078004801dd004800de00d9
:1023c8000000710080087800f0428000e4004000be
:1023d800f042800064004000100078004801dd00f1
:1023e8004800de000000710080087800f04280009c
:1023f800e6004000f04280006600400010007800cf
:102408004801dd004800de00000071008008780007
:10241800f042800066004000f1428000e680400003
:102428001101780001f02f000101610013438000c1
:10243800f10f20008180610082807000010878001f
:10244800e04280003007980012003700ee0090004c
:102458000000eb00990307001e0090009000780030
:10246800410798001e0090000080e80010079800bf
:102478004e009000e0050700500798002e009000dd
:10248800de009000010878002e0090000080e8002f
:10249800200798003e00900000f0a7000000ea0026
:1024a8000000ea004f00de0000407800be00900007
:1024b8008100e900310798000004e000e3ff3a00da
:1024c800ee009000100020007c030700f14280001d
:1024d8001107980001438000210798002e00900002
:1024e800100078004600de00e300600010002000c5
:1024f800e18f5000010036000000eb0030428800f8
:102508002e0090006600400010007800ce00de002b
:102518001e007800808f50003f003a002e00900087
:10252800100078004600de0063006000e10f5000f4
:1025380037003600ca82a8001e007800e20f50005b
:1025480020003a000043800010007800c800de0038
:1025580000438000100078007f0060004800dd0024
:1025680001007000e0418800004380000080e8001e
:1025780010007800c800de00004380000080e800fa
:10258800100078007f0060004800dd000100700046
:10259800f04188000043800064004000100078008b
:1025a800c800de000043800064004000100078008e
:1025b8007f0060004800dd0001007000d041880005
:1025c800150037001e0078000000e00012003a00f5
:1025d8000043800010007800c800de00004380003f
:1025e80010017800f0032000000061004800dd00c1
:1025f8000100700000428800004380006400400031
:10260800100078004800de00c04188000200370052
:102618006000b800ca050700f042800095f907007d
:102628000043800093f90700d04180000080fa0041
:10263800000006000c00fa00500798004000200037
:10264800e0428800e04280000000400000f90700f6
:10265800f0428800e042800000004000fcf80700db
:1026680000438800f04280000000e000d6003200fd
:10267800004380000000e000d3003200f1428000f7
:10268800010f78000143800011079800f042800094
:102698008000eb0001087800f04280000080e8002c
:1026a8008000eb0001087800f042800064004000e0
:1026b8008000eb0001087800f042800066004000ce
:1026c800f10e200001087800f042800090007800a8
:1026d800f00f20000080600020438800f042800056
:1026e800100078004800de0030438800f042800087
:1026f8000080e80090007800f00f20000080600063
:1027080040438800f04280000080e8001000780014
:102718004800de0050438800f0428000640040001a
:1027280090007800f00f200000806000604388006f
:10273800f042800064004000100078004800de008d
:1027480070438800f04280006600400090007800e6
:10275800f00f20000080600080438800f00f200008
:1027680010438800214380001043800000806800e7
:102778008000400040892000008040001000780060
:1027880010438800314380001043800000806800b7
:102798008000400040892000008040001000780040
:1027a8001043880041438000104380000080680087
:1027b8008000400040892000008040001000780020
:1027c8001043880051438000104380000080680057
:1027d8008000400040892000008040001000780000
:1027e8001043880061438000104380000080680027
:1027f80080004000408920000080400010007800e0
:1028080010438800714380001043800000806800f6
:1028180080004000408920000080400010007800bf
:1028280010438800814380001043800000806800c6
:10283800800040004089200000804000100078009f
:1028480010438800104380008080ea00f00f2000c9
:102858000080600010438800f0428000660040005d
:10286800114380004809dd00f1428000e680400005
:10287800910078008280700001087800f1428000a1
:10288800f0428000100078004801dd004800de00ba
:102898000000710080087800f04280008080e80025
:1028a800f04280000080e800100078004801dd0058
:1028b8004800de000000710080087800f0428000c7
:1028c800e4004000f04280006400400010007800fe
:1028d8004801dd004800de00000071008008780033
:1028e800f0428000e6004000f042800066004000b0
:1028f800100078004801dd004800de00000071008b
:1029080080087800f042800066004000f1428000b4
:10291800e68040001101780001f02f0001016100fc
:1029280013438000f10f20008180610082807000d5
:1029380001087800e0428000200798001000370066
:10294800de0090000000eb005c0207001e0078002b
:1029580090007800310798001e8fe8003e00900034
:10296800a5040700400798001e009000ce009000c4
:10297800010878001e0090000080e8001007980009
:102988002e00900000f0a7000000ea000000ea0016
:102998004f00de0000407800ae0090008100e900a2
:1029a800210798000004e000e5ff3a00de009000ef
:1029b8001000200041020700f1428000010f78005a
:1029c8000143800011079800f0428000a9f8070031
:1029d80000438000a7f80700d04180000080fa007b
:1029e800000006000e00fa005007980061079800e2
:1029f80040002000e0428800e042800000004000e3
:102a080013f80700f0428800e04280000000400010
:102a18000ff8070000438800f04280000000e00043
:102a28002c013200004380000000e0002901320040
:102a3800f1428000010f78000143800011079800df
:102a4800f04280008000eb0001087800f04280002e
:102a58000080e8008080eb0001087800f0428000e8
:102a6800640040008000eb00010878006e009000d0
:102a7800e20f500005003a00f04280006600400076
:102a8800310920000108780004003700f042800076
:102a9800660040003101200001087800f042800003
:102aa80090007800f00f200000806000204388002c
:102ab800f0428000100078004800de0030438800b3
:102ac800f04280000080e80090007800f00f2000bd
:102ad8000080600040438800f04280000080e800e9
:102ae800100078004800de0050438800f042800063
:102af8006400400090007800f00f20000080600023
:102b080060438800f04280006400400010007800b4
:102b18004800de0070438800f042800066004000f4
:102b280090007800f00f200000806000804388004b
:102b3800f00f2000104388002143800010438000dc
:102b4800008068008000400040892000008040002c
:102b58001000780010438800314380001043800043
:102b6800008068008000400040892000008040000c
:102b78001000780010438800414380001043800013
:102b880000806800800040004089200000804000ec
:102b980010007800104388005143800010438000e3
:102ba80000806800800040004089200000804000cc
:102bb80010007800104388006143800010438000b3
:102bc80000806800800040004089200000804000ac
:102bd8001000780010438800714380001043800083
:102be800008068008000400040892000008040008c
:102bf8001000780010438800814380001043800053
:102c0800008068008000400040892000008040006b
:102c18001000780010438800104380008080ea008c
:102c2800f00f20000080600010438800f042800010
:102c380066004000114380004809dd00f142800031
:102c4800e6804000910078008280700001087800da
:102c5800f1428000f0428000100078004801dd0059
:102c68004800de000000710080087800f042800013
:102c78008080e800f04280000080e80010007800c2
:102c88004801dd004800de0000007100800878007f
:102c9800f0428000e4004000f04280006400400000
:102ca800100078004801dd004800de0000007100d7
:102cb80080087800f0428000e6004000f042800082
:102cc80066004000100078004801dd004800de0082
:102cd8000000710080087800f04280006600400023
:102ce800f1428000e68040001101780001f02f00d9
:102cf8000101610013438000f10f20008180610011
:102d08008280700001087800e04280002007980067
:102d180010003700de0090000000eb00670107009c
:102d28001e00780090007800310798001e8fe80098
:102d38003e009000b0030700400798001e00900076
:102d4800ce009000010878001e0090000080e80086
:102d5800100798002e00900000f0a7000000ea007d
:102d68000000ea004f00de0000407800ae0090004e
:102d78008100e900210798000004e000e5ff3a001f
:102d8800de009000100020004c010700f142800096
:102d9800010f780001438000110798001e00900081
:102da800100078004600de00e300600010002000fc
:102db800e18f5000010036000000eb00304288002f
:102dc8001e0090006600400010007800ce00de0073
:102dd8006e009000808f50003e003a001e00900068
:102de800100078004600de0063006000e10f50002c
:102df800360036006e009000e20f500020003a00c6
:102e08000043800010007800c800de000043800006
:102e1800100078007f0060004800dd0001007000ad
:102e2800e0418800004380000080e800100078003e
:102e3800c800de00004380000080e8001000780031
:102e48007f0060004800dd0001007000f04188004c
:102e5800004380006400400010007800c800de00d5
:102e68000043800064004000100078007f0060008c
:102e78004800dd0001007000d041880015003700cf
:102e88006e0090000000e00012003a00004380004d
:102e980010007800c800de000043800010017800b0
:102ea800f0032000000061004800dd000100700010
:102eb8000042880000438000640040001000780051
:102ec8004800de00c0418800020037006000b800fa
:102ed8009b030700f042800066f70700004380006c
:102ee80064f707000080fa00000006000e00fa00f0
:102ef800500798006107980040002000e0428800d1
:102f0800e042800000004000d1f60700f04288004f
:102f1800e042800000004000cdf607000043880032
:102f2800f04280000000e000de0032000043800034
:102f38000000e000db003200f1428000010f780061
:102f48000143800011079800f04280008000eb00e8
:102f580001087800f04280000080e8008080eb00e3
:102f680001087800f0428000640040008000eb0017
:102f7800010878006e009000e20f500005003a004a
:102f8800f042800066004000310920000108780006
:102f980004003700f0428000660040003101200044
:102fa80001087800f042800090007800f00f2000bf
:102fb8000080600020438800f04280001000780004
:102fc8004800de0030438800f04280000080e800be
:102fd80090007800f00f20000080600040438800d7
:102fe800f04280000080e800100078004800de0011
:102ff80050438800f0428000640040009000780050
:10300800f00f20000080600060438800f0428000dc
:1030180064004000100078004800de00704388001b
:10302800f04280006600400090007800f00f200019
:103038000080600080438800f00f20001043880063
:103048002143800010438000008068008000400019
:10305800408920000080400010007800104388005c
:1030680031438000104380000080680080004000e9
:10307800408920000080400010007800104388003c
:1030880041438000104380000080680080004000b9
:10309800408920000080400010007800104388001c
:1030a8005143800010438000008068008000400089
:1030b80040892000008040001000780010438800fc
:1030c8006143800010438000008068008000400059
:1030d80040892000008040001000780010438800dc
:1030e8007143800010438000008068008000400029
:1030f80040892000008040001000780010438800bc
:1031080081438000104380000080680080004000f8
:10311800408920000080400010007800104388009b
:10312800104380008080ea00f00f200000806000db
:1031380010438800f0428000660040001143800080
:103148004809dd00f1428000e680400091007800e7
:103158008280700001087800f1428000f04280000f
:10316800100078004801dd004800de000000710012
:1031780080087800f04280008080e800f0428000fb
:103188000080e800100078004801dd004800de00fb
:103198000000710080087800f0428000e4004000e0
:1031a800f042800064004000100078004801dd0013
:1031b8004800de000000710080087800f0428000be
:1031c800e6004000f04280006600400010007800f1
:1031d8004801dd004800de0000007100800878002a
:1031e800f042800066004000f1428000e680400026
:1031f8001101780001f02f000101610013438000e4
:10320800f10f200081806100828070000108780041
:10321800e04280002007980010003700de00900090
:103228000000eb00250007001e00780090007800e1
:10323800310798001e8fe8003e0090006e020700dc
:10324800400798001e009000ce009000010878000a
:103258001e0090000080e800100798002e009000e3
:1032680000f0a7000000ea000000ea004f00de00be
:1032780000407800ae0090008100e9002107980026
:103288000004e000e5ff3a00de0090001000200096
:103298000a000700f1428000010f78000143800016
:1032a80011079800f042800072f607000043800082
:1032b80070f607000080fa00000006000400fa001b
:1032c800000f7800110798001e009000e10f5000d1
:1032d8000c003a001e007800004078006140600051
:1032e8000080fb00610060004700dd00621680007e
:1032f800f1f72f008100610001007000601688005e
:103308000b0037001e007800004078006140600024
:103318000080fb00610060004b00dd006216800049
:10332800f17f2f00810061000100700060168800a5
:103338000080fa00000006000000fa009002200059
:10334800303a8800203a80000060a1000070a10097
:10335800203a8800213a800000fe2f00008060009b
:10336800203a88001200200080072000a1092000d0
:1033780033742000804978008149780082497800b8
:103388001200200060042000710520002374200032
:10339800804978008149780082497800000000005f
:1033a800113a8000000027008080600000002100a2
:1033b800808f5000faff3a0000000000113a8000a8
:1033c80000022000008060000000e000fbff3200e7
:1033d8000080fa0000000600809fbe000000fa008e
:1033e8008460a90010002000404088000040800050
:1033f8001140800061004000e080480000408800e3
:10340800114088000080fa004f00be00004006000e
:103418000000fa000021ef00804480009144800001
:1034280002002000b33124003af507000200200012
:1034380003f8230067f40700c8f4070000007800c9
:103448001008880000032800200888008460a9006c
:103458009460a8000080fa00000006000000fa004e
:103468002c23ef003000200000168800000d2000fb
:1034780030168800c422ef00f004230040168800ac
:103488000001200070168800cc22ef00f03e2000da
:1034980080168800d622ef00d422ef000080fa00c0
:1034a800000006000000fa00a136800000fe2f0090
:1034b800008060007000b300a036880041358000ad
:1034c800f00f2e00808060000030210001007000a5
:1034d800403588004135800000fe2f0000806000e4
:1034e8005001b300403588004022ef004822ef0029
:1034f8008540a9009540a9004222ef004382a90017
:103508004362a9004342a9004322a9004302a9003b
:1035180042c2a90042a2a900101280000020a10006
:103528000030a0000040a000101288001012800097
:103538000000a0000010a1001012880040c2a900dd
:1035480041e2a8008540a9009540a80040058000f8
:103558000080a1000090a00000a0a0004005880005
:103568000080fa00000006000000fa00001c80003d
:103578000040a1000050a100001c8800001c800031
:103588000000a1000010a000001c880081a3a80072
:1035980081c3a900e023ef0020002000501c880010
:1035a800a0002000101c880080242000401c8800f7
:1035b800a07f2000201c8800407f2000301c88004d
:1035c8008480a9009480a80081e3a8000080fa0004
:1035d800000006000000fa00601c80000040a10006
:1035e8000050a100601c8800601c80000000a10041
:1035f8000010a000601c88008da3a9008dc3a9003d
:1036080020002000b01c8800a0002000701c88004a
:1036180080242000a01c8800e07e2000801c8800f8
:10362800807e2000901c880085c0a90095c0a80055
:103638008de3a8000080fa00000006000200fa00ee
:103648000000eb00000f7800060037001e0078002d
:1036580080004000a07f2200008040001e08780003
:103668001e0fe8001e007800e20f5000f7ff36003a
:103678000000eb00000f7800080037001e017800fa
:10368800f00041001e00780000014000407f220049
:1036980000004100010878001e0fe8001e007800b5
:1036a800e20f5000f5ff36000000eb00000f780035
:1036b8000d0037001e00780080004000e07e2200e8
:1036c80000804000d1ee2d00010878001e0078002f
:1036d80080004000807e220000804000d1ee2d0056
:1036e800010878001e0fe8001e007800e20f500065
:1036f800f0ff36000080fa00000006000000fa0023
:103708008540a9000080fa00004006003600f80055
:10371800809fbe00829fbe00849fbe00869fbe0021
:103728000000fa00704480000000e00003003a0046
:10373800a07f22003c01070002003700407f2200e2
:1037480039010700704480000000a200704488001e
:103758008480a9000080fa004f03be004f02be001b
:103768004f01be004f00be003600f90000400600c1
:103778003600f800809fbe00829fbe00849fbe0076
:10378800869fbe000000fa00604480000000e00050
:1037980003003a00e07e22003b01070002003700e8
:1037a800807e220038010700604480000000a200eb
:1037b8006044880085c0a90010002000a04288004d
:1037c8000080fa004f03be004f02be004f01be004a
:1037d8004f00be003600f900004006000600fa005f
:1037e800889fbe0010079800210798001900200044
:1037f8006011b8001e009000ae009000d5f30700dd
:103808000000e00001003c008004eb0018002000ec
:103818006011b8001e009000ae009000cbf30700c6
:103828000000e000010035000004eb00088f5400a0
:10383800040007001e0078004f04be000080fa0054
:10384800000006000200fa000000eb00000f7800fc
:10385800010037001e0fe8001e007800ee0f500030
:0c386800fcff34000080fa0000000600a5
:020000040000fa
:10387400fa2700000600000000000000f427000002
:103884000600000000000000ee2700000600000013
:1038940000000000e827000006000000000000000f
:1038a4008c0800000400000000000000a40a0000ce
:1038b4000c0000000000000000080000560000009a
:1038c4000000000090080000040000000200000056
:1038d400000080003f000000840800000800000091
:1038e4000000000094080000000200000200000034
:1038f40000002f00005e00007100bc000093000077
:10390400e200cd0000570000780009000026000006
:10391400eb00c40000b500009a00ae000081000076
:10392400f000df00001200003d004c0000630000c6
:10393400f900d60000a7000088004500006a0000d6
:103944001b003400007300005c002d000002000026
:10395400cf00e00000910000be002400000b000036
:103964007a00550000980000b700c60000e9000086
:10397400dd00f20000830000ac006100004e000096
:103984003f001000008a0000a500d40000fb0000e6
:1039940036001900006800004700e60000c9000076
:1039a400b8009700005a000075000400002b0000c6
:1039b400b1009e0000ef0000c0000d0000220000d6
:1039c40053007c0000480000670016000039000026
:1039d400f400db0000aa000085001f000030000096
:1039e40041006e0000a300008c00fd0000d2000026
:1039f4009500ba0000cb0000e40029000006000096
:103a04007700580000c20000ed009c0000b30000e5
:103a14007e005100002000000f003b000014000055
:103a240065004a0000870000a800d90000f60000e5
:103a34006c004300003200001d00d00000ff0000b5
:103a44008e00a10000e30000cc00db000092000027
:103a54005f007000000100002e00b400009b000015
:103a6400ea00c500000800002700560000790000a5
:103a74004d006200001300003c00f10000de000075
:103a8400af008000001a000035004400006b000005
:103a9400a600890000f80000d700900000bf0000d5
:103aa400ce00e100002c000003007200005d000065
:103ab400c700e80000990000b6007b000054000035
:103ac40025000a00003e000011006000004f0000c5
:103ad4008200ad0000dc0000f30069000046000035
:103ae4003700180000d50000fa008b0000a4000085
:103af40005002a00005b00007400b9000096000075
:103b0400e700c800005200007d000c000023000004
:103b1400ee00c10000b000009f00ab000084000074
:103b2400f500da00001700003800490000660000c4
:103b3400fc00d30000a200008d004000006f0000d4
:103b44001e00310000760000590028000007000024
:103b5400ca00e50000940000bb002100000e000034
:103b64007f005000009d0000b200c30000ec000084
:103b7400d800f70000860000a9006400004b000094
:103b84003a001500008f0000a000d10000fe0000e4
:103b940033001c00006d00004200000056080000c5
:103ba4002e00000000000000940a00001000000035
:103bb40000000000b00a0000020000000000000045
:043bc400ac1e8000b3
:020000040000fa
:103bc8000400fa001007980040128000000f7800e7
:103bd8005028ef001e0090004012880000000000ee
:103be800804280000000e000fdff34001e007800e5
:103bf8000080fa00000006000200fa00000f7800ba
:103c08005028ef001e0078004012880000000000d5
:103c1800804280000000e000fdff34004012800078
:103c28000080fa00000006000600fa00200798004d
:103c380030002000100798000000eb00000f78000b
:103c48000b0037001e00780000004000ae00900016
:103c5800808040001e00780000014000a0aa2000db
:103c68000000410010007800800878001e0fe8006e
:103c78001e0090009e007800808f5000f1ff3500f4
:103c88000080fa00000006000600fa0020079800ed
:103c980030002000100798000000eb00000f7800ab
:103ca800150037001e00780000004000ae009000ac
:103cb80000804000900078001e007800000140005d
:103cc80040aa200000004100010878001e0078008a
:103cd8008000400040aa200000804000900078004a
:103ce8001e00780000014000a0aa2000000041004a
:103cf800010878001e0fe8001e0090009e00780062
:103d0800808f5000e7ff35000080fa0000000600b1
:103d18000000fa0088fd0700d0fd0700bcfd070081
:103d2800e0fd070010fe07002afe0700cc82a8006d
:103d3800c482a800c522a800c502a800ffff37005a
:103d48000400fa00008fbe000080fa0000000600a0
:020000040000fa
:043d58000000000067
:020000040000fa
:0200000401f009
:04000c00f8ff0000f9
:020000040000fa
:0200000401f009
:040010007fff00006e
:020000040000fa
:0200000401f009
:040014007fff00006a
:020000040000fa
:0200000401f009
:04001c00deff000003
:00000001FF
