:020000040000fa
:080000000002040000000000f2
:020000040000fa
:04000800a80200004a
:020000040000fa
:04000c00a802000046
:020000040000fa
:04001000a802000042
:020000040000fa
:04001400a80200003e
:020000040000fa
:04001800a80200003a
:020000040000fa
:04001c00a802000036
:020000040000fa
:04002000a802000032
:020000040000fa
:04002400a80200002e
:020000040000fa
:04002800a80200002a
:020000040000fa
:04002c00a802000026
:020000040000fa
:04003000a802000022
:020000040000fa
:040034008a1c000022
:020000040000fa
:04003800b41e0000f2
:020000040000fa
:04003c00a802000016
:020000040000fa
:04004000a802000012
:020000040000fa
:04004400241d000077
:020000040000fa
:04004800a80200000a
:020000040000fa
:04004c00a802000006
:020000040000fa
:04005000881e000006
:020000040000fa
:04005400a8020000fe
:020000040000fa
:04005800a8020000fa
:020000040000fa
:04005c00a8020000f6
:020000040000fa
:04006000ee1e000090
:020000040000fa
:04006400a8020000ee
:020000040000fa
:04006800a8020000ea
:020000040000fa
:04006c00a8020000e6
:020000040000fa
:04007000a8020000e2
:020000040000fa
:04007400a8020000de
:020000040000fa
:04007800a8020000da
:020000040000fa
:04007c00a8020000d6
:020000040000fa
:04008000a8020000d2
:020000040000fa
:04008400a8020000ce
:020000040000fa
:0400880088200000cc
:020000040000fa
:04008c00a8020000c6
:020000040000fa
:04009000a8020000c2
:020000040000fa
:04009400a8020000be
:020000040000fa
:04009800a8020000ba
:020000040000fa
:04009c00a8020000b6
:020000040000fa
:0400a000a8020000b2
:020000040000fa
:0400a400a8020000ae
:020000040000fa
:0400a800a8020000aa
:020000040000fa
:0400ac009e1e000094
:020000040000fa
:0400b000a8020000a2
:020000040000fa
:0400b400a80200009e
:020000040000fa
:0400b800a80200009a
:020000040000fa
:0400bc00a802000096
:020000040000fa
:0400c000a802000092
:020000040000fa
:0400c400a80200008e
:020000040000fa
:0400c800a80200008a
:020000040000fa
:0400cc00a802000086
:020000040000fa
:0400d000a802000082
:020000040000fa
:0400d400a80200007e
:020000040000fa
:0400d800a80200007a
:020000040000fa
:0400dc00a802000076
:020000040000fa
:0400e000a802000072
:020000040000fa
:0400e400a80200006e
:020000040000fa
:0400e800a80200006a
:020000040000fa
:0400ec00a802000066
:020000040000fa
:0400f000a802000062
:020000040000fa
:0400f400a80200005e
:020000040000fa
:0400f800a80200005a
:020000040000fa
:0400fc00a802000056
:020000040000fa
:04010000a802000051
:020000040000fa
:04010400a80200004d
:020000040000fa
:04010800a802000049
:020000040000fa
:04010c00a802000045
:020000040000fa
:04011000a802000041
:020000040000fa
:04011400a80200003d
:020000040000fa
:04011800a802000039
:020000040000fa
:04011c00a802000035
:020000040000fa
:04012000a802000031
:020000040000fa
:04012400a80200002d
:020000040000fa
:04012800a802000029
:020000040000fa
:04012c00a802000025
:020000040000fa
:04013000a802000021
:020000040000fa
:04013400a80200001d
:020000040000fa
:04013800a802000019
:020000040000fa
:04013c00a802000015
:020000040000fa
:04014000a802000011
:020000040000fa
:04014400a80200000d
:020000040000fa
:04014800a802000009
:020000040000fa
:04014c00a802000005
:020000040000fa
:04015000a802000001
:020000040000fa
:04015400a8020000fd
:020000040000fa
:04015800a8020000f9
:020000040000fa
:04015c00a8020000f5
:020000040000fa
:04016000a8020000f1
:020000040000fa
:04016400a8020000ed
:020000040000fa
:04020800a802000048
:020000040000fa
:04020c00a802000044
:020000040000fa
:04021000a802000040
:020000040000fa
:04021400a80200003c
:020000040000fa
:04021800a802000038
:020000040000fa
:04021c00a802000034
:020000040000fa
:04022000a802000030
:020000040000fa
:04022400a80200002c
:020000040000fa
:04022800a802000028
:020000040000fa
:04022c00a802000024
:020000040000fa
:04023000a802000020
:020000040000fa
:04023400a80200001c
:020000040000fa
:04023800a802000018
:020000040000fa
:04023c00a802000014
:020000040000fa
:04024000a802000010
:020000040000fa
:04024400a80200000c
:020000040000fa
:04024800a802000008
:020000040000fa
:04024c00a802000004
:020000040000fa
:04025000a802000000
:020000040000fa
:04025400a8020000fc
:020000040000fa
:04025800a8020000f8
:020000040000fa
:04025c00a8020000f4
:020000040000fa
:04026000a8020000f0
:020000040000fa
:04026400a8020000ec
:020000040000fa
:04026800a8020000e8
:020000040000fa
:04026c00a8020000e4
:020000040000fa
:04027000a8020000e0
:020000040000fa
:04027400a8020000dc
:020000040000fa
:04027800a8020000d8
:020000040000fa
:04027c00a8020000d4
:020000040000fa
:04028000a8020000d0
:020000040000fa
:04028400a8020000cc
:020000040000fa
:04028800a8020000c8
:020000040000fa
:04028c00a8020000c4
:020000040000fa
:04029000a8020000c0
:020000040000fa
:04029400a8020000bc
:020000040000fa
:04029800a8020000b8
:020000040000fa
:04029c00a8020000b4
:020000040000fa
:0402a000a8020000b0
:020000040000fa
:0402a400a8020000ac
:020000040000fa
:0402a800a8020000a8
:020000040000fa
:0402ac00a8020000a4
:020000040000fa
:0402b000a8020000a0
:020000040000fa
:0402b400a80200009c
:020000040000fa
:0402b800a802000098
:020000040000fa
:0402bc00a802000094
:020000040000fa
:0402c000a802000090
:020000040000fa
:0402c400a80200008c
:020000040000fa
:0402c800a802000088
:020000040000fa
:0402cc00a802000084
:020000040000fa
:0402d000a802000080
:020000040000fa
:0402d400a80200007c
:020000040000fa
:0402d800a802000078
:020000040000fa
:0402dc00a802000074
:020000040000fa
:0402e000a802000070
:020000040000fa
:0402e400a80200006c
:020000040000fa
:0402e800a802000068
:020000040000fa
:0402ec00a802000064
:020000040000fa
:0402f000a802000060
:020000040000fa
:0402f400a80200005c
:020000040000fa
:0402f800a802000058
:020000040000fa
:0402fc00a802000054
:020000040000fa
:04030000a80200004f
:020000040000fa
:04030400a80200004b
:020000040000fa
:04030800a802000047
:020000040000fa
:04030c00a802000043
:020000040000fa
:04031000a80200003f
:020000040000fa
:04031400a80200003b
:020000040000fa
:04031800a802000037
:020000040000fa
:04031c00a802000033
:020000040000fa
:04032000a80200002f
:020000040000fa
:04032400a80200002b
:020000040000fa
:04032800a802000027
:020000040000fa
:04032c00a802000023
:020000040000fa
:04033000a80200001f
:020000040000fa
:04033400a80200001b
:020000040000fa
:04033800a802000017
:020000040000fa
:04033c00a802000013
:020000040000fa
:04034000a80200000f
:020000040000fa
:04034400a80200000b
:020000040000fa
:04034800a802000007
:020000040000fa
:04034c00a802000003
:020000040000fa
:04035000a8020000ff
:020000040000fa
:04035400a8020000fb
:020000040000fa
:04035800a8020000f7
:020000040000fa
:04035c00a8020000f3
:020000040000fa
:04036000a8020000ef
:020000040000fa
:04036400a8020000eb
:020000040000fa
:10040000afa920000e4f22000e018800000000005e
:10041000000020000000e000020032000001200087
:10042000200288000c000700205822000100200054
:1004300011000700000020000000e0000200320070
:100440000000020000000000582802000000000028
:100450000040da000000fe004440a9000000200037
:100460000000e0000300320000002000a00188002e
:100470004440a80000000600910188008000780038
:100480000000eb0015003700e280400032a0b4000d
:100490009101ba00e280400032a0b4009102ba009b
:1004a000e280400032a0b4000002eb00472bde00e7
:1004b000f507b200602ce10004003a000059eb009f
:1004c0008301e900fdff3e00040037006128e100e0
:1004d000010032000082eb000b00070011c3ba00dc
:1004e0001101ba000604e00003003a000200e00037
:1004f000e5ff3a0000000600f607b200960188000a
:1005000082007800f5ff37003159ba008301e90015
:100510000c0032002159ba008301e90008003200c2
:100520000400e00003003a00e280400032a0b40082
:10053000f5ff370011d9ba008301e900faff3a004c
:100540008100e800e180400032a0b4000000060015
:100550000040da000000fe00889fbe0080047800a2
:10056000603f81000000e00004003a000e00070038
:100570000084eb000000e00008003500683f8100c7
:100580000900e000050032000900440006000700f1
:100590000000e00001003d000084eb00080078004e
:1005a0004f04be0000000600800078000100e0005b
:1005b00003003a0000002000603f890000000500b1
:1005c0000080eb0002002000828f500002003e00fd
:1005d000613f89000000eb000000060003f0a2006c
:1005e000889fbe008a9fbe008c1f78008001070094
:1005f000870133006450e1004f0032006420e100c5
:100600005200320003826c0007003b000905d00055
:100610000306d000820f54000c065d000200390072
:1006200002003200890178000306780085825500b7
:1006300004003d000003fd008103fd008502ea0087
:100640008b854200840f720002003b0060001000a6
:10065000e08018006011b8000005eb007a28e10086
:100660000a00390006007800c75ddd00f707b20018
:10067000878075002d003700828171000a017800a3
:10068000610560008180d1000080d3008502e9000f
:10069000f9ff3b00060440008784480002003b004d
:1006a00060041400e0841c000988a30007003200e5
:1006b0008a81710082817100610164008904d10026
:1006c0000884d3008b05e800170037000978a300e1
:1006d00013003a000b00e000130034008b05e90022
:1006e0000804440089844c000a4474000978a3007b
:1006f0000d003a000b00e000070034008b05e90014
:100700000804440089844c0001003a000b002000da
:100710000978a300f7ff32000001eb000200370068
:10072000828171000a017800f60007000cf0a70032
:1007300001f0a0003f0137006420e10002003a0010
:10074000838f6c003f0133000801be000200be0031
:1007500038013700889fbe008a9fbe008c9fbe0074
:100760000004be000d0107000800be0089067800e5
:100770006420e10008003900040032000160a0009c
:1007800012022000c24488005300370091fc23006d
:10079000b0fd20004e0037000006eb0009f0a1007c
:1007a00003f82300020020000800be0090000700ac
:1007b0000600340001f82300000020000801be00fc
:1007c000490007000004be002c0020000800be0005
:1007d00093e82300320a230085000700120034004a
:1007e0000801be00d1fd2300703d2b007cff0700f7
:1007f0000005be00b3f32300f27a26000800be0015
:100800001301070003f823000200200073ff070014
:100810000801be0072ff07000a01be003200070097
:100820000004be000c06e8000800be0001f0a100b4
:1008300002002000039823006d0007000800be009e
:10084000160035000801be00010107000005be00ca
:1008500032cd2c0043fb230061ff0700809fbe00c8
:100860001269280003d52b000a00be00f80007001b
:10087000620f210013ef2b0059ff07000a01be0091
:10088000f30007004f01be00170007000801be007b
:10089000ef0007000801be0051ff07000c00e00058
:1008a0000b0032000c10a70001f0a200b2fd2000e6
:1008b00093fc23006260e1000400320022a92000c2
:1008c00063f023000c10a70063f8230044ff070027
:1008d0000df0a70001f0a2004f06be004f05be00bc
:1008e0004f04be0000000600889fbe008a9fbe0025
:1008f0008c1f7800be000700c500330003866c0023
:100900006450e1002e0032006420e1003300320028
:100910006150e1002f0032006120e100310032001f
:1009200085855500eb07b000090020000804200071
:10093000050037000804440089844c000a00310097
:100940000603430087834b000001530081815b0055
:10095000f8ff33000203be000800a00008044400b2
:1009600089844c00f6ff3900c639dd00830173002d
:1009700001003200130020008904d1000884d30054
:100980000998a300050032000800a7000300a0009a
:100990008904d1000884d3008b05e8008904d100c4
:1009a0000884d3000001eb000281d200550007004b
:1009b00001f0a1000cf0a70001f0a0009d0037009d
:1009c0006420e1009f0032000801be000200be006a
:1009d000f7ff37006120e1009a0032006000b800a4
:1009e000f3ff37000000200001f82700f0ff370078
:1009f00014002000ff003700f4ff2f00fd00370037
:100a00000001be00650007000470a70003f0a1000c
:100a10006509b100160032000d0035006828e100bc
:100a200006003500f0ff2f00f1ff27000300e00073
:100a300013003b00010028000000050000004000fa
:100a4000818048008502e900fcff3a000800370079
:100a5000f88f420002003c008000eb00000005001f
:100a60008100d1000080d3008502e800fcff3a003d
:100a70000300e00002003b0060001000e08018006e
:100a8000000006000001be00440007000470a7003b
:100a900003f0a10003f8a30013003a006509b100b8
:100aa00010003200090035006928e100020035001d
:100ab000010028000000050000004000818048007f
:100ac0008502e900fcff3a0000000600f88f4200b2
:100ad000050035008100d1000080d3008502e800c8
:100ae000fcff3a00000006008000eb00000005005b
:100af0004f89de0082017800d90037006011b8000c
:100b0000e700370081002000618055000b003d00a8
:100b10000b00200061fe2f000100e1001d003400e9
:100b200082817100610164008904d1000884d300ce
:100b30000000e800faff3a00710020006100640044
:100b400003007000020060000900320061044400ec
:100b5000e0844c000988a500050032008b05e80000
:100b60006808e10002003a008904d1000884d3003b
:100b7000f20f20000258e10005003d00c75ddd00d6
:100b8000f907b200898075000800780000000600af
:100b90000bf827008b00780000000500c70ade0074
:100ba000f107b200f50fb20008003200e1cf4200b9
:100bb000020032000170a00024000500810f7000c7
:100bc000010032000408050044000500810f700098
:100bd00002003a00140005008502e9000000400010
:100be00081c04800fcff3b000170a000240005000c
:100bf0000004be00e9ff07000003be000405be00bc
:100c00000200be00e5ff0700844f750000000600eb
:100c10000200be006450e100050036006420e100df
:100c2000020036000968a30001003a000800be0077
:100c30000160a0004f0678004f05be004f04be00c3
:100c400000000600f0ff2f00f1ff2700f9ff37003a
:100c5000889fbe008a9fbe008c1f7800e4ff0700bb
:100c6000ebff330003866c006450e1002400320087
:100c70006420e100270032006150e10022003200d0
:100c80006120e100210032008b854200eb07b100ba
:100c90000134b800003ab8000804420089844a00d0
:100ca000013ab8000030b8008880400009014a00cd
:100cb0000400330000004000818048000201490028
:100cc0008b05e900c909dd008301700001003200d5
:100cd00013002000c814de004814dd004709de00c0
:100ce0001200b200c808de000884700085ff07000b
:100cf00001f0a1000cf0a70001f0a000cdff37002b
:100d00006120e100cfff32000801be000200be00fa
:100d1000f7ff37006150e100fcff3a00c9ff3700e0
:100d2000889fbe008a9fbe008c1f78000004be0012
:100d30009aff07000478a30026003a006120e10032
:100d40002500320009f8a30025003a006420e100e4
:100d500021003200f507b1000508a30002003200af
:100d600000004000818048006044b800031020006b
:100d70000200200000004000818048000805440077
:100d800089854c000a0541008b8549000a05500001
:100d90008b855800030033000a00be000204740073
:100da000838474008301d1000281d300830f71001a
:100db000f0ff3a008904d1000884d30060014900a3
:100dc00082017800c1adde00fb07b0004dff0700d7
:100dd00098ff37000960a0000800be0095ff3700ab
:100de00012022000c2448800f0ff2f00f1ff27000c
:100df00090ff3700889fbe008a9fbe00841f780046
:100e00007bff07004f00780011003300f0ff2f0038
:100e1000838f6c0006003b00040565000a00a700f4
:100e20000800370009f0a600100020000800370075
:100e3000820f5400838f5c000300390010002000f3
:100e400001003e000000200009f0a7000000ea00b9
:100e50004f05be004f04be000000e0000000060089
:100e6000881f7800030478000300e00007003d00bd
:100e700060001000e080180060011900e081190096
:100e800002003b0001f02d000300370004000700c2
:100e900008f0a70001f0a0004f0478000000060051
:100ea000889fbe008a9fbe0000827000040271000d
:100eb00004827100260032000004be000200be0061
:100ec0006011b8006b092000950220000182cf005c
:100ed0000a0039000541b1000082cf000700390047
:100ee0000541b1000982cf00040039000541b1007d
:100ef0000882cf00010039000541b10005425200cf
:100f0000120032000a003b0082817100610164001e
:100f10008100d1000080d3008984d3000884d300ed
:100f20008b05e8000442e800f7ff3a0007003700ad
:100f30000804440089844c00000048008180480077
:100f40008b05e9000442e900f9ff3a00edfe0700d5
:100f50004f05be004f04be0000000600889fbe0083
:100f60008a9fbe008c9fbe00c17d2200e23e8100b0
:100f70000200e0000b003a0064814000e23e89007c
:100f8000323f8900a1009800213f89002141900053
:100f90000204a000a2409800614190000204a00059
:100fa000e2409800670440004244de004244dd0015
:100fb000243f8100010020000900200081845400aa
:100fc0002d002000110009008d04d8008006780053
:100fd0000886e8000c0646008001eb00020037009e
:100fe000130020000b027800a44090000108a30029
:100ff000020032000a003700120a7800140178005b
:10100000a24090000108a300fbff320088004200cc
:10101000810f5100020039000800e00042003d004d
:10102000940578000b00a100848f5500edff3e0071
:10103000e18f5100eaff3a008d0f540002003600a4
:10104000890f5400140039006141b8006148b900ab
:10105000b4ff2f00050020000000520081805a00dc
:10106000800f5100818f5900020035006405440053
:101070000a003700000020003a002000000555005b
:1010800008054500110009000985d8000980b9004c
:1010900000057800010037000c0578000a00780090
:1010a0002dfd0700e10f400005003a0064054400f3
:1010b0000a00780028fd0700e10f40002b003200f5
:1010c000313f810080087800313f8100e481400099
:1010d00021419000830f5000020032000204a00062
:1010e000010037000204a100a240980064055500e9
:1010f0000a0540000a0878003a3f8900c17d2200b5
:10110000010d7800323f8100a24090000104a00050
:1011100021419800a04090000104a10021409800c6
:101120008001eb00afff3700213f8900810f5100a4
:10113000070036001101be00423f8900533f89007d
:10114000940878000041eb00213f8100a240980004
:10115000233f8100030a7800a44090000104a0000e
:101160002142980064004200010037000000eb00bb
:101170004f06be004f05be004f04be000000060033
:101180000000e0000800320064005000213f8100b0
:10119000810f500001003100203f8900a0409000e5
:1011a0000104a1002140980000000600889fbe00b5
:1011b0008a9fbe000004be000900e00007003a005c
:1011c0000000eb000800e000360032000800780064
:1011d000ebff07000000eb00320037000800e000e2
:1011e00003003a00090078005cff07002d0037007b
:1011f000640054009005780068f897000008a30088
:101200000200320008007800ddff070009007800c6
:1012100052ff0700800478000000eb000900e000a6
:1012200020003200888f54001b00320069bd9700f7
:101230000905550042d5de0088855500c2ddde0077
:101240000a0178008b0f5500010036000b01780071
:101250004211dd00880078000900780014000700c2
:10126000888f54000e0031004255dd000a8544008d
:10127000880f55000a0036000804550042c4de00fd
:101280004244dd0008844400403f8100513f81001a
:10129000008cbe0002003700080078000100370013
:1012a000090078004f05be004f04be000000060094
:1012b0008001780002003700b15978000201e9008e
:0c12c0000200e000fcff3a000000060005
:020000040000fa
:1012cc000c00fa005007980040002000e042880013
:1012dc00e0428000000040001dff0700f042880043
:1012ec00e04280000000400019ff07000043880026
:1012fc00f04280000000e000d60032000043800085
:10130c000000e000d3003200f1428000010f7800b1
:10131c000143800011079800f042800001e0220098
:10132c0001087800f04280000080e800b1ec2b004e
:10133c0001087800f0428000640040003130200049
:10134c0001087800f042800066004000310c20005b
:10135c0001087800f042800090007800f00f200027
:10136c000080600020438800f0428000100078006c
:10137c004800de0030438800f04280000080e80026
:10138c0090007800f00f200000806000404388003f
:10139c00f04280000080e800100078004800de0079
:1013ac0050438800f04280006400400090007800b8
:1013bc00f00f20000080600060438800f042800045
:1013cc0064004000100078004800de007043880084
:1013dc00f04280006600400090007800f00f200082
:1013ec000080600080438800f00f200010438800cc
:1013fc002143800010438000008068008000400082
:10140c00a089200000804000100078001043880064
:10141c003143800010438000008068008000400051
:10142c00a089200000804000100078001043880044
:10143c004143800010438000008068008000400021
:10144c00a089200000804000100078001043880024
:10145c0051438000104380000080680080004000f1
:10146c00a089200000804000100078001043880004
:10147c0061438000104380000080680080004000c1
:10148c00a0892000008040001000780010438800e4
:10149c007143800010438000008068008000400091
:1014ac00a0892000008040001000780010438800c4
:1014bc008143800010438000008068008000400061
:1014cc00a0892000008040001000780010438800a4
:1014dc00104380008080ea00f00f20000080600044
:1014ec0010438800f04280006600400011438000e9
:1014fc004809dd00f1428000e68040009100780050
:10150c008280700001087800f1428000f042800077
:10151c00100078004801dd004800de00000071007a
:10152c0080087800f04280008080e800f042800063
:10153c000080e800100078004801dd004800de0063
:10154c000000710080087800f0428000e400400048
:10155c00f042800064004000100078004801dd007b
:10156c004800de000000710080087800f042800026
:10157c00e6004000f0428000660040001000780059
:10158c004801dd004800de00000071008008780092
:10159c00f042800066004000f1428000e68040008e
:1015ac001101780001f02f0001016100134380004c
:1015bc00f10f2000818061008280700001087800aa
:1015cc00e04280002007980010003700de009000f9
:1015dc000000eb00850807001e00780090007800e2
:1015ec00310798001e8fe8003e0090003d06070072
:1015fc00400798001e009000ce0090000108780073
:10160c001e0090000080e800100798002e0090004b
:10161c0000f0a7000000ea000000ea004f00de0026
:10162c0000407800ae0090008100e900210798008e
:10163c000004e000e5ff3a00de00900010002000fe
:10164c006a080700f1428000010f78000143800016
:10165c0011079800f0428000c6fe0700004380008e
:10166c00c4fe0700d04180000080fa000000060094
:10167c000c00fa005007980040002000e04288005f
:10168c00e04280000000400031fe0700f04288007c
:10169c00e0428000000040002dfe0700004388005f
:1016ac00f04280000000e000ea00320000438000bd
:1016bc000000e000e7003200f1428000010f7800ea
:1016cc000143800011079800f04280008000eb007d
:1016dc0001087800f04280000080e8008000eb00f8
:1016ec0001087800f0428000640040008000eb00ac
:1016fc0001087800f042800066004000f10c2000e8
:10170c0001087800f042800090007800f00f200073
:10171c000080600020438800f042800010007800b8
:10172c004800de0030438800f04280000080e80072
:10173c0090007800f00f200000806000404388008b
:10174c00f04280000080e800100078004800de00c5
:10175c0050438800f0428000640040009000780004
:10176c00f00f20000080600060438800f042800091
:10177c0064004000100078004800de0070438800d0
:10178c00f04280006600400090007800f00f2000ce
:10179c000080600080438800f00f20001043880018
:1017ac0021438000104380000080680080004000ce
:1017bc00a0892000008040001000780010438800b1
:1017cc00314380001043800000806800800040009e
:1017dc00a089200000804000100078001043880091
:1017ec00414380001043800000806800800040006e
:1017fc00a089200000804000100078001043880071
:10180c00514380001043800000806800800040003d
:10181c00a089200000804000100078001043880050
:10182c00614380001043800000806800800040000d
:10183c00a089200000804000100078001043880030
:10184c0071438000104380000080680080004000dd
:10185c00a089200000804000100078001043880010
:10186c0081438000104380000080680080004000ad
:10187c00a0892000008040001000780010438800f0
:10188c00104380008080ea00f00f20000080600090
:10189c0010438800f0428000660040001143800035
:1018ac004809dd00f1428000e6804000910078009c
:1018bc008280700001087800f1428000f0428000c4
:1018cc00100078004801dd004800de0000007100c7
:1018dc0080087800f04280008080e800f0428000b0
:1018ec000080e800100078004801dd004800de00b0
:1018fc000000710080087800f0428000e400400095
:10190c00f042800064004000100078004801dd00c7
:10191c004800de000000710080087800f042800072
:10192c00e6004000f04280006600400010007800a5
:10193c004801dd004800de000000710080087800de
:10194c00f042800066004000f1428000e6804000da
:10195c001101780001f02f00010161001343800098
:10196c00f10f2000818061008280700001087800f6
:10197c00e04280002007980010003700de00900045
:10198c000000eb00990707001e007800900078001b
:10199c00310798001e8fe8003e00900051050700ab
:1019ac00400798001e009000ce00900001087800bf
:1019bc001e0090000080e800100798002e00900098
:1019cc0000f0a7000000ea000000ea004f00de0073
:1019dc0000407800ae0090008100e90021079800db
:1019ec000004e000e5ff3a00de009000100020004b
:1019fc007e070700f1428000010f78000143800050
:101a0c0011079800004380000080e8001000780067
:101a1c00c800dd004800de0000807000b043880084
:101a2c00004380006600400010007800c800dd0014
:101a3c004800de0000807000c04388000043800036
:101a4c0010007800c800dd004800de000080700047
:101a5c00d0438800f0428000c6fd070000438000a0
:101a6c00c4fd0700d04180000080fa000000060091
:101a7c000c00fa005007980040002000e04288005b
:101a8c00e04280000000400031fd0700f042880079
:101a9c00e0428000000040002dfd0700004388005c
:101aac00f04280000000e000e800320000438000bb
:101abc000000e000e5003200f1428000010f7800e8
:101acc000143800011079800f04280008000eb0079
:101adc0001087800f04280000080e800b2438000ea
:101aec00412321008100690001087800b143800086
:101afc004023210000806800f0438800f043800000
:101b0c000080ea0000448800f0428000640040003d
:101b1c000144800001087800f0428000660040001b
:101b2c00510c200001087800f042800090007800f1
:101b3c00f00f20000080600020438800f0428000fd
:101b4c00100078004800de0030438800f04280002e
:101b5c000080e80090007800f00f2000008060000a
:101b6c0040438800f04280000080e80010007800bc
:101b7c004800de0050438800f042800064004000c2
:101b8c0090007800f00f2000008060006043880017
:101b9c00f042800064004000100078004800de0035
:101bac0070438800f042800066004000900078008e
:101bbc00f00f20000080600080438800f00f2000b0
:101bcc00104388002143800010438000008068008f
:101bdc0080004000a08920000080400010007800a8
:101bec00104388003143800010438000008068005f
:101bfc0080004000a0892000008040001000780088
:101c0c00104388004143800010438000008068002e
:101c1c0080004000a0892000008040001000780067
:101c2c0010438800514380001043800000806800fe
:101c3c0080004000a0892000008040001000780047
:101c4c0010438800614380001043800000806800ce
:101c5c0080004000a0892000008040001000780027
:101c6c00104388007143800010438000008068009e
:101c7c0080004000a0892000008040001000780007
:101c8c00104388008143800010438000008068006e
:101c9c0080004000a08920000080400010007800e7
:101cac0010438800104380008080ea00f00f200071
:101cbc0000806000104388001043800010448800ae
:101ccc00f042800066004000114380004809dd00ae
:101cdc00f1428000e6804000910078008280700024
:101cec0001087800f1428000f0428000100078007a
:101cfc004801dd004800de0000007100800878001b
:101d0c00f04280008080e800f04280000080e80013
:101d1c00100078004801dd004800de000000710072
:101d2c0080087800f0428000e4004000f04280001f
:101d3c0064004000100078004801dd004800de001f
:101d4c000000710080087800f0428000e60040003e
:101d5c00f042800066004000100078004801dd0071
:101d6c004800de000000710080087800f04280001e
:101d7c0066004000f1428000e680400011017800ce
:101d8c0001f02f000101610013438000f10f2000ce
:101d9c00818061008280700001087800e042800040
:101dac002007980010003700de0090000000eb00c8
:101dbc008e0607001e00780090007800310798000e
:101dcc001e8fe8003e009000460407004007980074
:101ddc001e009000ce009000010878001e009000bc
:101dec000080e800100798002e00900000f0a7007b
:101dfc000000ea000000ea004f00de00004078001e
:101e0c00ae0090008100e900210798000004e0007a
:101e1c00e5ff3a00de00900010002000730607007a
:101e2c00f1428000010f78000143800011079800f7
:101e3c00004380006600400010007800c800dd0000
:101e4c004800de0000807000e0438800f042800013
:101e5c00c8fc070000438000c6fc0700d04180008e
:101e6c000080fa00000006000c00fa0050079800f1
:101e7c0040002000e0428800e0428000000040006a
:101e8c0033fc0700f0428800e04280000000400074
:101e9c002ffc070000438800f04280000000e000a7
:101eac00e3003200004380000000e000e00032005c
:101ebc00f1428000010f7800014380001107980067
:101ecc00f0428000e102210001087800f04280001d
:101edc000080e8002103210001087800f042800016
:101eec00640040008000eb0001087800f0428000a4
:101efc0066004000110c200001087800f0428000c0
:101f0c0090007800f00f20000080600020438800d3
:101f1c00f0428000100078004800de00304388005a
:101f2c00f04280000080e80090007800f00f200064
:101f3c000080600040438800f04280000080e80090
:101f4c00100078004800de0050438800f04280000a
:101f5c006400400090007800f00f200000806000ca
:101f6c0060438800f042800064004000100078005c
:101f7c004800de0070438800f0428000660040009c
:101f8c0090007800f00f20000080600080438800f3
:101f9c00f00f200010438800214380001043800084
:101fac000080680080004000a08920000080400074
:101fbc0010007800104388003143800010438000eb
:101fcc000080680080004000a08920000080400054
:101fdc0010007800104388004143800010438000bb
:101fec000080680080004000a08920000080400034
:101ffc00100078001043880051438000104380008b
:10200c000080680080004000a08920000080400013
:10201c00100078001043880061438000104380005a
:10202c000080680080004000a089200000804000f3
:10203c00100078001043880071438000104380002a
:10204c000080680080004000a089200000804000d3
:10205c0010007800104388008143800010438000fa
:10206c000080680080004000a089200000804000b3
:10207c001000780010438800104380008080ea0034
:10208c00f00f20000080600010438800f0428000b8
:10209c0066004000114380004809dd00f1428000d9
:1020ac00e680400091007800828070000108780082
:1020bc00f1428000f0428000100078004801dd0001
:1020cc004800de000000710080087800f0428000bb
:1020dc008080e800f04280000080e800100078006a
:1020ec004801dd004800de00000071008008780027
:1020fc00f0428000e4004000f042800064004000a8
:10210c00100078004801dd004800de00000071007e
:10211c0080087800f0428000e6004000f042800029
:10212c0066004000100078004801dd004800de0029
:10213c000000710080087800f042800066004000ca
:10214c00f1428000e68040001101780001f02f0080
:10215c000101610013438000f10f200081806100b8
:10216c008280700001087800e0428000200798000f
:10217c0010003700de0090000000eb009b0507000c
:10218c001e00780090007800310798001e8fe80040
:10219c003e00900053030700400798001e0090007b
:1021ac00ce009000010878001e0090000080e8002e
:1021bc00100798002e00900000f0a7000000ea0025
:1021cc000000ea004f00de0000407800ae009000f6
:1021dc008100e900210798000004e000e5ff3a00c7
:1021ec00de0090001000200080050700f142800006
:1021fc00010f780001438000110798000043800014
:10220c0010007800c800dd004800de00008070007f
:10221c00b0428800004380000080e8001000780085
:10222c00c800dd004800de0000807000c04288005d
:10223c00f0428000cffb070000438000cdfb07007d
:10224c00d04180000080fa00000006000c00fa006b
:10225c005007980040002000e0428800e0428000d7
:10226c00000040003afb0700f0428800e04280008a
:10227c000000400036fb070000438800f04280005d
:10228c000000e000e1003200004380000000e000ac
:10229c00de003200f1428000010f78000143800023
:1022ac0011079800f04280008000eb0001087800d4
:1022bc00f04280000080e8005155250001087800ac
:1022cc00f0428000640040008000eb0001087800c0
:1022dc00f042800066004000010d200001087800eb
:1022ec00f042800090007800f00f20000080600029
:1022fc0020438800f0428000100078004800de0087
:10230c0030438800f04280000080e80090007800a4
:10231c00f00f20000080600040438800f0428000f5
:10232c000080e800100078004800de005043880070
:10233c00f04280006400400090007800f00f200014
:10234c000080600060438800f04280006400400020
:10235c00100078004800de0070438800f0428000d6
:10236c006600400090007800f00f200000806000b4
:10237c0080438800f00f2000104388002143800028
:10238c00104380000080680080004000a08920007d
:10239c00008040001000780010438800314380001a
:1023ac00104380000080680080004000a08920005d
:1023bc0000804000100078001043880041438000ea
:1023cc00104380000080680080004000a08920003d
:1023dc0000804000100078001043880051438000ba
:1023ec00104380000080680080004000a08920001d
:1023fc00008040001000780010438800614380008a
:10240c00104380000080680080004000a0892000fc
:10241c000080400010007800104388007143800059
:10242c00104380000080680080004000a0892000dc
:10243c000080400010007800104388008143800029
:10244c00104380000080680080004000a0892000bc
:10245c00008040001000780010438800104380007a
:10246c000080ea0010438800f042800066004000c3
:10247c00114380004809dd00f1428000e6804000f5
:10248c00910078008280700001087800f142800091
:10249c00f0428000100078004801dd004800de00aa
:1024ac000000710080087800f04280008080e80015
:1024bc00f04280000080e800100078004801dd0048
:1024cc004800de000000710080087800f0428000b7
:1024dc00e4004000f04280006400400010007800ee
:1024ec004801dd004800de00000071008008780023
:1024fc00f0428000e6004000f042800066004000a0
:10250c00100078004801dd004800de00000071007a
:10251c0080087800f042800066004000f1428000a4
:10252c00e68040001101780001f02f0001016100ec
:10253c0013438000f10f20008180610082807000c5
:10254c0001087800e0428000200798001000370056
:10255c00de0090000000eb00a40407001e007800d1
:10256c0090007800310798001e8fe8003e00900024
:10257c005c020700400798001e009000ce009000ff
:10258c00010878001e0090000080e80010079800f9
:10259c002e00900000f0a7000000ea000000ea0006
:1025ac004f00de0000407800ae0090008100e90092
:1025bc00210798000004e000e5ff3a00de009000df
:1025cc001000200089040700f1428000010f780000
:1025dc000143800011079800004380001000780030
:1025ec00c800dd004800de000080700090438800c9
:1025fc00004380006600400010007800c800dd0039
:10260c004800de0000807000a0438800f04280008b
:10261c00d8fa070000438000d6fa0700d0418000aa
:10262c000080fa00000006000e00fa006007980017
:10263c0040002000e04288006e009000e10f500046
:10264c0003003a0020002000000f78000200370041
:10265c000000eb00000f7800e0428000000040001a
:10266c003bfa0700f0428800e04280000000400086
:10267c0037fa070000438800f04280000000e000b9
:10268c0025013200004380000000e00022013200ee
:10269c00f142800011079800014380002107980047
:1026ac00f04280008000eb0001087800f0428000ce
:1026bc000080e8005155250001087800f0428000a8
:1026cc00640040008000eb0001087800f0428000bc
:1026dc0066004000010d200001087800f0428000e7
:1026ec0090007800f00f20000080600020438800ec
:1026fc00f0428000100078004800de003043880073
:10270c00f04280000080e80090007800f00f20007c
:10271c000080600040438800f04280000080e800a8
:10272c00100078004800de0050438800f042800022
:10273c006400400090007800f00f200000806000e2
:10274c0060438800f0428000640040001000780074
:10275c004800de0070438800f042800066004000b4
:10276c0090007800f00f200000806000804388000b
:10277c00f00f20001043880021438000104380009c
:10278c000080680080004000a0892000008040008c
:10279c001000780010438800314380001043800003
:1027ac000080680080004000a0892000008040006c
:1027bc0010007800104388004143800010438000d3
:1027cc000080680080004000a0892000008040004c
:1027dc0010007800104388005143800010438000a3
:1027ec000080680080004000a0892000008040002c
:1027fc001000780010438800614380001043800073
:10280c000080680080004000a0892000008040000b
:10281c001000780010438800714380001043800042
:10282c000080680080004000a089200000804000eb
:10283c001000780010438800814380001043800012
:10284c000080680080004000a089200000804000cb
:10285c001000780010438800104380000080ea00cc
:10286c0010438800f0428000660040001143800055
:10287c004809dd00f1428000e680400091007800bc
:10288c008280700001087800f1428000f0428000e4
:10289c00100078004801dd004800de0000007100e7
:1028ac0080087800f04280008080e800f0428000d0
:1028bc000080e800100078004801dd004800de00d0
:1028cc000000710080087800f0428000e4004000b5
:1028dc00f042800064004000100078004801dd00e8
:1028ec004800de000000710080087800f042800093
:1028fc00e6004000f04280006600400010007800c6
:10290c004801dd004800de000000710080087800fe
:10291c00f042800066004000f1428000e6804000fa
:10292c001101780001f02f000101610013438000b8
:10293c00f10f200081806100828070000108780016
:10294c00e04280003007980012003700ee00900043
:10295c000000eb00a50307001e009000900078001b
:10296c00410798001e0090000080e80010079800b6
:10297c004e0090005b010700500798002e0090005d
:10298c00de009000010878002e0090000080e80026
:10299c00200798003e00900000f0a7000000ea001d
:1029ac000000ea004f00de0000407800be009000fe
:1029bc008100e900310798000004e000e3ff3a00d1
:1029cc00ee0090001000200088030700f142800008
:1029dc001107980001438000210798002e009000f9
:1029ec00100078004600de00e300600010002000bc
:1029fc00e18f5000010036000000eb0030428800ef
:102a0c002e0090006600400010007800ce00de0022
:102a1c001e007800808f50003f003a002e0090007e
:102a2c00100078004600de0063006000e10f5000eb
:102a3c0037003600ca82a8001e007800e20f500052
:102a4c0020003a000043800010007800c800de002f
:102a5c0000438000100078007f0060004800dd001b
:102a6c0001007000e0418800004380000080e80015
:102a7c0010007800c800de00004380000080e800f1
:102a8c00100078007f0060004800dd00010070003d
:102a9c00f041880000438000640040001000780082
:102aac00c800de0000438000640040001000780085
:102abc007f0060004800dd0001007000d0418800fc
:102acc00150037001e0078000000e00012003a00ec
:102adc000043800010007800c800de000043800036
:102aec0010017800f0032000000061004800dd00b8
:102afc000100700000428800004380006400400028
:102b0c00100078004800de00c04188000200370049
:102b1c006000b8008c090700f042800095f90700ae
:102b2c000043800093f90700d04180000080fa0038
:102b3c00000006000c00fa0050079800400020002e
:102b4c00e0428800e04280000000400000f90700ed
:102b5c00f0428800e042800000004000fcf80700d2
:102b6c0000438800f04280000000e000d6003200f4
:102b7c00004380000000e000d3003200f1428000ee
:102b8c00010f78000143800011079800f04280008b
:102b9c008000eb0001087800f04280000080e80023
:102bac008000eb0001087800f042800064004000d7
:102bbc008000eb0001087800f042800066004000c5
:102bcc00f10e200001087800f0428000900078009f
:102bdc00f00f20000080600020438800f04280004d
:102bec00100078004800de0030438800f04280007e
:102bfc000080e80090007800f00f2000008060005a
:102c0c0040438800f04280000080e800100078000b
:102c1c004800de0050438800f04280006400400011
:102c2c0090007800f00f2000008060006043880066
:102c3c00f042800064004000100078004800de0084
:102c4c0070438800f04280006600400090007800dd
:102c5c00f00f20000080600080438800f00f2000ff
:102c6c0010438800214380001043800000806800de
:102c7c0080004000a08920000080400010007800f7
:102c8c0010438800314380001043800000806800ae
:102c9c0080004000a08920000080400010007800d7
:102cac00104388004143800010438000008068007e
:102cbc0080004000a08920000080400010007800b7
:102ccc00104388005143800010438000008068004e
:102cdc0080004000a0892000008040001000780097
:102cec00104388006143800010438000008068001e
:102cfc0080004000a0892000008040001000780077
:102d0c0010438800714380001043800000806800ed
:102d1c0080004000a0892000008040001000780056
:102d2c0010438800814380001043800000806800bd
:102d3c0080004000a0892000008040001000780036
:102d4c0010438800104380008080ea00f00f2000c0
:102d5c000080600010438800f04280006600400054
:102d6c00114380004809dd00f1428000e6804000fc
:102d7c00910078008280700001087800f142800098
:102d8c00f0428000100078004801dd004800de00b1
:102d9c000000710080087800f04280008080e8001c
:102dac00f04280000080e800100078004801dd004f
:102dbc004800de000000710080087800f0428000be
:102dcc00e4004000f04280006400400010007800f5
:102ddc004801dd004800de0000007100800878002a
:102dec00f0428000e6004000f042800066004000a7
:102dfc00100078004801dd004800de000000710082
:102e0c0080087800f042800066004000f1428000ab
:102e1c00e68040001101780001f02f0001016100f3
:102e2c0013438000f10f20008180610082807000cc
:102e3c0001087800e042800020079800100037005d
:102e4c00de0090000000eb00680207001e00780016
:102e5c0090007800310798001e8fe8003e0090002b
:102e6c0020000700400798001e009000ce00900044
:102e7c00010878001e0090000080e8001007980000
:102e8c002e00900000f0a7000000ea000000ea000d
:102e9c004f00de0000407800ae0090008100e90099
:102eac00210798000004e000e5ff3a00de009000e6
:102ebc00100020004d020700f1428000010f780045
:102ecc000143800011079800f0428000a9f8070028
:102edc0000438000a7f80700d04180000080fa0072
:102eec00000006000200fa00000f78005028ef00e6
:102efc001e00780040128800000000008042800014
:102f0c000000e000fdff3400401280000080fa0059
:102f1c00000006000e00fa005007980061079800a8
:102f2c0040002000e0428800e042800000004000a9
:102f3c0007f80700f0428800e042800000004000e3
:102f4c0003f8070000438800f04280000000e00016
:102f5c002c013200004380000000e0002901320007
:102f6c00f1428000010f78000143800011079800a6
:102f7c00f04280008000eb0001087800f0428000f5
:102f8c000080e8008080eb0001087800f0428000af
:102f9c00640040008000eb00010878006e00900097
:102fac00e20f500005003a00f0428000660040003d
:102fbc00310920000108780004003700f04280003d
:102fcc00660040003101200001087800f0428000ca
:102fdc0090007800f00f20000080600020438800f3
:102fec00f0428000100078004800de00304388007a
:102ffc00f04280000080e80090007800f00f200084
:10300c000080600040438800f04280000080e800af
:10301c00100078004800de0050438800f042800029
:10302c006400400090007800f00f200000806000e9
:10303c0060438800f042800064004000100078007b
:10304c004800de0070438800f042800066004000bb
:10305c0090007800f00f2000008060008043880012
:10306c00f00f2000104388002143800010438000a3
:10307c000080680080004000a08920000080400093
:10308c00100078001043880031438000104380000a
:10309c000080680080004000a08920000080400073
:1030ac0010007800104388004143800010438000da
:1030bc000080680080004000a08920000080400053
:1030cc0010007800104388005143800010438000aa
:1030dc000080680080004000a08920000080400033
:1030ec00100078001043880061438000104380007a
:1030fc000080680080004000a08920000080400013
:10310c001000780010438800714380001043800049
:10311c000080680080004000a089200000804000f2
:10312c001000780010438800814380001043800019
:10313c000080680080004000a089200000804000d2
:10314c001000780010438800104380008080ea0053
:10315c00f00f20000080600010438800f0428000d7
:10316c0066004000114380004809dd00f1428000f8
:10317c00e6804000910078008280700001087800a1
:10318c00f1428000f0428000100078004801dd0020
:10319c004800de000000710080087800f0428000da
:1031ac008080e800f04280000080e8001000780089
:1031bc004801dd004800de00000071008008780046
:1031cc00f0428000e4004000f042800064004000c7
:1031dc00100078004801dd004800de00000071009e
:1031ec0080087800f0428000e6004000f042800049
:1031fc0066004000100078004801dd004800de0049
:10320c000000710080087800f042800066004000e9
:10321c00f1428000e68040001101780001f02f009f
:10322c000101610013438000f10f200081806100d7
:10323c008280700001087800e0428000200798002e
:10324c0010003700de0090000000eb006701070063
:10325c001e00780090007800310798001e8fe8005f
:10326c003e0090001fff0700400798001e009000d2
:10327c00ce009000010878001e0090000080e8004d
:10328c00100798002e00900000f0a7000000ea0044
:10329c000000ea004f00de0000407800ae00900015
:1032ac008100e900210798000004e000e5ff3a00e6
:1032bc00de009000100020004c010700f14280005d
:1032cc00010f780001438000110798001e00900048
:1032dc00100078004600de00e300600010002000c3
:1032ec00e18f5000010036000000eb0030428800f6
:1032fc001e0090006600400010007800ce00de003a
:10330c006e009000808f50003e003a001e0090002e
:10331c00100078004600de0063006000e10f5000f2
:10332c00360036006e009000e20f500020003a008c
:10333c000043800010007800c800de0000438000cd
:10334c00100078007f0060004800dd000100700074
:10335c00e0418800004380000080e8001000780005
:10336c00c800de00004380000080e80010007800f8
:10337c007f0060004800dd0001007000f041880013
:10338c00004380006400400010007800c800de009c
:10339c000043800064004000100078007f00600053
:1033ac004800dd0001007000d04188001500370096
:1033bc006e0090000000e00012003a000043800014
:1033cc0010007800c800de00004380001001780077
:1033dc00f0032000000061004800dd0001007000d7
:1033ec000042880000438000640040001000780018
:1033fc004800de00c0418800020037006000b800c1
:10340c0051070700f04280005af707000043800084
:10341c0058f707000080fa00000006000e00fa00c2
:10342c00500798006107980040002000e042880097
:10343c00e042800000004000c5f60700f042880022
:10344c00e042800000004000c1f607000043880005
:10345c00f04280000000e000de00320000438000fb
:10346c000000e000db003200f1428000010f780028
:10347c000143800011079800f04280008000eb00af
:10348c0001087800f04280000080e8008080eb00aa
:10349c0001087800f0428000640040008000eb00de
:1034ac00010878006e009000e20f500005003a0011
:1034bc00f0428000660040003109200001087800cd
:1034cc0004003700f042800066004000310120000b
:1034dc0001087800f042800090007800f00f200086
:1034ec000080600020438800f042800010007800cb
:1034fc004800de0030438800f04280000080e80085
:10350c0090007800f00f200000806000404388009d
:10351c00f04280000080e800100078004800de00d7
:10352c0050438800f0428000640040009000780016
:10353c00f00f20000080600060438800f0428000a3
:10354c0064004000100078004800de0070438800e2
:10355c00f04280006600400090007800f00f2000e0
:10356c000080600080438800f00f2000104388002a
:10357c0021438000104380000080680080004000e0
:10358c00a0892000008040001000780010438800c3
:10359c0031438000104380000080680080004000b0
:1035ac00a0892000008040001000780010438800a3
:1035bc004143800010438000008068008000400080
:1035cc00a089200000804000100078001043880083
:1035dc005143800010438000008068008000400050
:1035ec00a089200000804000100078001043880063
:1035fc006143800010438000008068008000400020
:10360c00a089200000804000100078001043880042
:10361c0071438000104380000080680080004000ef
:10362c00a089200000804000100078001043880022
:10363c0081438000104380000080680080004000bf
:10364c00a089200000804000100078001043880002
:10365c00104380008080ea00f00f200000806000a2
:10366c0010438800f0428000660040001143800047
:10367c004809dd00f1428000e680400091007800ae
:10368c008280700001087800f1428000f0428000d6
:10369c00100078004801dd004800de0000007100d9
:1036ac0080087800f04280008080e800f0428000c2
:1036bc000080e800100078004801dd004800de00c2
:1036cc000000710080087800f0428000e4004000a7
:1036dc00f042800064004000100078004801dd00da
:1036ec004800de000000710080087800f042800085
:1036fc00e6004000f04280006600400010007800b8
:10370c004801dd004800de000000710080087800f0
:10371c00f042800066004000f1428000e6804000ec
:10372c001101780001f02f000101610013438000aa
:10373c00f10f200081806100828070000108780008
:10374c00e04280002007980010003700de00900057
:10375c000000eb00250007001e00780090007800a8
:10376c00310798001e8fe8003e009000ddfd070039
:10377c00400798001e009000ce00900001087800d1
:10378c001e0090000080e800100798002e009000aa
:10379c0000f0a7000000ea000000ea004f00de0085
:1037ac0000407800ae0090008100e90021079800ed
:1037bc000004e000e5ff3a00de009000100020005d
:1037cc000a000700f1428000010f780001438000dd
:1037dc0011079800f042800066f607000043800055
:1037ec0064f607000080fa00000006000400fa00ee
:1037fc00000f7800110798001e009000e10f500098
:10380c000c003a001e007800004078006140600017
:10381c000080fb00610060004700dd006216800044
:10382c00f1f72f0081006100010070006016880024
:10383c000b0037001e0078000040780061406000eb
:10384c000080fb00610060004b00dd006216800010
:10385c00f17f2f008100610001007000601688006c
:10386c000080fa00000006000000fa009002200020
:10387c00303a8800203a80000060a1000070a1005e
:10388c00203a8800213a800000fe2f000080600062
:10389c00203a88001200200080072000a109200097
:1038ac00337420008049780081497800824978007f
:1038bc0012002000600420007105200023742000f9
:1038cc008049780081497800824978000000000026
:1038dc00113a800000002700808060000000210069
:1038ec00808f5000faff3a0000000000113a80006f
:1038fc0000022000008060000000e000fbff3200ae
:10390c000080fa0000000600809fbe003400f80022
:10391c0000002000a00188000000fa008460a900cb
:10392c0010002000404088000040800011408000c2
:10393c0061004000e0804800004088001140880091
:10394c000080fa003400f9004f00be000040060071
:10395c000000fa000021ef008044800091448000b8
:10396c0002002000b3312400b6f40700020020004e
:10397c0003f8230016f307003ff40700000078005b
:10398c001008880000032800200888008460a90023
:10399c009460a8000080fa00000006000000fa0005
:1039ac002c23ef003000200000168800000d2000b2
:1039bc0030168800c422ef00f00423004016880063
:1039cc000001200070168800cc22ef00f03e200091
:1039dc0080168800d622ef00d422ef000080fa0077
:1039ec00000006000000fa00a00220004011880030
:1039fc0021a2a90020a2a9002062a9000011800028
:103a0c000010a1000020a100001188002002a900d4
:103a1c00101180000060a1000070a100101188003e
:103a2c0023a2a90023e2a90021e2a8002342a800b6
:103a3c009c20a9000080fa0000000600801f78007e
:103a4c003400f80000002000a00188000000fa00fb
:103a5c0080408000000c880090408000300c880072
:103a6c0084e0a9000080fa003400f9004f007800cf
:103a7c00004006000000fa000000280080088800c2
:103a8c0084e0a90094e0a8008421ef000621ef0057
:103a9c00703e20006008880080408000000c880088
:103aac0080408000100c880060002000200c8800f2
:103abc007136800000fe2f00008060002001b300f2
:103acc00703688000080fa00000006000000fa0042
:103adc008a21ef00703e2000600888009040800032
:103aec00300c880090408000400c88006000200062
:103afc00500c880071368000f00f2e008080600022
:103b0c000030210001007000703688000080fa003f
:103b1c00000006000000fa00a136800000fe2f0015
:103b2c00008060007000b300a03688004135800032
:103b3c00f00f2e008080600000302100010070002a
:103b4c00403588004135800000fe2f000080600069
:103b5c005001b300403588004022ef008540a90099
:103b6c009540a9004382a9004362a9004342a900e1
:103b7c004322a9004302a90042c2a90010128000ee
:103b8c000020a1000030a0000040a000101288000e
:103b9c00101280000000a0000010a100101288007c
:103bac0042a2a90040c2a90041e2a8008540a90098
:103bbc009540a800001c80000040a1000050a1000e
:103bcc00001c8800001c80000000a1000010a00058
:103bdc00001c880081a3a80081c3a900e023ef008a
:103bec0030002000501c8800a0002000101c880011
:103bfc0080242000401c880000722000201c8800bb
:103c0c0080722000301c88008480a9009480a80059
:103c1c0081e3a80020002000601c880030002000f8
:103c2c00b01c8800a0002000701c8800802420009c
:103c3c00a01c880000732000801c8800807320006a
:103c4c00901c880085c0a90095c0a8008de3a80031
:103c5c000080fa00000006000000fa0031368000f7
:103c6c00f00f2e008080600000a02000010070008a
:103c7c003036880021368000f00f2e0080806000e6
:103c8c0000b02000010070002036880061358000f3
:103c9c0000fe2f00008060006000b30060358800db
:103cac006022ef008540a9009540a9006382a9001d
:103cbc006362a9006342a9006322a9006302a90000
:103ccc0062c2a900101380000020a1000030a000e7
:103cdc000040a00010138800101380000000a0000a
:103cec000010a1001013880062a2a80060c2a900f5
:103cfc0061e2a8008820a9009820a8000080fa00a2
:103d0c00000006003400f800881f7800080020002e
:103d1c00a80188004f0478000000fa008540a90033
:103d2c0040c2a9000080fa003400f90000400600ef
:103d3c003400f800881f780008002000a8018800d3
:103d4c004f0478000000fa008820a90060c2a90086
:103d5c000080fa003400f900004006003600f8003c
:103d6c00809fbe00829fbe00849fbe00869fbe00c7
:103d7c003400f80000002000a00188000000fa00c8
:103d8c00404480000000e00003003a000072220072
:103d9c003e04070002003700807222003b0407003b
:103dac00404480000000a200404488008480a900a8
:103dbc000080fa003400f9004f03be004f02be0031
:103dcc004f01be004f00be003600f9000040060057
:103ddc003600f800809fbe00829fbe00849fbe000c
:103dec00869fbe003400f80000002000a00188006f
:103dfc000000fa00304480000000e00003003a00ac
:103e0c00007322003904070002003700807322007f
:103e1c0036040700304480000000a20030448800c3
:103e2c0085c0a9000080fa003400f9004f03be00e1
:103e3c004f02be004f01be004f00be003600f9001d
:103e4c00004006000000fa00e134800000fe2f0064
:103e5c00008060006001b300e0348800e134800031
:103e6c00f00f2e00808060000070210001007000b7
:103e7c00e0348800f134800000fe2f0000806000e8
:103e8c008001b300f0348800e1a1a900000f80008c
:103e9c000080a1000090a00000a0a000000f8800ee
:103eac00e0e1a900e0c1a900e041a800100f8000ea
:103ebc000090a10000a0a100100f8800e2e1a90071
:103ecc00100f80000040a0000050a0000060a10076
:103edc00100f8800e421ef00f07f2000300f8800e5
:103eec000080fa00000006000000fa000135800096
:103efc0000fe2f00008060009001b30000358800a8
:103f0c0001358000f00f2e008080600000d0200072
:103f1c0001007000003588001135800000fe2f0074
:103f2c0000806000c000b30010358800f1a1a9002a
:103f3c00800f80000080a0000090a00000a0a000d6
:103f4c00800f8800f0e1a900f0c1a900f041a800a1
:103f5c00900f80000090a10000a0a100900f88009d
:103f6c00f2e1a900900f80000040a0000050a000da
:103f7c000060a100900f8800f421ef00f07f20007a
:103f8c00b00f88000080fa00000006000000fa0064
:103f9c000a21ef0070382100700888008500a90004
:103fac009500a90013e1a8000080fa0000000600ab
:103fbc000000fa002023ef002223ef002423ef005f
:103fcc003223ef00001980000050a1000060a00017
:103fdc000070a100001988002143a900101980006d
:103fec000080a0000090a000101988002063a80099
:103ffc002203a800101980000020a0000030a100ae
:10400c000040a1000050a100101988002043a80016
:10401c0025e3a900f0c3b30024e3b7002183a90072
:10402c00901980000000a0000010a0000020a1004a
:10403c00901988004119800000fe2f00008060005c
:10404c006000b3004019880028e3a9002603a900ea
:10405c00301980000010a1000020a1003019880048
:10406c0041198000f00f2e0080806000007020004d
:10407c00010070004019880029e3a9002703a8005b
:10408c00301980000090a10000a0a1003019880018
:10409c0085a0a90095a0a90021e3a8000080fa0042
:1040ac00000006000000fa00c01c80000040a100c7
:1040bc000050a000c01c8800c01c80000000a100a3
:1040cc000010a000c01c880000302000001d8800db
:1040dc00f0032000101d8800d0002000d01c8800a8
:1040ec0000682000e01c880000502000f01c8800b4
:1040fc008700a9009700a80099e3a8000080fa00a7
:10410c00000006003600f800809fbe00829fbe00b3
:10411c00849fbe00869fbe000000fa0020448000f1
:10412c000000e00003003a00006822008300070052
:10413c00020037000050220080000700204480005d
:10414c000000a200204488008480a9000080fa00ae
:10415c004f03be004f02be004f01be004f00be0019
:10416c003600f900004006000000fa009004200020
:10417c002010880007e2a90007a2a9000782a80066
:10418c000762a9000742a9000722a8000702a9009c
:10419c0006e2a90006c2a90006a2a9000682a9008f
:1041ac000662a9000642a9000622a9000602a9007f
:1041bc000022ef000222ef0007e2a8000080fa00c4
:1041cc00000006000600fa00889fbe001007980049
:1041dc0021079800190020006011b8001e00900003
:1041ec00ae00900001f207000000e00001003c006e
:1041fc008004eb00180020006011b8001e00900035
:10420c00ae009000f7f107000000e000010035005f
:10421c000004eb00088f5400040007001e00780017
:10422c004f04be000080fa00000006000200fa00f5
:10423c000000eb00000f7800010037001e0fe800b3
:10424c001e007800ee0f5000fcff34000080fa00d6
:10425c00000006000800fa00881f7800200f80007c
:10426c008000eb0022f20700008fbe00020020004d
:10427c00433b24001e00be0072f2070002002e0019
:10428c00f34f240095f107002007980031079800a0
:10429c00a0448000cf80de0012f2070018c0b300eb
:1042ac001e01be00d1f107000000e00001003c003f
:1042bc000044eb000804e000040032001e00be00c5
:1042cc00ccf1070000007800a04488002e0090007c
:1042dc00be0090004f0478000080fa000000060039
:1042ec000000fa00200f8000b04488000080fa0023
:1042fc00000006000800fa00a00f80008000eb0010
:10430c00fbf10700008fbe0002002000433b24009d
:10431c001e00be004bf2070002002e00f34f2400db
:10432c006ef1070020079800310798002e009000ce
:10433c00be0090000080fa00000006000200fa00a7
:10434c00000f7800c242a800904280009142800089
:10435c001e01780081804000e2807800000140005e
:10436c00c0742200000041000108780090428000d7
:10437c009e00780070814000914280008180400056
:10438c00e280780000014000c0752200000041006e
:10439c000108780090428000010220001e8140003c
:1043ac009142800081804000e28078000001400052
:1043bc00c076220000004100010878009042800085
:1043cc00010320001e81400091428000818040004a
:1043dc00e280780000014000c0772200000041001c
:1043ec000108780090428000010420001e814000ea
:1043fc009142800081804000e28078000001400002
:10440c00c078220000004100010878009042800032
:10441c00010520001e8140009142800081804000f7
:10442c00e280780000014000c079220000004100c9
:10443c000108780090428000010620001e81400097
:10444c009142800081804000e280780000014000b1
:10445c00c07a2200000041000108780090428000e0
:10446c00010720001e8140009142800081804000a5
:10447c00e280780000014000c07b22000000410077
:10448c000108780090428000010820001e81400045
:10449c009142800081804000e28078000001400061
:1044ac00c07c22000000410001087800904280008e
:1044bc000000e8009042880090428000e80f500015
:1044cc0001003a005228ef0085a0a900c242a900c1
:1044dc000080fa00000006000000fa00881f780037
:1044ec008000eb00200020008afa070000428000c8
:1044fc008000eb007ef10700e2a62f0033cb2300f7
:10450c00d0f10700b0408800c140880047ff070089
:10451c00b0408000c140800018c0b300d2cc2c0049
:10452c00133b24002ff107000000e00001003500d0
:10453c000044eb000804e00008003200b0408000aa
:10454c00c1408000d2cc2c00c308240021f007000d
:10455c00b0408800c140880007003700b0408000a0
:10456c00c1408000d2cc2c00133b240018f0070073
:10457c00b0408800c1408800b0408000c14080003d
:10458c000001be0000002000413b240010f0070099
:10459c00b0408800c14088004f0478000080fa00c9
:1045ac00000006000000fa00889fbe008a9fbe0033
:1045bc00210020001000200056fa0700e141800085
:1045cc0000002100008060000000e00005003200c7
:1045dc00e141800000002e000080400090418800e6
:1045ec0005003700e041800080007800f0ff2000db
:1045fc000080600090418800f141800000002100a3
:10460c00008060000000e00005003200f1418000f5
:10461c0000002e0000804000a041880005003700fb
:10462c00f041800080007800f0ff200000806000e6
:10463c00a0418800d1418000000021000080600072
:10464c000000e00005003200d141800000002e0087
:10465c0000804000b041880005003700d041800048
:10466c0080007800f0ff200000806000b0418800de
:10467c00b04180000000e0005c00320090418000fe
:10468c00cf80de0017f1070052862000637b2300e9
:10469c006cf107000004be0090418000cf80de006a
:1046ac0010f10700d2762e00b3df230065f107006e
:1046bc0052b82e0013002400c5ef07000005be0001
:1046cc00a0418000cf80de0006f10700024d2400df
:1046dc0083b523005bf107000001be000a00be0099
:1046ec00bbef07000005be00b04180008007b000a2
:1046fc00cf80de00fbf007000001be000a00be0008
:10470c0076f007000001be000800be00b1ef070004
:10471c000001be00afef0700c24b270033d12300ce
:10472c00abef07001041880021418800a0418000b8
:10473c00cf80de00ebf00700c2cd2700837c230086
:10474c0040f107000004be00a0418000cf80de00d5
:10475c00e4f0070022db2900f3de230039f1070027
:10476c0042df2f0043e523009aef07000005be004f
:10477c0090418000cf80de00daf007004272290001
:10478c00f3af23002ff107000001be000a00be00aa
:10479c0090ef07000005be00b0418000cf80de0026
:1047ac00d0f00700a2992900d328240089ef070034
:1047bc000001be000a00be0048f007000001be0068
:1047cc000800be0083ef07003233230033f92300c7
:1047dc001cf10700f2282c0053c723007cef0700c4
:1047ec003041880041418800060037006000b80065
:1047fc0010418800214188006000b80030418800d9
:10480c004141880014428000254280001041800004
:10481c00214180000001be000400be0009f1070028
:10482c00504188006141880014428000254280007c
:10483c0030418000414180000001be000400be00f8
:10484c0000f10700704188008141880054418000cc
:10485c006541800050418000614180000001be0034
:10486c000400be00f7f007000004be007441800095
:10487c008541800070418000814180000001be00b4
:10488c000400be00eff007000001be000800be00ef
:10489c0050ef07001ff10700d0408800e14088006e
:1048ac00304180004141800018c0b3006011b80055
:1048bc004ef007000000e00001003c000044eb005b
:1048cc000804e000150032001041800021418000f6
:1048dc0018c0b3006011b80044f007000000e000fd
:1048ec0001003c000044eb000804e0000b00320027
:1048fc0034418000454180001041800021418000fe
:10490c000001be000400be00f4ef07008eef0700ac
:10491c00f040880001418800690037003041800078
:10492c004141800018c0b3006011b8002ff007009f
:10493c000000e00001003c000044eb000804e00033
:10494c0018003200104180002141800018c0b300d3
:10495c006011b80023f007000000e00001003500f2
:10496c000044eb000804e0000e00320034418000eb
:10497c004541800010418000214180000001be00b3
:10498c000400be00d5ef07006fef0700a2fd20006a
:10499c00930424000fef0700f040880001418800c9
:1049ac0047003700304180004141800018c0b300ff
:1049bc006011b8000bf007000000e00001003500aa
:1049cc000044eb000804e0001800320010418000a5
:1049dc002141800018c0b3006011b80001f007003d
:1049ec000000e000010035000044eb000804e0008a
:1049fc000e0032003441800045418000104180009f
:104a0c00214180000001be000400be00b3ef07008e
:104a1c004def0700a2fd200093042400edee0700eb
:104a2c00f0408800014188002500370030418000ab
:104a3c004141800018c0b3006011b800e9ef0700d5
:104a4c000000e000010035000044eb000804e00029
:104a5c0018003200104180002141800018c0b300c2
:104a6c006011b800e1ef07000000e00001003c001d
:104a7c000044eb000804e0000e00320034418000da
:104a8c004541800010418000214180000001be00a2
:104a9c000400be0091ef07002bef0700a2fd2000e1
:104aac00930c2400cbee0700f040880001418800f5
:104abc00030037006000b800f04088000141880016
:104acc00f0408000014180000200200043332400ac
:104adc005cf00700a2fd2000930424007fef070088
:104aec00f0408800014188004f05be004f04be0015
:084afc000080fa000000060032
:020000040000fa
:104b04002027000008000000000000002827000003
:104b1400080000000000000030270000080000002a
:104b2400000000003827000008000000000000001a
:104b340080260000a0000000000000000025000006
:104b4400a00000000000000084080000060000002f
:104b540000000000402700009c000000000000004e
:104b6400000800005600000000000000900800004b
:104b74000400000002000000000080003f0000006c
:104b8400940800000200000002000000640000001d
:104b94009608000002000000000000008a080000df
:104ba40006000000000000009a0800000002000057
:104bb4000200000000002f00005e00007100bc0035
:104bc40000930000e200cd000057000078000900c7
:104bd40000260000eb00c40000b500009a00ae00ff
:104be40000810000f000df00001200003d004c00d6
:104bf40000630000f900d60000a70000880045000b
:104c0400006a00001b003400007300005c002d00eb
:104c140000020000cf00e00000910000be0024006c
:104c2400000b00007a00550000980000b700c60091
:104c340000e90000dd00f20000830000ac00610028
:104c4400004e00003f001000008a0000a500d400c0
:104c540000fb000036001900006800004700e60071
:104c640000c90000b8009700005a00007500040055
:104c7400002b0000b1009e0000ef0000c0000d00fa
:104c84000022000053007c0000480000670016006a
:104c940000390000f400db0000aa000085001f00ba
:104ca4000030000041006e0000a300008c00fd00f5
:104cb40000d200009500ba0000cb0000e4002900f7
:104cc400000600007700580000c20000ed009c00c0
:104cd40000b300007e005100002000000f003b00e4
:104ce4000014000065004a0000870000a800d900f5
:104cf40000f600006c004300003200001d00d000ec
:104d040000ff00008e00a10000e30000cc00db00e7
:104d1400009200005f007000000100002e00b4004b
:104d2400009b0000ea00c5000008000027005600b0
:104d3400007900004d006200001300003c00f10007
:104d440000de0000af008000001a000035004400bf
:104d5400006b0000a600890000f80000d700900056
:104d640000bf0000ce00e100002c00000300720030
:104d7400005d0000c700e80000990000b6007b0059
:104d84000054000025000a00003e000011006000ed
:104d9400004f00008200ad0000dc0000f300690059
:104da400004600003700180000d50000fa008b0010
:104db40000a4000005002a00005b00007400b90094
:104dc40000960000e700c800005200007d000c00bf
:104dd40000230000ee00c10000b000009f00ab0003
:104de40000840000f500da000017000038004900d4
:104df40000660000fc00d30000a200008d0040000b
:104e0400006f00001e0031000076000059002800e9
:104e140000070000ca00e50000940000bb00210068
:104e2400000e00007f005000009d0000b200c3008f
:104e340000ec0000d800f70000860000a900640020
:104e4400004b00003a001500008f0000a000d100c4
:104e540000fe000033001c00006d00004200000052
:104e6400560800002e000000000000009808000012
:104e74000200000000000000dc2700001000000019
:104e840000000000ec270000020000000000000009
:044e9400b2288000c0
:020000040000fa
:104e98000600fa002007980040002000100798003c
:104ea8000000eb00000f78000b0037001e007800b0
:104eb80000004000ae009000808040006274220034
:104ec8001e0078000000400000004100100078003b
:104ed800800878001e0fe8001e0090009e007800f1
:104ee800808f5000f1ff35000080fa0000000600b6
:104ef8000800fa00300798004000200020079800ba
:104f08000000eb00000f7800610037000000eb00a4
:104f1800100798005a0037001e0090001e0040003d
:104f28009e0090009e804000818040003e019000dd
:104f380081004100910078000274220000004000c6
:104f480000004100010878001e0090000000e00009
:104f58002a003a00017422001e0078000000400078
:104f680000804000100078006f0060005044880006
:104f780050448000e10f500003003200e20f50005f
:104f8800110032003b0037009e0078006144880021
:104f9800b0448000c400dd00f00f20008080600075
:104fa800504480006f00600081007000627422002d
:104fb8001e00780000004000000041000108780051
:104fc800000000002b0037009e0078007144880024
:104fd800017422001e00780000004000008040009c
:104fe80090007800627422001e00780000004000e3
:104ff80000004100010878001e003700504480007e
:10500800e10f500003003200e20f50000c003200a4
:10501800180037001e0090001e004000b2448000b7
:1050280001ff200081006100c488de006274220054
:105038000000400000004100010878000d00370022
:105048001e0090001e0040009e0090009e804000c0
:1050580002742200818040008100410091007800a4
:10506800627422000000400000004100010878003e
:10507800000000001e0090000000e80010079800e3
:105088001e009000e10f5000a3ff34001e8fe800bf
:105098002e0090009e007800808f50009bff350006
:1050a8000080fa00000006000000fa00eff907008f
:1050b8003bfa070027fa070063fb07006efa0700b0
:1050c800cc82a800c482a900c522a900c502a800f4
:1050d8000100370000000000604480000000e0008c
:1050e800010032007ffc0700704480000000e000ef
:1050f800f8ff3200704480008000400000742200f5
:105108000080400090007800704480000000e800b3
:1051180000014000007422000000410010007800e7
:105128004800dd00010070004480de007040880007
:1051380071408000f0ff2000000178001100090094
:105148008200d80080408800e3ff37000400fa009e
:0c515800008fbe000080fa00000006007e
:020000040000fa
:045164000000000047
:020000040000fa
:0200000401f009
:04000c00f8ff0000f9
:020000040000fa
:0200000401f009
:040010007fff00006e
:020000040000fa
:0200000401f009
:040014007fff00006a
:020000040000fa
:0200000401f009
:04001c00deff000003
:00000001FF
