:020000040000fa
:080000000002040000000000f2
:020000040000fa
:04000800a80200004a
:020000040000fa
:04000c00a802000046
:020000040000fa
:04001000a802000042
:020000040000fa
:04001400a80200003e
:020000040000fa
:04001800a80200003a
:020000040000fa
:04001c00a802000036
:020000040000fa
:04002000a802000032
:020000040000fa
:04002400a80200002e
:020000040000fa
:04002800a80200002a
:020000040000fa
:04002c00a802000026
:020000040000fa
:04003000a802000022
:020000040000fa
:040034003a05000089
:020000040000fa
:04003800a80200001a
:020000040000fa
:04003c00a802000016
:020000040000fa
:04004000a802000012
:020000040000fa
:04004400a80200000e
:020000040000fa
:04004800a80200000a
:020000040000fa
:04004c00a802000006
:020000040000fa
:0400500002060000a4
:020000040000fa
:04005400a8020000fe
:020000040000fa
:04005800a8020000fa
:020000040000fa
:04005c00a8020000f6
:020000040000fa
:04006000a8020000f2
:020000040000fa
:04006400a8020000ee
:020000040000fa
:04006800a8020000ea
:020000040000fa
:04006c00a8020000e6
:020000040000fa
:04007000a8020000e2
:020000040000fa
:04007400a8020000de
:020000040000fa
:04007800a8020000da
:020000040000fa
:04007c00a8020000d6
:020000040000fa
:04008000a8020000d2
:020000040000fa
:04008400a8020000ce
:020000040000fa
:04008800a8020000ca
:020000040000fa
:04008c00a8020000c6
:020000040000fa
:04009000a8020000c2
:020000040000fa
:04009400a8020000be
:020000040000fa
:04009800a8020000ba
:020000040000fa
:04009c00a8020000b6
:020000040000fa
:0400a000a8020000b2
:020000040000fa
:0400a400a8020000ae
:020000040000fa
:0400a800a8020000aa
:020000040000fa
:0400ac00a8020000a6
:020000040000fa
:0400b000a8020000a2
:020000040000fa
:0400b400a80200009e
:020000040000fa
:0400b800a80200009a
:020000040000fa
:0400bc00a802000096
:020000040000fa
:0400c000a802000092
:020000040000fa
:0400c400a80200008e
:020000040000fa
:0400c800a80200008a
:020000040000fa
:0400cc00a802000086
:020000040000fa
:0400d000a802000082
:020000040000fa
:0400d400a80200007e
:020000040000fa
:0400d800a80200007a
:020000040000fa
:0400dc00a802000076
:020000040000fa
:0400e000a802000072
:020000040000fa
:0400e400a80200006e
:020000040000fa
:0400e800a80200006a
:020000040000fa
:0400ec00a802000066
:020000040000fa
:0400f000a802000062
:020000040000fa
:0400f400a80200005e
:020000040000fa
:0400f800a80200005a
:020000040000fa
:0400fc00a802000056
:020000040000fa
:04010000a802000051
:020000040000fa
:04010400a80200004d
:020000040000fa
:04010800a802000049
:020000040000fa
:04010c00a802000045
:020000040000fa
:04011000a802000041
:020000040000fa
:04011400a80200003d
:020000040000fa
:04011800a802000039
:020000040000fa
:04011c00a802000035
:020000040000fa
:04012000a802000031
:020000040000fa
:04012400a80200002d
:020000040000fa
:04012800a802000029
:020000040000fa
:04012c00a802000025
:020000040000fa
:04013000a802000021
:020000040000fa
:04013400a80200001d
:020000040000fa
:04013800a802000019
:020000040000fa
:04013c00a802000015
:020000040000fa
:04014000a802000011
:020000040000fa
:04014400a80200000d
:020000040000fa
:04014800a802000009
:020000040000fa
:04014c00a802000005
:020000040000fa
:04015000a802000001
:020000040000fa
:04015400a8020000fd
:020000040000fa
:04015800a8020000f9
:020000040000fa
:04015c00a8020000f5
:020000040000fa
:04016000a8020000f1
:020000040000fa
:04016400a8020000ed
:020000040000fa
:04020800a802000048
:020000040000fa
:04020c00a802000044
:020000040000fa
:04021000a802000040
:020000040000fa
:04021400a80200003c
:020000040000fa
:04021800a802000038
:020000040000fa
:04021c00a802000034
:020000040000fa
:04022000a802000030
:020000040000fa
:04022400a80200002c
:020000040000fa
:04022800a802000028
:020000040000fa
:04022c00a802000024
:020000040000fa
:04023000a802000020
:020000040000fa
:04023400a80200001c
:020000040000fa
:04023800a802000018
:020000040000fa
:04023c00a802000014
:020000040000fa
:04024000a802000010
:020000040000fa
:04024400a80200000c
:020000040000fa
:04024800a802000008
:020000040000fa
:04024c00a802000004
:020000040000fa
:04025000a802000000
:020000040000fa
:04025400a8020000fc
:020000040000fa
:04025800a8020000f8
:020000040000fa
:04025c00a8020000f4
:020000040000fa
:04026000a8020000f0
:020000040000fa
:04026400a8020000ec
:020000040000fa
:04026800a8020000e8
:020000040000fa
:04026c00a8020000e4
:020000040000fa
:04027000a8020000e0
:020000040000fa
:04027400a8020000dc
:020000040000fa
:04027800a8020000d8
:020000040000fa
:04027c00a8020000d4
:020000040000fa
:04028000a8020000d0
:020000040000fa
:04028400a8020000cc
:020000040000fa
:04028800a8020000c8
:020000040000fa
:04028c00a8020000c4
:020000040000fa
:04029000a8020000c0
:020000040000fa
:04029400a8020000bc
:020000040000fa
:04029800a8020000b8
:020000040000fa
:04029c00a8020000b4
:020000040000fa
:0402a000a8020000b0
:020000040000fa
:0402a400a8020000ac
:020000040000fa
:0402a800a8020000a8
:020000040000fa
:0402ac00a8020000a4
:020000040000fa
:0402b000a8020000a0
:020000040000fa
:0402b400a80200009c
:020000040000fa
:0402b800a802000098
:020000040000fa
:0402bc00a802000094
:020000040000fa
:0402c000a802000090
:020000040000fa
:0402c400a80200008c
:020000040000fa
:0402c800a802000088
:020000040000fa
:0402cc00a802000084
:020000040000fa
:0402d000a802000080
:020000040000fa
:0402d400a80200007c
:020000040000fa
:0402d800a802000078
:020000040000fa
:0402dc00a802000074
:020000040000fa
:0402e000a802000070
:020000040000fa
:0402e400a80200006c
:020000040000fa
:0402e800a802000068
:020000040000fa
:0402ec00a802000064
:020000040000fa
:0402f000a802000060
:020000040000fa
:0402f400a80200005c
:020000040000fa
:0402f800a802000058
:020000040000fa
:0402fc00a802000054
:020000040000fa
:04030000a80200004f
:020000040000fa
:04030400a80200004b
:020000040000fa
:04030800a802000047
:020000040000fa
:04030c00a802000043
:020000040000fa
:04031000a80200003f
:020000040000fa
:04031400a80200003b
:020000040000fa
:04031800a802000037
:020000040000fa
:04031c00a802000033
:020000040000fa
:04032000a80200002f
:020000040000fa
:04032400a80200002b
:020000040000fa
:04032800a802000027
:020000040000fa
:04032c00a802000023
:020000040000fa
:04033000a80200001f
:020000040000fa
:04033400a80200001b
:020000040000fa
:04033800a802000017
:020000040000fa
:04033c00a802000013
:020000040000fa
:04034000a80200000f
:020000040000fa
:04034400a80200000b
:020000040000fa
:04034800a802000007
:020000040000fa
:04034c00a802000003
:020000040000fa
:04035000a8020000ff
:020000040000fa
:04035400a8020000fb
:020000040000fa
:04035800a8020000f7
:020000040000fa
:04035c00a8020000f3
:020000040000fa
:04036000a8020000ef
:020000040000fa
:04036400a8020000eb
:020000040000fa
:100400000f8220004e7e22000e01880000000000b6
:10041000000020000000e000020032000001200087
:10042000200288000c000700206c20000100200042
:1004300011000700000020000000e0000200320070
:10044000000002000000000066060200000000003c
:100450000040da000000fe004440a9000000200037
:100460000000e0000300320000002000a00188002e
:100470004440a80000000600910188008000780038
:100480000000eb0015003700e280400032a0b4000d
:100490009101ba00e280400032a0b4009102ba009b
:1004a000e280400032a0b4000002eb00472bde00e7
:1004b000f507b200602ce10004003a000059eb009f
:1004c0008301e900fdff3e00040037006128e100e0
:1004d000010032000082eb000b00070011c3ba00dc
:1004e0001101ba000604e00003003a000200e00037
:1004f000e5ff3a0000000600f607b200960188000a
:1005000082007800f5ff37003159ba008301e90015
:100510000c0032002159ba008301e90008003200c2
:100520000400e00003003a00e280400032a0b40082
:10053000f5ff370011d9ba008301e900faff3a004c
:100540008100e800e180400032a0b4000000060015
:100550000040da000000fe0003f0a200889fbe0009
:100560008a9fbe008c1f7800b3000700ba003300da
:100570006450e1004f0032006420e100520032007c
:1005800003826c0007003b000905d0000306d00081
:10059000820f54000c065d00020039000200320098
:1005a00089017800030678008582550004003d002b
:1005b0000003fd008103fd008502ea008b854200f7
:1005c000840f720002003b0060001000e080180001
:1005d0006011b8000005eb007a28e1000a0039003c
:1005e00006007800c75ddd00f707b2008780750060
:1005f0002d003700828171000a01780061056000da
:100600008180d1000080d3008502e900f9ff3b0022
:10061000060440008784480002003b006004140088
:10062000e0841c000988a300070032008a81710061
:1006300082817100610164008904d1000884d300c3
:100640008b05e800170037000978a30013003a0073
:100650000b00e000130034008b05e900080444009f
:1006600089844c000a4474000978a3000d003a0004
:100670000b00e000070034008b05e900080444008b
:1006800089844c0001003a000b0020000978a30087
:10069000f7ff32000001eb00020037008281710099
:1006a0000a017800290007000cf0a70001f0a00063
:1006b000720037006420e10002003a00838f6c0072
:1006c000720033000801be000200be006b0037005c
:1006d00014002000a4003700f4ff2f00a200370010
:1006e0000001be003f0007000470a70003f0a10056
:1006f00003f8a30013003a006509b10010003200ae
:10070000090035006928e1000200350001002800d9
:100710000000050000004000818048008502e900db
:10072000fcff3a0000000600f88f4200050035008b
:100730008100d1000080d3008502e800fcff3a0070
:10074000000006008000eb00000005008100200092
:10075000618055000b003d000b00200061fe2f0062
:100760000100e1001d00340082817100610164001c
:100770008904d1000884d3000000e800faff3a00a1
:10078000710020006100640003007000020060003e
:100790000900320061044400e0844c000988a5008f
:1007a000050032008b05e8006808e10002003a000d
:1007b0008904d1000884d300f20f20000258e10020
:1007c00005003d00c75ddd00f907b20089807500b6
:1007d00008007800000006000bf827008b00780066
:1007e00000000500c70ade00f107b200f50fb200f5
:1007f00008003200e1cf4200020032000170a00088
:1008000024000500810f700001003200040805007b
:1008100044000500810f700002003a00140005003a
:100820008502e9000000400081c04800fcff3b0059
:100830000170a000240005000004be00e9ff0700cd
:100840000003be000405be000200be00e5ff070075
:10085000844f7500000006000200be006450e100f5
:10086000050036006420e100020036000968a3009c
:1008700001003a000800be000160a0004f067800a9
:100880004f05be004f04be0000000600f0ff2f0021
:10089000f1ff2700f9ff3700889fbe008a9fbe0046
:1008a0008c1f7800e4ff0700ebff330003866c0029
:1008b0006450e100240032006420e100270032008f
:1008c0006150e100220032006120e100210032008d
:1008d0008b854200eb07b1000134b800003ab80044
:1008e0000804420089844a00013ab8000030b80088
:1008f0008880400009014a000400330000004000e5
:1009000081804800020149008b05e900c909dd002a
:10091000830170000100320013002000c814de00c3
:100920004814dd004709de001200b200c808de00ee
:100930000884700085ff070001f0a1000cf0a700fb
:1009400001f0a000cdff37006120e100cfff3200b1
:100950000801be000200be00f7ff37006150e10051
:10096000fcff3a00c9ff3700889fbe008a9fbe0087
:10097000841f7800b0ff07004f007800110033009b
:10098000f0ff2f00838f6c0006003b00040565001c
:100990000a00a7000800370009f0a6001000200098
:1009a00008003700820f5400838f5c000300390079
:1009b0001000200001003e000000200009f0a70008
:1009c0000000ea004f05be004f04be000000e0003a
:0409d000000006001d
:020000040000fa
:1009d4000000fa0090022000303a8800203a80009b
:1009e4000060a1000070a100203a8800213a800034
:1009f40000fe2f0000806000203a880012002000d2
:100a040080072000a1092000337420008049780069
:100a14008149780082497800120020006004200097
:100a240071052000237420008049780081497800f2
:100a34008249780000000000113a8000000027007d
:100a44008080600000002100808f5000faff3a008f
:100a540000000000113a80000002200000806000c5
:100a64000000e000fbff32000080fa0000000600f6
:100a7400809fbe003400f80000002000a001880020
:100a84000000fa008460a9001000200040408800a3
:100a9400004080001140800061004000e080480078
:100aa40000408800114088000080fa003400f900fa
:100ab4004f00be00004006000000fa000021ef00d5
:100ac400200880000040a0000050a00020088800fa
:100ad400804080009140800002002000b331240057
:100ae4006cff07000200200003f8230099fe0700b2
:100af400fafe070000007800100888008460a9004e
:100b04009460a80005e1a8000080fa000000060037
:100b14000000fa000080eb0060198800c022ef009a
:100b2400c622ef00c422ef00c822ef00ce22ef005d
:100b3400cc22ef000080fa00000006000000fa005a
:100b44005136800000fe2f00008060007000b3006a
:100b54005036880041358000f00f2e008080600000
:100b640000c020000100700040358800413580003d
:100b740000fe2f0000806000d000b30040358800e4
:100b84004022ef004822ef008540a9009540a900cb
:100b94004222ef004382a9004362a9004342a90014
:100ba4004322a9004302a90042c2a90042a2a9000b
:100bb400101280000020a1000030a0000040a0001e
:100bc40010128800101280000000a0000010a10084
:100bd4001012880040c2a90041e2a8008540a90083
:100be4009540a800400580000080a1000090a0006e
:100bf40000a0a000400588000080fa000000060064
:100c0400801f78003400f80000002000a001880054
:100c14000000fa00704080000000e8007040880086
:100c24008540a90040c2a9000080fa003400f90000
:100c34004f007800004006000600fa00889fbe00be
:100c44001007980021079800190020006011b800cf
:100c54001e009000ae0090009efe07000000e00021
:100c640001003c008004eb00180020006011b80073
:100c74001e009000ae00900094fe07000000e0000b
:100c8400010035000004eb00088f54000400070045
:100c94001e0078004f04be000080fa000000060029
:100ca4000200fa000000eb00000f7800010037009a
:100cb4001e0fe8001e007800ee0f5000fcff340009
:100cc4000080fa00000006000200fa0040ff07005e
:100cd4008fff070099ff0700cb22a8000000eb005c
:100ce400000f780010002000d04088000000eb00c6
:100cf400e040880020002000f04088001000200020
:100d04004012880000000000704080000000e000f5
:100d1400fdff3200411280001e00780000014000f7
:100d24004081200000004100010878000e28ef00f7
:100d34001e0fe8001e007800e20f5000020034008d
:100d44000000eb00000f78001e0078000000e000b7
:100d540002003a00c242a80001003700c242a900c2
:100d64001e00780080004000a08120000080400028
:100d7400100078004012880000000000e2ff3700f5
:020000040000fa
:100d8400140800000c00000000000000fa27000016
:100d94000600000000000000f42700000600000028
:100da4000000000000080000100000000000000027
:100db4001008000004000000020000000000800091
:080dc4003f000000e60680007c
:020000040000fa
:040dcc000000000023
:020000040000fa
:0200000401f009
:04000c00f8ff0000f9
:020000040000fa
:0200000401f009
:040010007fff00006e
:020000040000fa
:0200000401f009
:040014007fff00006a
:020000040000fa
:0200000401f009
:04001c00dfff000002
:00000001FF
