:020000040000fa
:080000000002040000000000f2
:020000040000fa
:100400000f8720004e7e22000e01880000000000b1
:100410000c000700006b2000010020001100070005
:10042000000020000000e000020032000000020096
:100430000000000058060200000000000040da0042
:100440000000fe004440a900000020000000e00081
:100450000300320000002000a00188004440a800f2
:100460000000060091018800800078000000eb0089
:1004700015003700e280400032a0b4009101ba00bc
:10048000e280400032a0b4009102ba00e280400055
:1004900032a0b4000002eb00472bde00f507b200eb
:1004a000602ce10004003a000059eb008301e900f0
:1004b000fdff3e00040037006128e100010032002a
:1004c0000082eb00040007001101ba000200e00006
:1004d000e8ff3a00000006003159ba008301e90044
:1004e0000c0032002159ba008301e90008003200f3
:1004f0000400e00003003a00e280400032a0b400b3
:10050000f5ff370011d9ba008301e900faff3a007c
:100510008100e800e180400032a0b4000000060045
:100520000040da000000fe00889fbe008a9fbe00e7
:100530008c1f7800ad000700b400330003866c0008
:100540006450e100240032006420e1002700320002
:100550006150e100220032006120e1002100320000
:100560008b854200eb07b1000134b800003ab800b7
:100570000804420089844a00013ab8000030b800fb
:100580008880400009014a00040033000000400058
:1005900081804800020149008b05e900c909dd009e
:1005a000830170000100320013002000c814de0037
:1005b0004814dd004709de001200b200c808de0062
:1005c00008847000a100070001f0a1000cf0a70052
:1005d00001f0a000960037006120e1009800320091
:1005e0000801be000200be00f7ff37006150e100c5
:1005f000fcff3a009200370003f0a200889fbe0083
:100600008a9fbe008c1f7800780007007f003300af
:100610006450e1004f0032006420e10052003200db
:1006200003826c0007003b000905d0000306d000e0
:10063000820f54000c065d000200390002003200f7
:1006400089017800030678008582550004003d008a
:100650000003fd008103fd008502ea008b85420056
:10066000840f720002003b0060001000e080180060
:100670006011b8000005eb007a28e1000a0039009b
:1006800006007800c75ddd00f707b20087807500bf
:100690002d003700828171000a0178006105600039
:1006a0008180d1000080d3008502e900f9ff3b0082
:1006b000060440008784480002003b0060041400e8
:1006c000e0841c000988a300070032008a817100c1
:1006d00082817100610164008904d1000884d30023
:1006e0008b05e800170037000978a30013003a00d3
:1006f0000b00e000130034008b05e90008044400ff
:1007000089844c000a4474000978a3000d003a0063
:100710000b00e000070034008b05e90008044400ea
:1007200089844c0001003a000b0020000978a300e6
:10073000f7ff32000001eb000200370082817100f8
:100740000a017800410007000cf0a70001f0a000aa
:10075000370037006420e10002003a00838f6c000c
:10076000370033000801be000200be003000370031
:100770000001be005b0007000470a70003f0a100a9
:1007800003f8a30013003a006509b100100032001d
:10079000090035006928e100020035000100280049
:1007a0000000050000004000818048008502e9004b
:1007b000fcff3a0000000600f88f420005003500fb
:1007c0008100d1000080d3008502e800fcff3a00e0
:1007d000000006008000eb0000000500f4ff2f0081
:1007e0005500370014002000530037000004be00fd
:1007f0003c0007000003be000405be000200be006e
:1008000038000700844f7500000006000200be009b
:100810006450e100050036006420e100020036006b
:100820000968a30001003a000800be000160a000b2
:100830004f0678004f05be004f04be0000000600c2
:10084000f0ff2f00f1ff2700f9ff370081002000a3
:10085000618055000b003d000b00200061fe2f0061
:100860000100e1001d00340082817100610164001b
:100870008904d1000884d3000000e800faff3a00a0
:10088000710020006100640003007000020060003d
:100890000900320061044400e0844c000988a5008e
:1008a000050032008b05e8006808e10002003a000c
:1008b0008904d1000884d300f20f20000258e1001f
:1008c00005003d00c75ddd00f907b20089807500b5
:1008d00008007800000006000bf827008b00780065
:1008e00000000500c70ade00f107b200f50fb200f4
:1008f00008003200e1cf4200020032000170a00087
:1009000024000500810f700001003200040805007a
:1009100044000500810f700002003a001400050039
:100920008502e9000000400081c04800fcff3b0058
:100930000170a00024000500889fbe008a9fbe00b1
:10094000841f7800a9ff07004f00780011003300d2
:10095000f0ff2f00838f6c0006003b00040565004c
:100960000a00a7000800370009f0a60010002000c8
:1009700008003700820f5400838f5c0003003900a9
:100980001000200001003e000000200009f0a70038
:100990000000ea004f05be004f04be000000e0006a
:0409a000000006004d
:020000040000fa
:0200000401f009
:04000c00f8ff0000f9
:020000040000fa
:0200000401f009
:040010007fff00006e
:020000040000fa
:0200000401f009
:040014007fff00006a
:020000040000fa
:0200000401f009
:04001c00dfff000002
:020000040000fa
:1000080090020000900200009002000090020000a0
:100018009002000090020000900200009002000090
:1000280090020000900200009002000018050000f5
:100038009002000090020000900200009002000070
:100048009002000090020000e80500009002000005
:100058009002000090020000900200009002000050
:100068009002000090020000900200009002000040
:100078009002000090020000900200009002000030
:100088009002000090020000900200009002000020
:100098009002000090020000900200009002000010
:1000a8009002000090020000900200009002000000
:1000b80090020000900200009002000090020000f0
:1000c80090020000900200009002000090020000e0
:1000d80090020000900200009002000090020000d0
:1000e80090020000900200009002000090020000c0
:1000f80090020000900200009002000090020000b0
:10010800900200009002000090020000900200009f
:10011800900200009002000090020000900200008f
:10012800900200009002000090020000900200007f
:10013800900200009002000090020000900200006f
:10014800900200009002000090020000900200005f
:10015800900200009002000090020000900200004f
:10016800900200009002000090020000900200003f
:10017800900200009002000090020000900200002f
:10018800900200009002000090020000900200001f
:10019800900200009002000090020000900200000f
:1001a80090020000900200009002000090020000ff
:1001b80090020000900200009002000090020000ef
:1001c80090020000900200009002000090020000df
:1001d80090020000900200009002000090020000cf
:1001e80090020000900200009002000090020000bf
:0801f8009002000090020000db
:020000040000fa
:10020800900200009002000090020000900200009e
:10021800900200009002000090020000900200008e
:1002280090020000900200009002000018050000f3
:10023800900200009002000090020000900200006e
:100248009002000090020000e80500009002000003
:10025800900200009002000090020000900200004e
:10026800900200009002000090020000900200003e
:10027800900200009002000090020000900200002e
:10028800900200009002000090020000900200001e
:10029800900200009002000090020000900200000e
:1002a80090020000900200009002000090020000fe
:1002b80090020000900200009002000090020000ee
:1002c80090020000900200009002000090020000de
:1002d80090020000900200009002000090020000ce
:1002e80090020000900200009002000090020000be
:1002f80090020000900200009002000090020000ae
:10030800900200009002000090020000900200009d
:10031800900200009002000090020000900200008d
:10032800900200009002000090020000900200007d
:10033800900200009002000090020000900200006d
:10034800900200009002000090020000900200005d
:10035800900200009002000090020000900200004d
:10036800900200009002000090020000900200003d
:10037800900200009002000090020000900200002d
:10038800900200009002000090020000900200001d
:10039800900200009002000090020000900200000d
:1003a80090020000900200009002000090020000fd
:1003b80090020000900200009002000090020000ed
:1003c80090020000900200009002000090020000dd
:1003d80090020000900200009002000090020000cd
:1003e80090020000900200009002000090020000bd
:0803f8009002000090020000d9
:020000040000fa
:1009a4000000fa0090022000303a880044c7bf00db
:1009b400f043b20044e7b70041742000914078004e
:1009c40000ceb30000c0600044e7b700120020006e
:1009d40081072000a0092000337420008149780099
:1009e40080497800824978001200200061042000c8
:1009f4007005200023742000814978008049780024
:100a04008249780043c7bf000047b200f04f50004e
:100a1400fcff3a0042c7bf000042b2000004e000fd
:100a2400fcff32000080fa0000000600809fbe0038
:100a34003400f80000002000a00188000000fa0043
:100a44008460a9001000200000438800e042800078
:100a5400f142800061004000e0804800e0428800ec
:100a6400f14288000080fa003400f9004f00be0013
:100a7400004006000000fa000000eb0000088800b7
:100a8400411020009140780000c3b30000c0700002
:100a940004e1b700104380002143800002002000dd
:100aa400b33124009ffe07000200200003f8230056
:100ab400d0fe07002dff0700100888008460a900fd
:100ac4009460a80005e1a8000080fa000000060078
:100ad4000000fa000080eb00601988000000eb00c1
:100ae400001688000000eb00301688000000eb00c0
:100af400201688000000eb00401688000000eb0080
:100b0400701688000000eb00601688000080fa0070
:100b1400000006000000fa00a16c2000914078005b
:100b240000ceb30000c060007040b300cae6b70056
:100b3400916a20009140780000ceb30000c06000ac
:100b4400c040b300a9e6b700816a20009140780054
:100b540000ceb30000c06000d040b300a8e6b700e8
:100b64000000eb00001288000000eb004012880037
:100b74008540a9009540a9000000eb0010128800f0
:100b84004382a9004362a9004342a9004322a90069
:100b94004302a90042c2a90042a2a90040c2a9007e
:100ba40041e2a8008540a9009540a800910a2000d0
:100bb4009140780080cfb30000c060006040b30073
:100bc400a9e0b7000080fa0000000600801f78004a
:100bd4003400f80000002000a00188000000fa00a2
:100be400704380000000e800704388008540a9003d
:100bf40040c2a9000080fa003400f9004f007800d8
:100c0400004006000a00fa00100798002107980027
:100c14000000eb00400798006011b8001e0090002f
:100c2400ae009000ecfe07000000e00001003c0074
:100c34000200370011002000410798000000eb007b
:100c4400300798006011b8001e009000ae009000bc
:100c5400e3fe07000000e000010035000200370059
:100c640011002000310798004e009000be00900053
:100c7400010f5000030007001e0078000080fa00f6
:100c8400000006000200fa000000eb00000f7800ec
:100c9400010037001e0fe800e00020009e0f100046
:100ca400fcff34000080fa00000006000200fa0095
:100cb4003bff070086ff070096ff0700cb22a80032
:100cc4000000eb00000f780010002000b042880004
:100cd4000000eb00c042880020002000d0428800c1
:100ce40010002000401288001e0fe80020002000a1
:100cf4009e0f1000020034000000eb00000f78008b
:100d04001e00e00002003a00c242a80001003700c1
:100d1400c242a900704380000000e000fdff3200e1
:100d24001e007800421280008000400000852000f0
:100d340000804000020878000000eb007043880047
:100d44001e00780080004000608520000080400084
:0c0d54001000780040128800e3ff370018
:020000040000fa
:100d6000fa2700000600000000000000f427000041
:100d70000600000000000000500800000c00000009
:100d8000000000005c0800000a00000002000000f3
:100d90000000000000000000000080003f00000094
:100da000660800000a0000000000000000000000cb
:00000001FF
